:1000000050C300007FC300007DC300007BC300001D
:1000100079C3000077C3000075C3000073C30000FC
:1000200071C300000C947D1D6DC300006BC3000004
:1000300069C300000C948C1D65C3000063C30000FD
:1000400061C300000C949D1D5DC300005BC30000F4
:1000500059C3000057C3000055C300000C944E1B49
:1000600051C300000C94181B0C94EE1A4BC30000F3
:1000700049C3000047C3000045C3000043C300005C
:1000800041C300003FC300003DC300003BC300006C
:1000900039C3000037C3000035C300000C94981B1F
:1000A00031C300002FC300002DC300002BC300008C
:1000B00029C3000027C3000025C3000023C300009C
:1000C00021C300001FC300001DC300001BC30000AC
:1000D00019C3000017C3000015C3000013C30000BC
:1000E00011C300000C102D0D000000808080808066
:1000F000800000000000010303030303030100006C
:1001000000000000000000000000000000000000EF
:1001100000C0C000000000000000028686868686BF
:1001200086020000000081C3C3C3C3C3C3810000B3
:1001300000FC7A0606060606067AFC00007EBCC0B5
:10014000C0C0C0C0C0BC7E000000000000000000B5
:100150000078FC000000000000000000003C7E0071
:100160000000028686868686867AFC00007EBDC3F5
:10017000C3C3C3C3C381000000000286868686868F
:10018000867AFC00000081C3C3C3C3C3C3BD7E0025
:1001900000FC7880808080808078FC000000010373
:1001A00003030303033D7E0000FC7A868686868671
:1001B00086020000000081C3C3C3C3C3C3BD7E0069
:1001C00000FC7A868686868686020000007EBDC395
:1001D000C3C3C3C3C3BD7E000000020606060606F5
:1001E000067AFC000000000000000000003C7E00D9
:1001F00000FC7A8686868686867AFC00007EBDC3F1
:10020000C3C3C3C3C3BD7E0000FC7A8686868686D0
:10021000867AFC00000081C3C3C3C3C3C3BD7E0094
:100220000406205F00000003A000C00C00F94F800E
:100230006BEB00988C8052A58003000001C8808978
:10024000C00050850021C20008400020820000202C
:1002500000188C00FA2F804BE0805A66808AA50037
:10026000E08F80EAAB0072A9009A8C00FAAF804A56
:10027000A700014000094000214880514500894203
:100280000042660072A6807A8780FAA50072250077
:10029000FA2700FAA880FA8800722B00F88F808B6A
:1002A000E8808BE800F88D80F82080F90F80F9CF86
:1002B00080722700FA8400722740FA85804AA900DC
:1002C00083E800F02F00E06E00F0EF00D88D80C0D2
:1002D000EC009AAC8003E880C081808BE00042048F
:1002E00000082080020400312380F923003124809B
:1002F000312F8031628023EA00255380F903800288
:10030000E00006E000F8428003E0007987803903CE
:10031000803123007D23003127C0788400294000EC
:1003200043E40070270060660070670048C4807472
:10033000578059E68023E8800360008BE200610C5F
:10034000000608205F0000000000000000002F00F1
:100350000000000700070000147F147F1400242A07
:100360007F2A120023130864620036495522500088
:10037000000503000000001C224100000041221C77
:10038000000014083E08140008083E080800000099
:10039000A060000008080808080000606000000075
:1003A0002010080402003E5149453E0000427F40B3
:1003B00000004261514946002141454B310018146B
:1003C000127F10002745454539003C4A4949300015
:1003D0000171090503003649494936000649492992
:1003E0001E000036360000000056360000000814DB
:1003F00022410000141414141400004122140800B7
:10040000020151090600324959513E007C12111275
:100410007C007F49494936003E41414122007F41ED
:1004200041221C007F49494941007F090909010017
:100430003E4149497A007F0808087F0000417F411A
:1004400000002040413F01007F08142241007F400E
:10045000404040007F020C027F007F0408107F00B4
:100460003E4141413E007F09090906003E415121BC
:100470005E007F09192946004649494931000101BA
:100480007F0101003F4040403F001F2040201F00EF
:100490003F4038403F0063140814630007087008A9
:1004A0000700615149454300007F414100AA55AA18
:1004B00055AA55000041417F0000040201020400DA
:1004C00040404040400000030500000020545454C8
:1004D00078007F484444380038444444200038447D
:1004E00044487F00385454541800087E0901020023
:1004F00018A4A4A47C007F080404780000447D4074
:1005000000004080847D00007F10284400000041EE
:100510007F4000007C04180478007C080404780004
:10052000384444443800FC24242418001824241897
:10053000FC007C0804040800485454542000043F84
:10054000444020003C4040207C001C2040201C00F7
:100550003C4030403C004428102844001CA0A0A08F
:100560007C004464544C440000107C820000000075
:10057000FF00000000827C10000000060909060050
:10058000002100240027002A002D00300033000144
:10059000010000040107010A0100002200250028D3
:1005A000002B002E0031003400020100000501087C
:1005B000010B01000020002300260029002C002F41
:1005C00000320000010000030106010901050505D4
:1005D00005070508080808020202020A0A080804BA
:1005E00004040401010101010101010303030303E8
:1005F000030303040707070C0C0C0C0C0C0C0C0277
:1006000002020206060606060606060B0B0B0B0B7D
:100610000B0B0B0102102020080810204010204076
:1006200080020102010804020101020408102040B6
:1006300080804020100804020180040201804020D4
:1006400010080402010804020101020408102040FD
:1006500080010204081020408000000A0B02090CEF
:100660000D0E080703040100000000000000000058
:10067000000000000000000000000000000000007A
:100680000000000000121110000000000000000037
:10069000000000000000000000000000000000005A
:1006A000E11D11241FBECFEFD1E2DEBFCDBF00E0C0
:1006B0000CBF16E0A0E0B2E0EEE6FDE300E00BBF09
:1006C00002C007900D92AA32B107D9F727E0AAE23B
:1006D000B6E001C01D92A939B207E1F713E0C1E508
:1006E000D3E000E006C021970109802FFE010E949F
:1006F000AD1EC035D10780E00807A9F70E94E41DB0
:100700000C94B51E7DCC4F925F926F927F92AF9208
:10071000BF92CF92DF92EF92FF920F931F93CF93EE
:10072000DF93CDB7DEB729013A019B01AC01241953
:100730003509460957098A899B89AC89BD89BC015D
:10074000CD016A197B098C099D090E949E1EA80192
:10075000970124193509460957090E94471ECA0105
:10076000B9016A0D7B1D8C1D9D1DDF91CF911F91DD
:100770000F91FF90EF90DF90CF90BF90AF907F9060
:100780006F905F904F900895DC01ED91FC91019086
:10079000F081E02D1994AF92BF92CF92DF92EF9249
:1007A000FF920F931F93CF93DF936C017B018B011B
:1007B000040F151FEB015E01AE18BF08C017D1076B
:1007C00059F06991D601ED91FC910190F081E02DF5
:1007D000C6011995892B79F7C501DF91CF911F913A
:1007E0000F91FF90EF90DF90CF90BF90AF90089562
:1007F000FC01538D448D252F30E0842F90E0821B27
:10080000930B541710F0CF96089501970895FC01AB
:10081000918D828D981761F0A28DAE0FBF2FB11D03
:100820005D968C91928D9F5F9F73928F90E008955B
:100830008FEF9FEF0895FC01918D828D981731F015
:10084000828DE80FF11D858D90E008958FEF9FEF69
:100850000895FC01918D228D892F90E0805C9F4F3F
:10086000821B91098F73992708958CEF96E0F1DF31
:1008700021E0892B09F420E0822F0895CF92DF92A6
:10088000EF92FF921F93CF93DF93EC016A017B01FC
:10089000122FE889F98982E08083C11481EED8069D
:1008A000E104F104A1F060E079E08DE390E0A701BC
:1008B00096010E946D1E215031094109510956953A
:1008C000479537952795211580E1380798F0E889F5
:1008D000F989108260E874E88EE190E0A701960142
:1008E0000E946D1E215031094109510956954795C5
:1008F00037952795EC85FD853083EE85FF85208330
:10090000188EEC89FD891083EA89FB8980818061DA
:100910008083EA89FB89808188608083EA89FB89FA
:10092000808180688083EA89FB8980818F7D8083D4
:10093000DF91CF911F91FF90EF90DF90CF900895BE
:10094000FC01A48DA80FB92FB11DA35ABF4F2C9144
:10095000848D90E001968F739927848FA689B7893B
:100960002C93A089B1898C91837080648C93938D32
:10097000848D981306C00288F389E02D80818F7DD5
:1009800080830895EF92FF920F931F93CF93DF938D
:10099000EC0181E0888F9B8D8C8D98131AC0E889BB
:1009A000F989808185FF15C09FB7F894EE89FF898A
:1009B0006083E889F98980818370806480839FBF28
:1009C00081E090E0DF91CF911F910F91FF90EF9028
:1009D0000895F62E0B8D10E00F5F1F4F0F73112738
:1009E000E02E8C8D8E110BC00FB607FCFACFE88974
:1009F000F989808185FFF5CFCE01A2DFF2CFEB8DA3
:100A0000EC0FFD2FF11DE35AFF4FF0829FB7F894D2
:100A10000B8FEA89FB8980818062D0CFCF93DF93EF
:100A2000EC01888D8823B1F0AA89BB89E889F9890E
:100A30008C9185FD03C0808186FD0CC00FB607FC3C
:100A4000F7CF8C9185FFF2CF808185FFEDCFCE016E
:100A500077DFEACFDF91CF91089580E090E0892B96
:100A600021F003DF81110E94000080E090E0892BDB
:100A700049F080E090E0892B29F00E94000081116C
:100A80000E94000080E090E0892B49F080E090E037
:100A9000892B29F00E94000081110E94000080E053
:100AA00090E0892B49F080E090E0892B29F00E94AA
:100AB000000081110C94000008958150823108F0EB
:100AC0005AC0E82FF0E08827E759FA4F8F4F0C946F
:100AD000AD1E89058D057B0581058505BB05900546
:100AE00096059A05A005A405A805AE05B205BB05A7
:100AF000B605BC05C005809180008F77809380008B
:100B00000895809180008F7DF9CF80918000877F4C
:100B1000F5CF84B58F7784BD089584B58F7DFBCFE5
:100B20008091B0008F778093B00008958091B000DD
:100B30008F7DF9CF809190008F77809390000895FA
:100B4000809190008F7DF9CF80919000877FF5CFC5
:100B50008091A0008F778093A00008958091A000DD
:100B60008F7DF9CF8091A000877FF5CF8091200104
:100B70008F77809320010895809120018F7DF9CF98
:100B800080912001877FF5CFCF93DF93282F30E02E
:100B9000F901E75AF94F8491F901ED5EF94FD491CB
:100BA000F901E353FA4FC491CC2399F0811185DF09
:100BB000EC2FF0E0EE0FFF1FED54FA4FA591B4912A
:100BC000EC91ED2381E090E009F480E0DF91CF919A
:100BD000089580E090E0FACF1F93CF93DF93282F02
:100BE00030E0F901E75AF94F8491F901ED5EF94FD0
:100BF000D491F901E353FA4FC491CC23A1F0162FFD
:100C000081115BDFEC2FF0E0EE0FFF1FE756FA4F8C
:100C1000A591B4918FB7F894EC91111108C0D095BB
:100C2000DE23DC938FBFDF91CF911F910895DE2BE0
:100C3000F8CFCF93DF9390E0FC01ED5EF94F249164
:100C400083539A4FFC0184918823C9F090E0880F68
:100C5000991FFC01E158FA4FA591B491FC01E756A8
:100C6000FA4FC591D49161110DC09FB7F8948C9142
:100C7000209582238C938881282328839FBFDF912E
:100C8000CF910895623051F49FB7F8943C91822F30
:100C9000809583238C93E8812E2BEFCF8FB7F89428
:100CA000EC912E2B2C938FBFEACF863308F086531E
:100CB00020917B00982F9870277F922B90937B0038
:100CC0008770806480937C0080917A008064809338
:100CD0007A0080917A0086FDFCCF80917800909117
:100CE000790008953FB7F8948091F8069091F9063D
:100CF000A091FA06B091FB0626B5A89B05C02F3F30
:100D000019F00196A11DB11D3FBFBA2FA92F982F31
:100D10008827BC01CD01620F711D811D911D42E02C
:100D2000660F771F881F991F4A95D1F708958F92F4
:100D30009F92AF92BF92CF92DF92EF92FF926B01A0
:100D40007C01D0DF4B015C01C114D104E104F1044A
:100D5000B1F0C8DF681979098A099B09683E7340B8
:100D60008105910588F321E0C21AD108E108F10854
:100D700088EE880E83E0981EA11CB11CE5CFFF9081
:100D8000EF90DF90CF90BF90AF909F908F9008959D
:100D900085EC8093BC001092CD060895811104C0AB
:100DA00085E88093BC00089585EC8093BC0008958D
:100DB0009093A6068093A50608959093AA06809323
:100DC000A9060895AC012091A706260F3327331FEB
:100DD00021323105F4F48091CD068430E1F490E0C5
:100DE0000FC0E091A706292F30E0E20FF32FF11D8D
:100DF000240F351FD9012C91EB57F94F20839F5FAA
:100E0000961778F38091A706680F6093A70680E095
:100E1000089581E0089582E00895ECEBF0E0808190
:100E20008A7B808360E084E1D7DE60E085E1D4CE18
:100E300008951092CD0681E08093CF061092CE06E1
:100E400061E084E1C9DE61E085E1C6DEE9EBF0E066
:100E500080818E7F808380818D7F808388E48093F2
:100E6000B80085E48093BC000895EF92FF920F9341
:100E70001F93CF93DF9391E090938406811107C075
:100E8000DF91CF911F910F91FF90EF900895C8EBE4
:100E9000D0E0F8800AEB10E0F801E080BEDFC9DFA7
:100EA000F801E082F882ECCF4F925F926F927F92CE
:100EB0008F929F92AF92BF92EF92FF920F931F93E8
:100EC000CF93DF93413280F081E0DF91CF911F918A
:100ED0000F91FF90EF90BF90AF909F908F907F9079
:100EE0006F905F904F900895D22FC42F7B01182FE1
:100EF000F9DE4B015C019091CD06992319F18091A7
:100F0000800690918106A0918206B0918306892B7C
:100F10008A2B8B2B81F3E6DE681979098A099B09F4
:100F20004090800650908106609082067090830603
:100F30004616570668067906F0F680917F0695DF1B
:100F400085E0C3CF82E08093CD060093CF068FEF7C
:100F50008093CC061092F106C093F0060AC0E92FE8
:100F6000F0E0D701AE0FBF1F8C91E053F94F8083A3
:100F70009F5F9C17A0F31092F206110F8091F2066A
:100F8000182B1093F2068091CE06813089F185EE00
:100F90008093BC00A7DE4B015C01DD2309F45DC03A
:100FA0008091CD06823009F058C0809180069091E2
:100FB0008106A0918206B0918306892B8A2B8B2B08
:100FC00061F390DE681979098A099B09009180060E
:100FD000109181062091820630918306061717072B
:100FE00028073907D0F680917F063FDF85E06DCF77
:100FF0001092CE0677DE4B015C0104C08091BC00EC
:1010000083FF27C08091F2068093BB008091800609
:1010100090918106A0918206B0918306892B8A2B3C
:101020008B2B61F35FDE681979098A099B090091AE
:101030008006109181062091820630918306061762
:10104000170728073907D0F680917F060EDF85E065
:101050003CCF85EC8093BC009DCF8091CC068F3F28
:1010600061F08091CC06803251F08091CC068033C3
:1010700011F084E02ACF83E028CF80E026CF82E001
:1010800024CF8F929F92AF92BF92DF92EF92FF9206
:101090000F931F93CF93DF93413268F080E0DF918D
:1010A000CF911F910F91FF90EF90DF90BF90AF9085
:1010B0009F908F900895D22EF42EEB01E82E12DE31
:1010C0004B015C019091CD06992319F100918006A6
:1010D000109181062091820630918306012B022B0C
:1010E000032B81F3FFDD681979098A099B090091B7
:1010F00080061091810620918206309183060617A2
:10110000170728073907F0F680917F06AEDE80E0EA
:10111000C6CF81E08093CD06D092CF069FEF90930B
:10112000CC061092F1069F0D9093F0068093F20684
:101130008E2D880F9091F206892B8093F206809174
:10114000CE06813071F185EE8093BC00CBDD4B0182
:101150005C019091CD06913009F058C00091800655
:10116000109181062091820630918306012B022B7B
:10117000032B79F3B7DD681979098A099B09009176
:101180008006109181062091820630918306061711
:10119000170728073907E8F680917F0666DE80E0AA
:1011A0007ECF1092CE069EDD4B015C0104C0809183
:1011B000BC0083FF27C08091F2068093BB00809122
:1011C000800690918106A0918206B0918306892BBA
:1011D0008A2B8B2B61F386DD681979098A099B09B3
:1011E000009180061091810620918206309183063D
:1011F0000617170728073907D0F680917F0635DED6
:1012000080E04DCF85EC8093BC00A0CF8091F106AB
:101210008F1520F48091F10690E00DC08F2DFCCF4A
:10122000292F30E0FE01E20FF31F2053394FD9017F
:101230002C9120839F5F981798F331CF6FEF7FEF4A
:1012400081E090E037C10895089508950895E091F0
:10125000700680916F06E81730F4F0E0E15BF94F1B
:10126000808190E008958FEF9FEF08959091700630
:1012700080916F06981758F4E92FF0E0E15BF94F81
:10128000208130E09F5F90937006C90108952FEF91
:101290003FEFFBCF80916F0690917006891B990BF1
:1012A0000895CF92DF92EF92FF920F931F93CF9307
:1012B000DF938C016B017A0180914E06882399F0AF
:1012C000D0E0C0E0CE15DF0588F4D801ED91FC91A7
:1012D0000190F081E02DD601AC0FBD1F6C91C801CB
:1012E00019952196EFCF642FC6016CDDC701DF9100
:1012F000CF911F910F91FF90EF90DF90CF900895C5
:10130000CF93DF931F92CDB7DEB7FC016983909135
:101310004E069923F1F090917106903250F081E0E1
:1013200090E09383828390E080E00F90DF91CF91F3
:10133000089580917206E82FF0E0E25DF94F9981FF
:1013400090838F5F809372068093710681E090E0B6
:10135000ECCF61E0CE01019635DD81E090E0E5CF94
:101360000F9340917106062F21E06EE276E08091A6
:101370002D069ADD109272061092710610924E069A
:101380000F91089561E0ECCF089581E080934E06BF
:1013900060932D0610927206109271060895F5CF93
:1013A00008954F925F926F927F92AF92BF92CF92C9
:1013B000EF92FF920F931F93CF93DF935C01F62E72
:1013C000D42F28013901E1101BC0D13208F0D0E23E
:1013D0002C2D4D2F6FE476E08F2D53DE109270068A
:1013E00080936F06DF91CF911F910F91FF90EF9047
:1013F000CF90BF90AF907F906F905F904F90089587
:10140000C4DF23E02E1520F40F2EF3E0EF2EF02D95
:10141000CFEFCE0DEE20C1F0D501ED91FC91019002
:10142000F081E02D8C2F880F880F880FA301920187
:1014300004C056954795379527958A95D2F7B901F7
:10144000C5011995EC2EE4CF60E0C50189DFBDCF61
:10145000CF92EF920F931F93C22EE12C00E010E089
:1014600098019FDF1F910F91EF90CF90089521E099
:10147000EFCF08951092700610926F0610927206C8
:1014800010927106D6DC84E299E092DC85E299E064
:1014900094CC0895FC011382128288EE93E0A0E0C0
:1014A000B0E084839583A683B78389E395E0918335
:1014B00080830895019709F008956F3F7F4FE1F70A
:1014C00083E796E0E7DFF8CF90E080E00895DC0165
:1014D00052967C936E935197FB01849153968C9313
:1014E00053973196E4915496EC935497FB013296BE
:1014F000E4915596EC9355976D5F7F4FFB01649196
:1015000056966C93569757961C92089564357105BC
:1015100008F540335105F0F49A0136952795369534
:10152000279536952795A4E5A29FF001A39FF00D7E
:101530001124E60FF71F47705527E80FF91F808D1C
:1015400021E030E002C0220F331F4A95E2F72095D8
:101550002823208F08956435710500F54033510527
:10156000E8F49A013695279536952795369527956F
:10157000A4E5A29FF001A39FF00D1124E60FF71F31
:1015800047705527E80FF91F808D21E030E002C039
:10159000220F331F4A95E2F7822B808F08954F92D6
:1015A0005F926F927F928F929F92AF92BF92CF92F3
:1015B000DF92EF92FF920F931F93CF93DF938C01F3
:1015C0005A014901DC0154968C915497282F30E040
:1015D000982F977009F0A4C055969C915597691B58
:1015E000770B53969C91869586958695989FC0011A
:1015F0001124689F3001699F700C789F700C112432
:10160000B4E06B0E711CD12CC12C7DC0A601440F1F
:10161000551F440F551F440F551F480D591D4C0FA2
:101620005D1FB7016A0D7B1DC80170DF2196C830B0
:10163000D1050CF058C0F80183898C9DF0018D9D77
:10164000F00D1124C701860D971D8E0F9F1FD80125
:101650005196ED91FC91E80FF91FE491F0E00C2E0A
:1016600002C0F595E7950A94E2F7E0FF15C0F8018E
:1016700087898111CBCFA601440F551F440F551FF9
:10168000440F551F480D591D4C0F5D1FB7016A0DC2
:101690007B1DC80160DFCACFD80157968C9181119C
:1016A00011C0A601440F551F440F551F440F551F6D
:1016B000480D591D4C0F5D1FB7016A0D7B1DC801F8
:1016C00025DFB4CFA601440F551F440F551F440F0B
:1016D000551F480D591D4C0F5D1FB7016A0D7B1D2D
:1016E000C80139DFA3CFBFEFEB1AFB0AD80153962D
:1016F0008C918E151F0421F01CF0D0E0C0E097CF34
:10170000EFEFCE1ADE0AF8018489869586958695D4
:101710008C151D0409F00CF48EC0F12CE12CE6CFE1
:1017200055968C915597681B770B53964C91429F19
:10173000C001439F900D11249923F4F0959587954E
:101740009595879595958795689F2001699F500C81
:10175000789F500C1124B4E04B0E511CD8015196C7
:10176000ED91FC91E40DF51DE4916E2E712CD12CC0
:10177000C12CC7E0D0E056C00796E0CFA701480DC6
:10178000591DB6016A0D7B1DC801C0DE2197C2F14B
:10179000BFEFEB1AFB0AD80154968C918E151F04EB
:1017A00009F00CF43CC0C3010C2E02C0959587953E
:1017B0000A94E2F780FF0DC0F80187898111DECF1E
:1017C000A701480D591DB6016A0D7B1DC801C3DE76
:1017D000DDCFD80157968C91811109C0A701480D22
:1017E000591DB6016A0D7B1DC80190DECFCFA70140
:1017F000480D591DB6016A0D7B1DC801ACDEC6CF70
:10180000BFEF4B1A5B0AD8015196ED91FC91E40DA4
:10181000F51DE4916E2E712CC7E0D0E0B9CFEFEF4B
:10182000CE1ADE0AF80183898C151D0421F01CF004
:10183000F12CE12CB0CFDF91CF911F910F91FF9050
:10184000EF90DF90CF90BF90AF909F908F907F9060
:101850006F905F904F90089530E020E0283F41E086
:1018600034073CF4FC01E20FF31F108E2F5F3F4F53
:10187000F5CF0895FC018685A085B1859C91809562
:1018800089238C93411109C08485A481B5819C91E1
:10189000809589238C9390E01DC09485A481B581A7
:1018A0008C91892B8C93F7CF2385A281B3818C9166
:1018B000822B8C93660F8285A081B1812C918095BB
:1018C00082238C9300002285A081B1818C91822B90
:1018D0008C939F5F983050F4662334F38385A28104
:1018E000B3812C91809582238C93E4CF96850084DC
:1018F000F185E02D8081892B808308950F931F93BC
:10190000CF93DF93FC01E05FFD4F2081222329F07C
:10191000DF91CF911F910F9108958C0140E060E419
:10192000A9DF40E060E8C801A5DFD0E0C0E0C83F23
:1019300081E0D8076CF7F801EC0FFD1F41E0608DE6
:10194000C80198DF2196F3CF0F931F93CF93DF93B6
:10195000EC018B01603871052CF477232CF410E036
:1019600000E002C00FE710E09C85EC81FD818081E2
:10197000892B80839B85EA81FB818081892B8083F1
:101980009A85E881F9818081892B80839E85E8850D
:10199000F9858081892B80838D85EE81FF819081FF
:1019A0008095892380836AE070E080E090E0BFD971
:1019B0009D85EE81FF818081892B808340E061E2FB
:1019C000CE0158DF602F606840E0CE0153DF40E079
:1019D00066E0CE014FDF40E063E1CE014BDF40E047
:1019E00060E2CE0147DF40E060E4CE0143DF40E04B
:1019F00060E8CE013FDF40E06CE0CE013BDFCE018E
:101A00002BDFCE017BDF1A8A198AFE01E05FFD4FD2
:101A10001082CF5EDD4F19830883DF91CF911F9134
:101A20000F910895BF92CF92DF92EF92FF920F93A2
:101A30001F93CF93DF93EC01D62EB42E652FC22EC9
:101A40008D2D972FFC01E353FA4FE491F0E0EE0F58
:101A5000FF1FE756FA4F4591549159834883FC0183
:101A6000ED5EF94FE491EA878B2D962FFC01E3534D
:101A7000FA4FE491F0E0EE0FFF1FE756FA4F459161
:101A800054915B834A83FC01ED5EF94FE491EB874F
:101A9000822F932FFC01E353FA4FE491F0E0EE0F15
:101AA000FF1FE756FA4F259134913D832C83FC01AB
:101AB000ED5EF94FE491EC87802F912FFC01E35309
:101AC000FA4FE491F0E0EE0FFF1FE756FA4F259131
:101AD00034913F832E83FC01ED5EF94FE491ED8755
:101AE0008E2D9F2DFC01E353FA4FE491F0E0EE0FB1
:101AF000FF1FE756FA4F2591349139872887FC015B
:101B0000ED5EF94FE491EE8761E08D2D92D861E0B2
:101B10008B2D8FD861E08C2D8CD861E0802F89D8F7
:101B200061E08E2D86D8DF86088BDF91CF911F91E3
:101B30000F91FF90EF90DF90CF90BF9008950F939B
:101B40001F93CF93DF93EC01062F142F68816062FF
:101B500070E089819A8123DC89819A81DC01ED9191
:101B6000FC910190F081E02D602F199589819A8177
:101B7000DC01ED91FC910190F081E02D612F199530
:101B800089819A81FFDBDF91CF911F910F91089599
:101B9000CF93DF93EC01CA01683008F067E06883F7
:101BA0009A83898367DC4FEF60E0CE01C8DF4FEF97
:101BB00061E0CE01C4DFDF91CF910895AB0160E019
:101BC000E7CF08951F93CF93DF93EC01162F688121
:101BD000606270E089819A81E2DB89819A81DC010F
:101BE000ED91FC910190F081E02D612F1995898193
:101BF0009A81C8DB6881606270E041E050E08981D1
:101C00009A8135DC89819A81DC01ED91FC91028415
:101C1000F385E02D1995DF91CF911F910895822FC3
:101C2000683008F00895842FFDCF862F87700895BF
:101C3000FF920F931F93CF93DF93EC01062F142F86
:101C4000F4DFF82E25E144E1602FCE01E8DF682FB4
:101C5000CE01B8DF11111DC041E050E060E070E03E
:101C600004C0440F551F661F771FFA94D2F74095A2
:101C7000142F182323E142E1602FCE01D0DF412F42
:101C8000682FCE015CDFDF91CF911F910F91FF9004
:101C9000089541E050E060E070E004C0440F551F3B
:101CA000661F771FFA94D2F7182F142BE3CFEF9209
:101CB000FF920F931F93CF93DF93EC01F62EE42E48
:101CC000422F202FACDF182F6F2DCE01AEDFF82E64
:101CD000612FCE0177DFE11017C041E050E060E0F6
:101CE00070E004C0440F551F661F771FFA94D2F7A7
:101CF00040954823612FCE0122DFDF91CF911F91C4
:101D00000F91FF90EF90089541E050E060E070E0A7
:101D100004C0440F551F661F771FFA94D2F7482B53
:101D2000E9CF0F9331E0411130E001E020E0432F93
:101D3000BEDF0F9108956F927F928F929F92AF9224
:101D4000BF92CF92DF92EF92FF920F931F93CF93A8
:101D5000DF933B01813009F4ADC008F473C08230D9
:101D600009F4E0C09E013695279536952795ABE797
:101D7000B4E10E948F1EFC01F695E795D301EC9328
:101D80009E01ADECBCEC0E948F1EAC0156954795B0
:101D900056954795569547958E2F880F880F8E0F2D
:101DA000982F990F842F891BF3018183CA01880F13
:101DB000991F880F991F840F951F880F991FC81BA3
:101DC000D90BC28394013695279536952795ABE7B5
:101DD000B4E10E948F1EFC01F695E795D30113969E
:101DE000EC939401ADECBCEC0E948F1EAC015695B7
:101DF000479556954795569547958E2F880F880F8E
:101E00008E0F982F990F842F891BF3018483CA01A9
:101E1000880F991F880F991F840F951F880F991F8E
:101E2000881A990A8582DF91CF911F910F91FF90B7
:101E3000EF90DF90CF90BF90AF909F908F907F906A
:101E40006F90089588E30E945506BC01990F880B96
:101E5000990B1F921F921F920F2EF4E69F2EF02DCA
:101E60009F92A12CB12C6501EE24EA9413E0F12E8F
:101E700000E010E020E030E0A9010E9483030F9011
:101E80000F900F900F90EB0187E30E945506BC0165
:101E9000990F880B990B1F921F921F929F9220E01F
:101EA00030E0A9010E9483030F900F900F900F90D4
:101EB0004B0158CF89E30E945506BC01990F880B4E
:101EC000990B1F921F921F920F2EF4E69F2EF02D5A
:101ED0009F92A12CB12C6501EE24EA9413E0F12E1F
:101EE00000E010E020E030E0A9010E9483030F90A1
:101EF0000F900F900F90EB018AE30E945506BC01F2
:101F0000990F880B990B1F921F921F929F9220E0AE
:101F100030E0A9010E9483030F900F900F900F9063
:101F20004B0120CF86E30E945506BC01990F880B18
:101F3000990B1F921F921F9224E62F93A12CB12C74
:101F40006501EE24EA9413E0F12E00E010E020E0B9
:101F500030E0A9010E9483030F900F900F900F9023
:101F6000EB0100CFAF92BF92CF92DF92EF92FF9240
:101F70000F931F93842F0E945506BC01990F880B65
:101F8000990B1F921F921F9224E62F93A12CB12C24
:101F90006501EE24EA9413E0F12E00E010E020E069
:101FA00030E0A9010E9483030F900F900F900F90D3
:101FB000862F1F910F91FF90EF90DF90CF90BF90F1
:101FC000AF900895DC0130E020E026173707B8F421
:101FD00093E2929FF001939FF00D1124EA0FFB1FF3
:101FE0009081941719F02F5F3F4FEFCF82A1882384
:101FF00011F082810895892F0C94C40508950895E5
:102000002F923F924F925F926F927F928F929F9208
:10201000AF92BF92CF92DF92EF92FF920F931F93F6
:10202000CF93DF9300D01F92CDB7DEB72C01262EC1
:102030004A015901302E3701DA82C9821C821B8283
:102040000FC040E0EB81FC81E60DF71D60818981C6
:102050009A81EEDD2B813C812F5F3F4F3C832B83A8
:102060002B813C813216130659F150F183E2829F95
:102070008001839F100D1124080D191DE22CF12CF5
:10208000F8014081B701C2019DDFCB80DC80CA0C22
:10209000DB1CF60190818917E9F2F8014081B70154
:1020A000C20190DFF6018083813059F241E0EB817B
:1020B000FC81E60DF71D608189819A81B9DDCACF67
:1020C0000F900F900F900F90DF91CF911F910F9174
:1020D000FF90EF90DF90CF90BF90AF909F908F9048
:1020E0007F906F905F904F903F902F900895FC01EC
:1020F00062830895CF93DF93DC01F0E0E0E0E61720
:10210000F70788F493E29E9FE0019F9FD00D112472
:10211000CA0FDB1F9881941711F03196F0CF622F10
:10212000842F0E94EC05CE01DF91CF91089530E01D
:1021300020E024173507B8F493E2929FF001939FB3
:10214000F00D1124E60FF71F9081981719F02F5FFB
:102150003F4FEFCF8181843009F0089582A1811132
:1021600004C083E0089580E0089582E0F6CFCF9226
:10217000DF92EF92FF920F931F93CF93DF936C0147
:102180007B01A801D0E0C0E0F701EC0FFD1F8081CA
:1021900080538A3010F42196F7CFC230D10561F018
:1021A000C130D10539F1209709F07FC0D7018C915A
:1021B000813621F180E053C0D70111966C911197BF
:1021C0008C91082E000C990BC097982F990F990F9E
:1021D000890F182F110F160F10531F3FC1F1B901AE
:1021E000812FA5DF823099F068F48823C1F1813016
:1021F00079F135C0F70110811053EFCF21961FEF11
:102200008FEFF0CF833021F18F3F99F721C0F70195
:10221000EC0FFD1F90819737D9F4FE013196EE0D3A
:10222000FF1D80818053823010F080E018C0CE0DF9
:10223000DF1D8A8181113BC0D6011C9280818053B1
:1022400012968C93129711961C9381E008C0812FEF
:10225000F701EC0FFD1F9081923751F080E0DF9184
:10226000CF911F910F91FF90EF90DF90CF90089545
:10227000918191111EC0833081F08F3F91F08130A8
:1022800041F0D60112961C92129711961C9381E090
:10229000E6CF82E0F6018083F4CF81E0D6018C9313
:1022A000F0CF83E0F6018083ECCF80E0D8CF80E0F0
:1022B000D6CF80E0D4CF81E080936B00E8E6F0E0F9
:1022C00080818160808308951092B000E1EBF0E09E
:1022D0008081876080838EEF8093B3000895109291
:1022E0008000E1E8F0E080818360808380818B7FE3
:1022F000808384E294EF909389008093880008950E
:102300000895FB0101900020E9F73197AF01461BCA
:10231000570BDC01ED91FC910280F381E02D1994C3
:10232000AF92BF92CF92DF92EF92FF920F931F93E3
:10233000CF93DF93CDB7DEB7A1970FB6F894DEBF8A
:102340000FBECDBF5C0141155105C1F4DC01ED911B
:10235000FC910190F081E02D1995A1960FB6F894AB
:10236000DEBF0FBECDBFDF91CF911F910F91FF90C8
:10237000EF90DF90CF90BF90AF90089519A24230B8
:1023800008F44AE070E090E080E08E010F5D1F4F9E
:10239000C42ED12CF12CE12CA70196010E946D1EB8
:1023A000E62FCA01B901EA3084F4E05DD801EE936A
:1023B0008D01232B242B252B79F790E080E01097BB
:1023C00061F2BD01C5019DDFC8CFE95CEFCF69E5D2
:1023D00075E097CF0F931F93CF93DF93EC01A0DFAE
:1023E0008C01CE01F4DF800F911FDF91CF911F91FF
:1023F0000F9108950F931F93CF93DF938C01D0E03B
:10240000C0E06115710511F07CDFEC01C801DFDF70
:102410008C0F9D1FDF91CF911F910F910895611532
:10242000710509F06ECF90E080E00895CF92DF92C1
:10243000EF92FF920F931F93CF93DF936C017B0179
:1024400010E000E01FC060E675E08CEF96E0E7DF8B
:102450004881B701C60186DD4AE050E0682F8CEF65
:1024600096E05EDF6CE575E08CEF96E0D8DFBE01AC
:102470006D5F7F4F8CEF96E0D2DF8CEF96E0A7DFA9
:102480000F5F1F4F0E151F0538F583E2809FE00197
:10249000819FD00D1124CC0DDD1D4AE050E06881F4
:1024A0008CEF96E03DDF6CE575E08CEF96E0B7DFF2
:1024B0008981813009F4C7CF63E675E08CEF96E03F
:1024C000AEDF4881B701C6017DDD4AE050E0682FEC
:1024D0008CEF96E025DFC6CFDF91CF911F910F9152
:1024E000FF90EF90DF90CF900895DF92EF92FF92F0
:1024F0000F931F93CF93DF937C018B01D42ED0E0F9
:10250000C0E001C02196C017D10790F483E28C9FF0
:10251000F0018D9FF00D1124EE0DFF1D80818D11B6
:10252000F1CFBF016D5F7F4F8CEF96E078DFEACF90
:10253000DF91CF911F910F91FF90EF90DF90089561
:102540001F93CF93DF93EC01162F4AE050E0688190
:102550008CEF96E0E5DE6EE575E08CEF96E05FDFF0
:10256000112389F08881823058F018824AE050E0C7
:1025700068818CEF96E02EDFDF91CF911F91089557
:102580008F5F8883F3CF8881882311F01882EECF84
:1025900082E08883EBCF8F929F92AF92BF92CF92CF
:1025A000DF92EF92FF920F931F93CF93DF938C01F3
:1025B000FB016A014901DB010D900020E9F7119749
:1025C000A61BB70B5D014F30574201F1DEE0CD167F
:1025D000D7E2DD0641F1D0E0C0E0CA15DB05BCF56D
:1025E000D80153968C918C9FA0018D9F500D112482
:1025F0007F01BFEFEB1AFB0A60814C0D5D1D94015A
:10260000C8010E94CF0A2196F701E7CFEC012B8980
:102610002A9FC0012B9F900D112424E530E0690111
:10262000C81AD90AD3CFE8018B898A9F90018B9F62
:10263000300D112484E590E0821B930B6C011AF09D
:10264000D594C794C8CFDFEFCD1ADD0AF9CFDF915B
:10265000CF911F910F91FF90EF90DF90CF90BF909F
:10266000AF909F908F9008952F923F924F925F92DC
:102670006F927F928F929F92AF92BF92CF92DF9292
:10268000EF92FF920F931F93CF93DF93CDB7DEB7F7
:10269000E8970FB6F894DEBF0FBECDBF1C014A010C
:1026A0005B013EAB2DAB18AF0FAB81149104A104BD
:1026B000B104F9F4E114F104C1F090E080E0970175
:1026C000215031098217930734F4FE01E80FF91FF6
:1026D000C28E0196F4CFEAE1F0E0EC0FFD1FE80FA7
:1026E000F91F20E32083118282C080E38A8F1B8E32
:1026F0007EC0BB2064F1D12C10E000E01814190456
:102700001A041B047CF50F2EFAE04F2E512C612C7D
:10271000712CF02DC501B401A30192010E94471E46
:1027200020E3260FFE01E00FF11F21830F5F1F4FF3
:10273000A5019401261B370B480B590BCA01B9019F
:10274000A30192010E94471E49015A01D7CFB094BC
:10275000A09490948094811C911CA11CB11CDD2438
:10276000D394CACFFE01E00FF11F1182DD2011F0DA
:102770008DE28A8F6D2D70E0FB01E00FF11FEE15E9
:10278000FF05A4F450E040E0C701801B910B861BBD
:10279000970B4817590764F4DB01A40FB51FAC0F62
:1027A000BD1F5A96CC924F5F5F4FEECF50E040E096
:1027B00030E020E07F01201731079CF4C801821B24
:1027C000930BDB01A20FB31FA40FB51F8C0F9D1F2E
:1027D000FC018081AC0FBD1F5A968C932F5F3F4F39
:1027E000EACFF701E40FF51FEC0FFD1F128E2FA9A2
:1027F00038AD4DA95EA9BE01665E7F4FC101CBDE3B
:10280000E8960FB6F894DEBF0FBECDBFDF91CF9133
:102810001F910F91FF90EF90DF90CF90BF90AF90FE
:102820009F908F907F906F905F904F903F902F90F0
:102830000895AF92BF92CF92EF92FF920F931F93A2
:10284000CF93DF93EC015A01F22EB801CA010E9426
:10285000670A81E08F1570F582E0F8121FC0488189
:1028600050E070E060E06894CC24C5F8F12CE12CD5
:1028700007E010E024E130E0C501F6DE498150E0D8
:1028800070E060E022E230E0C501EEDE4A8150E017
:1028900070E060E02FE230E0C501E6DEC5012ED831
:1028A000DF91CF911F910F91FF90EF90CF90BF904C
:1028B000AF900895488150E070E060E06894CC24C7
:1028C000C5F8F12CE12C07E010E024E130E0C5016F
:1028D000CBDE498150E070E060E023E230E0C501EA
:1028E000C3DE4A8150E070E060E020E330E0C501E3
:1028F000BBDE4B8150E070E060E001E210E024E1DB
:1029000030E0C501B1DE4C8150E070E060E022E2D1
:1029100030E0C501A9DE4D8150E070E060E02FE2BB
:1029200030E0C501A1DE9BCFEF92FF921F93CF93C2
:10293000DF93182FEB017A01CB010E942C0CB70119
:10294000CE010E94670A113029F158F0123099F136
:1029500024E130E04EE057E26BEA75E0CE011BDE89
:1029600010C030E020E04EE057E266E675E0CE01B0
:1029700012DE29E130E04EE057E264E775E0CE0177
:102980000ADECE010E947E0CDF91CF911F91FF9055
:10299000EF90089530E020E04EE057E262E875E005
:1029A000CE01F9DD29E130E04EE057E260E975E063
:1029B000CE01F1DDE6CF30E020E04EE057E26EE9F7
:1029C00075E0CE01E8DDDDCFCF93DF93CDB7DEB785
:1029D000C450D7400FB6F894DEBF0FBECDBF26E07F
:1029E00040E855E260E070E08CEF96E00E943E0423
:1029F00085EFE0E0F2E0DE011E9601900D928A95EF
:102A0000E1F783E2E5EFF2E0DE01A65FBE4F019061
:102A10000D928A95E1F783E2E8E1F3E0DE01A35D40
:102A2000BE4F01900D928A95E1F7AE01405B5E4F7B
:102A30008EE893E0DA01FC011D923197E9F783E11A
:102A4000DA018C9394E011969C93119786E1EBE365
:102A5000F3E0139601900D928A95E1F739E0FA01BF
:102A60007996DF01232F1D922A95E9F781E0DA019B
:102A700092968C93929720E1CA56DE4F2883C659CE
:102A8000D140C956DE4F9883C759D1402EE0EAE5C0
:102A9000F3E0A75BBF4F01900D922A95E1F7E9E9BA
:102AA000F1E0EC0FFD1F3E9621E1DF011D922A951A
:102AB000E9F7C854DE4F8883C85BD1402FE0C75484
:102AC000DE4F2883C95BD140C654DE4F9883CA5B72
:102AD000D14067E1E9E7F3E0DE01A454BE4F019085
:102AE0000D926A95E1F7ECEBF1E0EC0FFD1F7796A4
:102AF00068E0DF011D926A95E9F7C552DE4F8883D1
:102B0000CB5DD1406EE0C452DE4F6883CC5DD140D6
:102B1000C352DE4F9883CD5DD14064E1E8E9F3E034
:102B2000DE01A152BE4F01900D926A95E1F7EFEDE3
:102B3000F1E0EC0FFD1F74966BE0DF011D926A95CA
:102B4000E9F7C250DE4F8883CE5FD14067E1C95EAE
:102B5000DC4F6883C751D340C85EDC4F9883C851AF
:102B6000D34060E1E7EBF3E0DE01A65EBC4F0190ED
:102B70000D926A95E1F7EAE1F3E0EC0FFD1F709624
:102B8000DF01622F1D926A95E9F7C75CDC4F8883ED
:102B9000C953D34069E1C65CDC4F6883CA53D34054
:102BA000C55CDC4F9883CB53D34060E1E6EDF3E0A6
:102BB000DE01A35CBC4F01900D926A95E1F7EDE355
:102BC000F3E0EC0FFD1F7096DF01622F1D926A95F6
:102BD000E9F7C45ADC4F8883CC55D3406BE1C35A24
:102BE000DC4F6883CD55D340C25ADC4F9883CE5515
:102BF000D34060E1E5EFF3E0DE01A05ABC4F019065
:102C00000D926A95E1F7E0E6F3E0EC0FFD1F709698
:102C1000DF01622F1D926A95E9F7C158DC4F888366
:102C2000CF57D3406DE1C058DC4F6883C058D340C4
:102C3000CF57DC4F9883C158D34060E1E4E1F4E022
:102C4000DE01AD57BC4F01900D926A95E1F7E3E8C4
:102C5000F3E0EC0FFD1F7096DF01622F1D926A9565
:102C6000E9F7CE55DC4F8883C25AD3406FE1CD558A
:102C7000DC4F6883C35AD340CC55DC4F9883C45A89
:102C8000D34060E1E3E3F4E0DE01AA55BC4F0190DC
:102C90000D926A95E1F7E6EAF3E0EC0FFD1F7096FE
:102CA000DF01622F1D926A95E9F7CB53DC4F8883D1
:102CB000C55CD34061E2CA53DC4F6883C65CD34035
:102CC000C953DC4F9883C75CD34060E1E2E5F4E090
:102CD000DE01A753BC4F01900D926A95E1F7E9EC34
:102CE000F3E0EC0FFD1F7096DF01622F1D926A95D5
:102CF000E9F7C851DC4F8883C85ED34063E2C7510F
:102D0000DC4F6883C95ED340C651DC4F9883CA5EEE
:102D1000D34060E1E1E7F4E0DE01A451BC4F019053
:102D20000D926A95E1F7ECEEF3E0EC0FFD1F709663
:102D3000DF01622F1D926A95E9F7C55FDB4F88833B
:102D4000CB50D44065E2C45FDB4F6883CC50D440A5
:102D5000C35FDB4F9883CD50D44090E1E0E9F4E0CD
:102D6000DE01A15FBB4F01900D929A95E1F7EFE074
:102D7000F4E0EC0FFD1F7096DF01622F1D926A9543
:102D8000E9F7C25DDB4F8883CE52D44096E3C15D44
:102D9000DB4F9883CF52D440C05DDB4F8883C05354
:102DA000D44090E1EFEAF4E0DE01AE5CBB4F01906D
:102DB0000D929A95E1F7E2E3F4E0EC0FFD1F7096B7
:102DC000DF011D922A95E9F797E3CE5ADB4F9883EE
:102DD000C255D440CD5ADB4F8883C355D44096E1C9
:102DE000EEECF4E0DE01AB5ABB4F01900D929A95E8
:102DF000E1F7E5E5F4E0EC0FFD1F7696DF011D92AB
:102E00003A95E9F798E3CB58DB4F9883C557D44000
:102E1000CA58DB4F8883C657D44098E1EDEEF4E002
:102E2000DE01A858BB4F01900D929A95E1F7E8E7B3
:102E3000F4E0EC0FFD1F789697E0DF011D929A9564
:102E4000E9F799E3C856DB4F9883C859D440C75671
:102E5000DB4F8883C959D4409FE1EAE0F6E0DE0108
:102E6000A556BB4F01900D929A95E1F79AE3C55490
:102E7000DB4F9883CB5BD440C454DB4F8883CC5B5F
:102E8000D44089E1ECE0F5E0DE01A254BB4F0190B3
:102E90000D928A95E1F70F2EF6E0BF2EF02DEEEBA6
:102EA000F4E0EC0FFD1F7996DF012B2D1D922A9582
:102EB000E9F783E2EA5AF340DA01939601900D9222
:102EC0008A95E1F783E2FE01E65FFE4FDE01A15045
:102ED000BE4F01900D928A95E1F783E2FE013E9686
:102EE000DE01AE5DBD4F01900D928A95E1F783E260
:102EF000FE01F196DE01AB5BBD4F01900D928A950C
:102F0000E1F783E2FE01EC5AFF4FDE01A859BD4F05
:102F100001900D928A95E1F783E2FE01E958FF4F97
:102F2000DE01A557BD4F01900D928A95E1F783E22E
:102F3000FE01E656FF4FDE01A255BD4F01900D92F6
:102F40008A95E1F783E2FE01E354FF4FDE01AF52C1
:102F5000BD4F01900D928A95E1F783E2FE01E052A8
:102F6000FF4FDE01AC50BD4F01900D928A95E1F705
:102F70000F2EFBE0EF2EF12CF02D0CE010E02AE0FC
:102F800030E049E050E063E370E0CE0182529B4FB5
:102F90000E94120DCF50D94F1882C15FD640FE015A
:102FA000EE50F94FDF011D92BA94E9F763E776E03E
:102FB000CE018850994F0E94DE0D8AE0EBE2F5E0E9
:102FC000DE01A550B94F01900D928A95E1F7B12C21
:102FD000A12C10C083E28A9DF0018B9DF00D11247D
:102FE000E20FF31F62A180810E94190616C0BFEF95
:102FF000AB1ABB0ABAE1AB16B10478F583E28A9D3D
:10300000F0018B9DF00D112420E531E02C0F3D1FC8
:10301000E20FF31F81818430E9F283E28A9DF0019F
:103020008B9DF00D112480E591E08C0F9D1FE80F22
:10303000F91F82A18130D9F683E28A9DF0018B9D30
:10304000F00D1124A0E5B1E0AC0FBD1FEA0FFB1F8E
:1030500060E080810E94EC05CACFB12CA12C09C090
:1030600040E0CE018850994F0E94180EFFEFAF1A32
:10307000BF0AEAE0AE16B104C8F40F2EFBEF8F2EA4
:10308000F6E09F2EF02D8C0E9D1E8A0C9B1C41E0BD
:10309000D4016C91CE018850994F0E94910EF40199
:1030A00060816D30E9F26F3009F7DACFC65FDE4F2D
:1030B0004881CA50D14061E070E0CE01865F9E4FEA
:1030C0000E94E20FB82E21E082130AC041E06EE0B8
:1030D000CE018850994F0E94180E912C812C18C057
:1030E00040E06EE0CE018850994F0E94180EF5CF57
:1030F000EBEFF6E0EC0FFD1FE80DF91D41E06081FC
:10310000CE018850994F0E94180E6FEF861A960ACA
:1031100037E08316910440F583E2889DF001899D94
:10312000F00D1124EC0FFD1F468567E070E0CE0125
:103130000E960E94E20FE3E0F1E0EC0FFD1FE80DB8
:10314000F91D80838823A1F28130F9F6EBEFF6E0D8
:10315000EC0FFD1FE80DF91D40E06081CE018850A5
:10316000994F0E94180ED1CF62E085E30E941906A4
:1031700062E082E00E9419069ED8B1D8A5D8789462
:1031800069EB75E08CEF96E035D96AE170E0CE012D
:10319000805B9E4F4BD961ED75E08CEF96E02AD9AC
:1031A0006CE370E0CE0182529B4F0E94A40C61E45C
:1031B00073E0CE0182529B4F0E94670ACE01825279
:1031C0009B4F0E942C0C40E252E0BE0162527B4FAA
:1031D000CF50D94F8881C15FD640A6DB9924939404
:1031E000A12C812C19C1C65FDE4F4881CA50D14045
:1031F00061E070E0CE01865F9E4F0E94E20FB82E24
:10320000482F6EE0CE018850994F0E94180E12C1CF
:103210000E94C405682FCE018F50994F91D9A12CDF
:1032200043C140E252E0BE0162527B4FCF50D94FC2
:103230008881C15FD64078DBE0E7F0E08081826082
:103240008083AA24A3943EC1BE016E50794FCF5013
:10325000D94F8881C15FD6400E949B0E0F2EF1E4AA
:10326000EF2EF3E0FF2EF02D04EE10E0CF50D94FFB
:103270002881C15FD640AE0142525B4FBE01605B08
:103280007E4FCE018E50994FD4DA10922A061FC17C
:103290000AE110E09E01205B3E4F45E050E0BE0198
:1032A0006A5F7F4FCE010B960E94B710882309F406
:1032B00095C08B85882361F0813069F1823009F4F3
:1032C0005BC06AE170E0CE01805B9E4FAFD88BC0DF
:1032D0008D84282D4C856AE170E0CE01805B9E4F85
:1032E0000E947A10682D0E9477108C858E3059F0DC
:1032F000823109F078C04D856DE0CE018850994F3C
:103300000E94180E70C04D856FE0CE018850994F15
:103310000E94180E68C065ED75E08CEF96E07FD8CE
:103320004AE050E06C858CEF96E00E9490116EE5CB
:1033300075E08CEF96E073D84C856AE170E0CE01C1
:10334000805B9E4FD2D86EE575E08CEF96E067D833
:103350006EED75E08CEF96E062D84C856AE170E026
:10336000CE01805B9E4F0E94E20F4AE050E0682F42
:103370008CEF96E02FD837C065ED75E08CEF96E0C6
:103380004ED84AE050E06C858CEF96E00E94901198
:103390006EE575E08CEF96E042D84C856AE170E00E
:1033A000CE01805B9E4FA1D86EE575E08CEF96E074
:1033B00036D866EE75E08CEF96E031D84C856AE140
:1033C00070E0CE01805B9E4F0E94B20F4AE050E059
:1033D000682F8CEF96E00E94EA1105C061EF75E05E
:1033E0008CEF96E007D890E080E08530910530F4CE
:1033F000FE01E80FF91F16820196F7CFE8E6F0E02C
:1034000080818460808382E080936F00E0E7F0E059
:10341000808182608083812CC65FDE4F4881CA50E4
:10342000D14061E070E0CE01865F9E4F0E94E20FC6
:103430008B11D9CECE018850994F6C01DE01A55079
:10344000B94F7D0107E09E012D5F3E4FAE01425F07
:103450005F4F6AE1885A95400E94001080912C06C7
:10346000882369F1992069F0E8E6F0E080818B7F9C
:103470008083109285001092840082E080936F0018
:10348000912C80912B068823D1F0E0E7F0E0808139
:103490008D7F8083EFE6F0E080818D7F8083809157
:1034A0002B06823009F4B4CE10922B06E8E6F0E049
:1034B00080818460808310922C0699249394AA20A2
:1034C00009F4AFCE80912A06843108F0BDCE8CEF8E
:1034D00096E00E942904181619060CF09DCF8CEF77
:1034E00096E00E940704FE01E80DF11D8183682F1C
:1034F0008CEF96E00E94C4038394B5E08B1649F0EC
:10350000FE01E80DF11D80818D3019F08A3009F03F
:1035100083CFE8E6F0E080818B7F8083EFE6F0E008
:1035200080818D7F8083E0E7F0E080818D7F8083E4
:103530006BE575E08CEF96E00E94FA1190E080E078
:103540008530910508F0A4CEFE01E80FF91F218116
:103550002D3009F49DCEFE01E80FF91F2683019658
:10356000EFCF85ED8093BC0040918006509181069D
:103570006091820670918306495F5F4F6F4F7F4F66
:10358000689412F876956795579547951694D1F7F4
:103590008091BC0084FF1FC08091800690918106BD
:1035A000A0918206B0918306892B8A2B8B2B81F305
:1035B000411551056105710549F085E38A95F1F7DB
:1035C00000004150510961097109E2CF80917F06E5
:1035D0000C94350708951092CD0608951F920F920E
:1035E0000FB60F9211240BB60F922F933F934F9368
:1035F0005F936F937F938F939F93AF93BF93EF935B
:10360000FF938CEF96E00E94A004FF91EF91BF9191
:10361000AF919F918F917F916F915F914F913F916A
:103620002F910F900BBE0F900FBE0F901F9018950B
:103630001F920F920FB60F9211240BB60F922F9379
:103640008F939F93EF93FF93E0910C07F0910D07F9
:103650008081E0911207F091130782FD1DC09081D7
:10366000809115078F5F8F7320911607821741F0A5
:10367000E0911507F0E0E450F94F958F809315071E
:10368000FF91EF919F918F912F910F900BBE0F9013
:103690000FBE0F901F9018958081F2CF1F920F924E
:1036A0000FB60F9211242F933F938F939F93AF9355
:1036B000BF938091F4069091F506A091F606B09123
:1036C000F7063091F30623E0230F2D3758F50196C6
:1036D000A11DB11D2093F3068093F4069093F50687
:1036E000A093F606B093F7068091F8069091F9063C
:1036F000A091FA06B091FB060196A11DB11D809321
:10370000F8069093F906A093FA06B093FB06BF91D2
:10371000AF919F918F913F912F910F900FBE0F907E
:103720001F90189526E8230F0296A11DB11DD2CF38
:103730001F920F920FB60F9211240BB60F922F9378
:103740003F934F935F936F937F938F939F93AF9329
:10375000BF93EF93FF93E091B900E87FE93C08F055
:10376000D6C0F0E08827E954F44E8F4FF6C2791D99
:10377000871C871C871C871C871C871C871C801C38
:10378000871C871C871C871C871C871C871C801C28
:10379000871C871C871C871C871C871C871C9A1CFE
:1037A000871C871C871C871C871C871C871CBF1CC9
:1037B000871C871C871C871C871C871C871C9A1CDE
:1037C000871C871C871C871C871C871C871CC41CA4
:1037D000871C871C871C871C871C871C871CC91C8F
:1037E000871C871C871C871C871C871C871CDB1C6D
:1037F000871C871C871C871C871C871C871C041D33
:10380000871C871C871C871C871C871C871CCF1C58
:10381000871C871C871C871C871C871C871CE91C2E
:10382000871C871C871C871C871C871C871C061D00
:10383000871C871C871C871C871C871C871C061DF0
:10384000871C871C871C871C871C871C871C061DE0
:10385000871C871C871C871C871C871C871C061DD0
:10386000871C871C871C871C871C871C871C0F1DB7
:10387000871C871C871C871C871C871C871C401D76
:10388000871C871C871C871C871C871C871C0F1D97
:10389000871C871C871C871C871C871C871C401D56
:1038A000871C871C871C871C871C871C871C271D5F
:1038B000871C871C871C871C871C871C871C441D32
:1038C000871C871C871C871C871C871C871C441D22
:1038D000871C871C871C871C871C871C871C591DFD
:1038E000871C871C871C871C871C871C871C731DD3
:1038F000871C871C871C871C871C871C871C731DC3
:103900008091F2068093BB0081E00E94CE06FF9179
:10391000EF91BF91AF919F918F917F916F915F9147
:103920004F913F912F910F900BBE0F900FBE0F90B4
:103930001F9018959091F1068091F006981768F005
:103940008091CF06811119C081E08093CE0684EA70
:103950008093BC001092CD06DACFE091F10681E0B1
:103960008E0F8093F106F0E0E053F94F8081809351
:10397000BB0081E00E94CE06CACFF3DDC8CF80E253
:103980008093CC06EEDDC3CF80E38093CC06E9DDE7
:10399000BECF88E38093CC060E94C806B8CFE091E2
:1039A000F10681E08E0F8093F106F0E08091BB007C
:1039B000E053F94F80839091F1068091F0069817BB
:1039C00020F481E00E94CE06A2CF80E00E94CE06C5
:1039D0009ECFE091F10681E08E0F8093F106F0E03A
:1039E0008091BB00E053F94F80838091CF06811115
:1039F00009C081E08093CE0684EA8093BC001092D7
:103A0000CD0685CFAEDD83CFACDD81CF83E0809363
:103A1000CD061092CB0681E00E94CE0678CF809131
:103A2000CB06803280F4E091CB0681E08E0F80934C
:103A3000CB06F0E08091BB00E555F94F808381E033
:103A40000E94CE0664CF80E00E94CE0660CF0E9426
:103A5000C8068091CB06803230F4E091CB06F0E0CE
:103A6000E555F94F10826091CB0670E0E091A90610
:103A7000F091AA068BEA96E019951092CB0647CFF3
:103A800080E00E94CE0643CF84E08093CD06109262
:103A9000A8061092A706E091A506F091A606199532
:103AA0008091A706811105C081E08093A70610923E
:103AB0008506E091A80681E08E0F8093A806F0E0CD
:103AC000EB57F94F80818093BB009091A8068091BD
:103AD000A706981720F481E00E94CE0618CF80E058
:103AE0000E94CE0614CF81E00E94CE061092CD0631
:103AF0000ECF1092CC0635DD0ACF1F920F920FB673
:103B00000F9211248F9381E080932C068F910F9058
:103B10000FBE0F901F9018951F920F920FB60F9225
:103B200011248F9380912A068F5F80932A068F91AC
:103B30000F900FBE0F901F9018951F920F920FB607
:103B40000F9211248F93189906C0189907C081E02D
:103B500080932B0603C082E080932B068F910F90F9
:103B60000FBE0F901F901895ECEFF6E013821282B3
:103B700088EE93E0A0E0B0E084839583A683B783CA
:103B80008BE495E09183808385EC90E09587848732
:103B900084EC90E09787868780EC90E0918B808B17
:103BA00081EC90E0938B828B82EC90E0958B848B00
:103BB00086EC90E0978B868B118E128E138E148E6E
:103BC0000895D2DF0C941E09789484B5826084BD78
:103BD00084B5816084BD85B5826085BD85B5816011
:103BE00085BDEEE6F0E0808181608083E1E8F0E071
:103BF0001082808182608083808181608083E0E8A0
:103C0000F0E0808181608083E1EBF0E0808184607E
:103C10008083E0EBF0E0808181608083E1E9F0E087
:103C2000808182608083808181608083E0E9F0E030
:103C3000808181608083E1EAF0E08081826080831E
:103C4000808181608083E0EAF0E080818160808310
:103C5000E1E2F1E080818260808380818160808305
:103C6000E0E2F1E0808181608083EAE7F0E080813A
:103C70008460808380818260808380818160808392
:103C80008081806880831092C1000E94E414052E18
:103C900097FB16F400940FD057FD05D01ED007FCFB
:103CA00002D046F408C050954095309521953F4F7D
:103CB0004F4F5F4F089590958095709561957F4F18
:103CC0008F4F9F4F08952BD0A59F900DB49F900DBF
:103CD000A49F800D911D11240895A1E21A2EAA1B04
:103CE000BB1BFD010DC0AA1FBB1FEE1FFF1FA217AC
:103CF000B307E407F50720F0A21BB30BE40BF50BA9
:103D0000661F771F881F991F1A9469F76095709531
:103D1000809590959B01AC01BD01CF010895A29FB4
:103D2000B001B39FC001A39F700D811D1124911D8F
:103D3000B29F700D811D1124911D0895DB018F9399
:103D40009F93C1DFBF91AF91A29F800D911DA39F53
:103D5000900DB29F900D11240895EE0FFF1F881F44
:0E3D60008BBF0790F691E02D1994F894FFCFD9
:103D6E003E0400506F77657220737570706C792009
:103D7E006661756C74205B7768656E20305D00003F
:103D8E000000003F0400526573657276656420661C
:103D9E0061756C740000000000000000000000005F
:103DAE000000000000004004004265616D20636F5A
:103DBE006C6C696D61746F72206661756C74000055
:103DCE00000000000000000000410400506F776505
:103DDE00722D616D702063757272656E74206661EE
:103DEE00756C7400000000000000000042040050DA
:103DFE0072652D616D70206375727265726E7420BE
:103E0E006661756C74000000000000000000004345
:103E1E0004004261736520706C6174652074656D79
:103E2E0070206661756C74000000000000000000D8
:103E3E00000044040053656564206C617365722054
:103E4E0074656D70206661756C7400000000000072
:103E5E0000000000001104004C6173657220726551
:103E6E00616479205B7768656E20315D000000002B
:103E7E0000000000000000001204004C6173657227
:103E8E002064697361626C65000000000000000030
:103E9E00000000000000000000000150756C73650A
:103EAE00642F4357206D6F64652073656C65637472
:103EBE0000000000000000000000476C6F62616CA3
:103ECE0020456E61626C650000000000000000007D
:103EDE00000000000000000000416C69676E6D6517
:103EEE006E74206C6173657220656E61626C650024
:103EFE0000000000000000004C6173657220656DCB
:103F0E00697373696F6E206761746500000000004D
:103F1E000000000000000053746174652073656C2E
:103F2E006563743A203000000000000000000000BD
:103F3E0000000000000053746174652073656C65A9
:103F4E0063743A2031000000000000000000000001
:103F5E00000000000053746174652073656C656326
:103F6E00743A203200000000000000000000000043
:103F7E000000000053746174652073656C65637492
:103F8E003A20330000000000000000000000000096
:103F9E0000000053746174652073656C6563743A38
:103FAE0020340000000000000000000000000000AF
:103FBE00000053746174652073656C6563743A20F8
:103FCE0035000000000000000000000000000000AE
:103FDE000053746174652073656C6563743A2036A2
:103FEE0000000000000000000000000000000000C3
:103FFE0053746174652073656C6563743A20370081
:10400E000000000000000000000000000000004260
:10401E0061736520706C6174652074656D7000004D
:10402E0000000000000000000000000000005072C0
:10403E006520616D702064696F64652063757272AE
:10404E00656E7400000000000000000000506F77E5
:10405E00657220616D702064696F6465206375728E
:10406E0072656E74000000000000000053696D6DF3
:10407E0065722063757272656E742073657420703C
:10408E006F696E7400000000000000060708090A40
:10409E000B0C0D0E0F0000000080095109640A265A
:1040AE00094A093609270900000000C204CB03F8AB
:1040BE00030E05290407041B040D0A00203A2000F4
:1040CE00412000442000504F572D414D50204D4F60
:1040DE004E4954005052452D414D50204D4F4E49A2
:1040EE005400504F572D414D5020532E20502E002E
:1040FE005052452D414D5020432E20502E00422D22
:10410E0054454D50204D4F4E495400446973706CC8
:10411E006179206572726F72003D3D3D0D0A5374D8
:10412E006174757320706F637A61746B6F77793A0F
:10413E00003D3D3D0050696E206E723A20002053C6
:10414E0074616E3A200020576172746F73633A2067
:10415E00004E69657072617769646C6F7761206972
:10416E006E737472756B636A610041637469766510
:10417E002D53746174652063757272656E7420734D
:0A418E00657420706F696E74000004
:00000001FF
