:1000000050C300007FC300007DC300007BC300001D
:1000100079C3000077C3000075C3000073C30000FC
:1000200071C300000C941B1E6DC300006BC3000065
:1000300069C300000C942A1E65C3000063C300005E
:1000400061C300000C943B1E5DC300005BC3000055
:1000500059C3000057C3000055C300000C94EC1BAB
:1000600051C300000C94B61B0C948C1B4BC30000B6
:1000700049C3000047C3000045C3000043C300005C
:1000800041C300003FC300003DC300003BC300006C
:1000900039C3000037C3000035C300000C94361C80
:1000A00031C300002FC300002DC300002BC300008C
:1000B00029C3000027C3000025C3000023C300009C
:1000C00021C300001FC300001DC300001BC30000AC
:1000D00019C3000017C3000015C3000013C30000BC
:1000E00011C300000C102D0D000000808080808066
:1000F000800000000000010303030303030100006C
:1001000000000000000000000000000000000000EF
:1001100000C0C000000000000000028686868686BF
:1001200086020000000081C3C3C3C3C3C3810000B3
:1001300000FC7A0606060606067AFC00007EBCC0B5
:10014000C0C0C0C0C0BC7E000000000000000000B5
:100150000078FC000000000000000000003C7E0071
:100160000000028686868686867AFC00007EBDC3F5
:10017000C3C3C3C3C381000000000286868686868F
:10018000867AFC00000081C3C3C3C3C3C3BD7E0025
:1001900000FC7880808080808078FC000000010373
:1001A00003030303033D7E0000FC7A868686868671
:1001B00086020000000081C3C3C3C3C3C3BD7E0069
:1001C00000FC7A868686868686020000007EBDC395
:1001D000C3C3C3C3C3BD7E000000020606060606F5
:1001E000067AFC000000000000000000003C7E00D9
:1001F00000FC7A8686868686867AFC00007EBDC3F1
:10020000C3C3C3C3C3BD7E0000FC7A8686868686D0
:10021000867AFC00000081C3C3C3C3C3C3BD7E0094
:100220000406205F00000003A000C00C00F94F800E
:100230006BEB00988C8052A58003000001C8808978
:10024000C00050850021C20008400020820000202C
:1002500000188C00FA2F804BE0805A66808AA50037
:10026000E08F80EAAB0072A9009A8C00FAAF804A56
:10027000A700014000094000214880514500894203
:100280000042660072A6807A8780FAA50072250077
:10029000FA2700FAA880FA8800722B00F88F808B6A
:1002A000E8808BE800F88D80F82080F90F80F9CF86
:1002B00080722700FA8400722740FA85804AA900DC
:1002C00083E800F02F00E06E00F0EF00D88D80C0D2
:1002D000EC009AAC8003E880C081808BE00042048F
:1002E00000082080020400312380F923003124809B
:1002F000312F8031628023EA00255380F903800288
:10030000E00006E000F8428003E0007987803903CE
:10031000803123007D23003127C0788400294000EC
:1003200043E40070270060660070670048C4807472
:10033000578059E68023E8800360008BE200610C5F
:10034000000608205F0000000000000000002F00F1
:100350000000000700070000147F147F1400242A07
:100360007F2A120023130864620036495522500088
:10037000000503000000001C224100000041221C77
:10038000000014083E08140008083E080800000099
:10039000A060000008080808080000606000000075
:1003A0002010080402003E5149453E0000427F40B3
:1003B00000004261514946002141454B310018146B
:1003C000127F10002745454539003C4A4949300015
:1003D0000171090503003649494936000649492992
:1003E0001E000036360000000056360000000814DB
:1003F00022410000141414141400004122140800B7
:10040000020151090600324959513E007C12111275
:100410007C007F49494936003E41414122007F41ED
:1004200041221C007F49494941007F090909010017
:100430003E4149497A007F0808087F0000417F411A
:1004400000002040413F01007F08142241007F400E
:10045000404040007F020C027F007F0408107F00B4
:100460003E4141413E007F09090906003E415121BC
:100470005E007F09192946004649494931000101BA
:100480007F0101003F4040403F001F2040201F00EF
:100490003F4038403F0063140814630007087008A9
:1004A0000700615149454300007F414100AA55AA18
:1004B00055AA55000041417F0000040201020400DA
:1004C00040404040400000030500000020545454C8
:1004D00078007F484444380038444444200038447D
:1004E00044487F00385454541800087E0901020023
:1004F00018A4A4A47C007F080404780000447D4074
:1005000000004080847D00007F10284400000041EE
:100510007F4000007C04180478007C080404780004
:10052000384444443800FC24242418001824241897
:10053000FC007C0804040800485454542000043F84
:10054000444020003C4040207C001C2040201C00F7
:100550003C4030403C004428102844001CA0A0A08F
:100560007C004464544C440000107C820000000075
:10057000FF00000000827C10000000060909060050
:10058000002100240027002A002D00300033000144
:10059000010000040107010A0100002200250028D3
:1005A000002B002E0031003400020100000501087C
:1005B000010B01000020002300260029002C002F41
:1005C00000320000010000030106010901050505D4
:1005D00005070508080808020202020A0A080804BA
:1005E00004040401010101010101010303030303E8
:1005F000030303040707070C0C0C0C0C0C0C0C0277
:1006000002020206060606060606060B0B0B0B0B7D
:100610000B0B0B0102102020080810204010204076
:1006200080020102010804020101020408102040B6
:1006300080804020100804020180040201804020D4
:1006400010080402010804020101020408102040FD
:1006500080010204081020408000000A0B02090CEF
:100660000D0E080703040100000000000000000058
:10067000000000000000000000000000000000007A
:100680000000000000121110000000000000000037
:10069000000000000000000000000000000000005A
:1006A0007F1E11241FBECFEFD1E2DEBFCDBF00E021
:1006B0000CBF16E0A0E0B2E0EAEAFEE300E00BBF08
:1006C00002C007900D92AC34B107D9F727E0ACE433
:1006D000B6E001C01D92AB3BB207E1F713E0C1E504
:1006E000D3E000E006C021970109802FFE010E949F
:1006F0004B1FC035D10780E00807A9F70E94821E72
:100700000C94531F7DCC4F925F926F927F92AF9269
:10071000BF92CF92DF92EF92FF920F931F93CF93EE
:10072000DF93CDB7DEB729013A019B01AC01241953
:100730003509460957098A899B89AC89BD89BC015D
:10074000CD016A197B098C099D090E943C1FA801F3
:10075000970124193509460957090E94E51ECA0167
:10076000B9016A0D7B1D8C1D9D1DDF91CF911F91DD
:100770000F91FF90EF90DF90CF90BF90AF907F9060
:100780006F905F904F900895DC01ED91FC91019086
:10079000F081E02D1994AF92BF92CF92DF92EF9249
:1007A000FF920F931F93CF93DF936C017B018B011B
:1007B000040F151FEB015E01AE18BF08C017D1076B
:1007C00059F06991D601ED91FC910190F081E02DF5
:1007D000C6011995892B79F7C501DF91CF911F913A
:1007E0000F91FF90EF90DF90CF90BF90AF90089562
:1007F000FC01538D448D252F30E0842F90E0821B27
:10080000930B541710F0CF96089501970895FC01AB
:10081000918D828D981761F0A28DAE0FBF2FB11D03
:100820005D968C91928D9F5F9F73928F90E008955B
:100830008FEF9FEF0895FC01918D828D981731F015
:10084000828DE80FF11D858D90E008958FEF9FEF69
:100850000895FC01918D228D892F90E0805C9F4F3F
:10086000821B91098F73992708958EE197E0F1DF3C
:1008700021E0892B09F420E0822F0895CF92DF92A6
:10088000EF92FF921F93CF93DF93EC016A017B01FC
:10089000122FE889F98982E08083C11481EED8069D
:1008A000E104F104A1F060E079E08DE390E0A701BC
:1008B00096010E940B1F215031094109510956959B
:1008C000479537952795211580E1380798F0E889F5
:1008D000F989108260E874E88EE190E0A701960142
:1008E0000E940B1F21503109410951095695479526
:1008F00037952795EC85FD853083EE85FF85208330
:10090000188EEC89FD891083EA89FB8980818061DA
:100910008083EA89FB89808188608083EA89FB89FA
:10092000808180688083EA89FB8980818F7D8083D4
:10093000DF91CF911F91FF90EF90DF90CF900895BE
:10094000FC01A48DA80FB92FB11DA35ABF4F2C9144
:10095000848D90E001968F739927848FA689B7893B
:100960002C93A089B1898C91837080648C93938D32
:10097000848D981306C00288F389E02D80818F7DD5
:1009800080830895EF92FF920F931F93CF93DF938D
:10099000EC0181E0888F9B8D8C8D98131AC0E889BB
:1009A000F989808185FF15C09FB7F894EE89FF898A
:1009B0006083E889F98980818370806480839FBF28
:1009C00081E090E0DF91CF911F910F91FF90EF9028
:1009D0000895F62E0B8D10E00F5F1F4F0F73112738
:1009E000E02E8C8D8E110BC00FB607FCFACFE88974
:1009F000F989808185FFF5CFCE01A2DFF2CFEB8DA3
:100A0000EC0FFD2FF11DE35AFF4FF0829FB7F894D2
:100A10000B8FEA89FB8980818062D0CFCF93DF93EF
:100A2000EC01888D8823B1F0AA89BB89E889F9890E
:100A30008C9185FD03C0808186FD0CC00FB607FC3C
:100A4000F7CF8C9185FFF2CF808185FFEDCFCE016E
:100A500077DFEACFDF91CF91089580E090E0892B96
:100A600021F003DF81110E94000080E090E0892BDB
:100A700049F080E090E0892B29F00E94000081116C
:100A80000E94000080E090E0892B49F080E090E037
:100A9000892B29F00E94000081110E94000080E053
:100AA00090E0892B49F080E090E0892B29F00E94AA
:100AB000000081110C94000008958150823108F0EB
:100AC0005AC0E82FF0E08827E759FA4F8F4F0C946F
:100AD0004B1F89058D057B0581058505BB059005A7
:100AE00096059A05A005A405A805AE05B205BB05A7
:100AF000B605BC05C005809180008F77809380008B
:100B00000895809180008F7DF9CF80918000877F4C
:100B1000F5CF84B58F7784BD089584B58F7DFBCFE5
:100B20008091B0008F778093B00008958091B000DD
:100B30008F7DF9CF809190008F77809390000895FA
:100B4000809190008F7DF9CF80919000877FF5CFC5
:100B50008091A0008F778093A00008958091A000DD
:100B60008F7DF9CF8091A000877FF5CF8091200104
:100B70008F77809320010895809120018F7DF9CF98
:100B800080912001877FF5CFCF93DF93282F30E02E
:100B9000F901E75AF94F8491F901ED5EF94FD491CB
:100BA000F901E353FA4FC491CC2399F0811185DF09
:100BB000EC2FF0E0EE0FFF1FED54FA4FA591B4912A
:100BC000EC91ED2381E090E009F480E0DF91CF919A
:100BD000089580E090E0FACF1F93CF93DF93282F02
:100BE00030E0F901E75AF94F8491F901ED5EF94FD0
:100BF000D491F901E353FA4FC491CC23A1F0162FFD
:100C000081115BDFEC2FF0E0EE0FFF1FE756FA4F8C
:100C1000A591B4918FB7F894EC91111108C0D095BB
:100C2000DE23DC938FBFDF91CF911F910895DE2BE0
:100C3000F8CFCF93DF9390E0FC01ED5EF94F249164
:100C400083539A4FFC0184918823C9F090E0880F68
:100C5000991FFC01E158FA4FA591B491FC01E756A8
:100C6000FA4FC591D49161110DC09FB7F8948C9142
:100C7000209582238C938881282328839FBFDF912E
:100C8000CF910895623051F49FB7F8943C91822F30
:100C9000809583238C93E8812E2BEFCF8FB7F89428
:100CA000EC912E2B2C938FBFEACF863308F086531E
:100CB00020917B00982F9870277F922B90937B0038
:100CC0008770806480937C0080917A008064809338
:100CD0007A0080917A0086FDFCCF80917800909117
:100CE000790008953FB7F89480911A0790911B07F7
:100CF000A0911C07B0911D0726B5A89B05C02F3FEA
:100D000019F00196A11DB11D3FBFBA2FA92F982F31
:100D10008827BC01CD01620F711D811D911D42E02C
:100D2000660F771F881F991F4A95D1F708958F92F4
:100D30009F92AF92BF92CF92DF92EF92FF926B01A0
:100D40007C01D0DF4B015C01C114D104E104F1044A
:100D5000B1F0C8DF681979098A099B09683E7340B8
:100D60008105910588F321E0C21AD108E108F10854
:100D700088EE880E83E0981EA11CB11CE5CFFF9081
:100D8000EF90DF90CF90BF90AF909F908F9008959D
:100D900085EC8093BC001092EF060895811104C089
:100DA00085E88093BC00089585EC8093BC0008958D
:100DB0009093C8068093C70608959093CC068093BD
:100DC000CB060895AC012091C906260F3327331FA7
:100DD00021323105F4F48091EF068430E1F490E0A3
:100DE0000FC0E091C906292F30E0E20FF32FF11D6B
:100DF000240F351FD9012C91E955F94F20839F5FAE
:100E0000961778F38091C906680F6093C90680E051
:100E1000089581E0089582E00895ECEBF0E0808190
:100E20008A7B808360E084E1D7DE60E085E1D4CE18
:100E300008951092EF0681E08093F1061092F0067B
:100E400061E084E1C9DE61E085E1C6DEE9EBF0E066
:100E500080818E7F808380818D7F808388E48093F2
:100E6000B80085E48093BC000895EF92FF920F9341
:100E70001F93CF93DF9391E09093A606811107C053
:100E8000DF91CF911F910F91FF90EF900895C8EBE4
:100E9000D0E0F8800AEB10E0F801E080BEDFC9DFA7
:100EA000F801E082F882ECCF4F925F926F927F92CE
:100EB0008F929F92AF92BF92EF92FF920F931F93E8
:100EC000CF93DF93413280F081E0DF91CF911F918A
:100ED0000F91FF90EF90BF90AF909F908F907F9079
:100EE0006F905F904F900895D22FC42F7B01182FE1
:100EF000F9DE4B015C019091EF06992319F1809185
:100F0000A2069091A306A091A406B091A506892BF4
:100F10008A2B8B2B81F3E6DE681979098A099B09F4
:100F20004090A2065090A3066090A4067090A5067B
:100F30004616570668067906F0F68091A10695DFF9
:100F400085E0C3CF82E08093EF060093F1068FEF38
:100F50008093EE0610921307C09312070AC0E92F80
:100F6000F0E0D701AE0FBF1F8C91EE50F94F808398
:100F70009F5F9C17A0F310921407110F8091140724
:100F8000182B109314078091F006813089F185EEBB
:100F90008093BC00A7DE4B015C01DD2309F45DC03A
:100FA0008091EF06823009F058C08091A20690919E
:100FB000A306A091A406B091A506892B8A2B8B2BA2
:100FC00061F390DE681979098A099B090091A206EC
:100FD0001091A3062091A4063091A50606171707C5
:100FE00028073907D0F68091A1063FDF85E06DCF55
:100FF0001092F00677DE4B015C0104C08091BC00CA
:1010000083FF27C0809114078093BB008091A206C4
:101010009091A306A091A406B091A506892B8A2BD6
:101020008B2B61F35FDE681979098A099B090091AE
:10103000A2061091A3062091A4063091A5060617DA
:10104000170728073907D0F68091A1060EDF85E043
:101050003CCF85EC8093BC009DCF8091EE068F3F06
:1010600061F08091EE06803251F08091EE0680337F
:1010700011F084E02ACF83E028CF80E026CF82E001
:1010800024CF8F929F92AF92BF92DF92EF92FF9206
:101090000F931F93CF93DF93413268F080E0DF918D
:1010A000CF911F910F91FF90EF90DF90BF90AF9085
:1010B0009F908F900895D22EF42EEB01E82E12DE31
:1010C0004B015C019091EF06992319F10091A20662
:1010D0001091A3062091A4063091A506012B022BA6
:1010E000032B81F3FFDD681979098A099B090091B7
:1010F000A2061091A3062091A4063091A50606171A
:10110000170728073907F0F68091A106AEDE80E0C8
:10111000C6CF81E08093EF06D092F1069FEF9093C7
:10112000EE06109213079F0D9093120780931407F9
:101130008E2D880F90911407892B8093140780912E
:10114000F006813071F185EE8093BC00CBDD4B0160
:101150005C019091EF06913009F058C00091A20611
:101160001091A3062091A4063091A506012B022B15
:10117000032B79F3B7DD681979098A099B09009176
:10118000A2061091A3062091A4063091A506061789
:10119000170728073907E8F68091A10666DE80E088
:1011A0007ECF1092F0069EDD4B015C0104C0809161
:1011B000BC0083FF27C0809114078093BB008091FF
:1011C000A2069091A306A091A406B091A506892B32
:1011D0008A2B8B2B61F386DD681979098A099B09B3
:1011E0000091A2061091A3062091A4063091A506B5
:1011F0000617170728073907D0F68091A10635DEB4
:1012000080E04DCF85EC8093BC00A0CF8091130788
:101210008F1520F48091130790E00DC08F2DFCCF27
:10122000292F30E0FE01E20FF31F2E50394FD90174
:101230002C9120839F5F981798F331CF6FEF7FEF4A
:1012400081E090E037C10895089508950895E091F0
:10125000920680919106E81730F4F0E0EF58F94FCC
:10126000808190E008958FEF9FEF0895909192060E
:1012700080919106981758F4E92FF0E0EF58F94F54
:10128000208130E09F5F90939206C90108952FEF6F
:101290003FEFFBCF8091910690919206891B990BAD
:1012A0000895CF92DF92EF92FF920F931F93CF9307
:1012B000DF938C016B017A0180917006882399F08D
:1012C000D0E0C0E0CE15DF0588F4D801ED91FC91A7
:1012D0000190F081E02DD601AC0FBD1F6C91C801CB
:1012E00019952196EFCF642FC6016CDDC701DF9100
:1012F000CF911F910F91FF90EF90DF90CF900895C5
:10130000CF93DF931F92CDB7DEB7FC016983909135
:1013100070069923F1F090919306903250F081E09D
:1013200090E09383828390E080E00F90DF91CF91F3
:10133000089580919406E82FF0E0E05BF94F9981E1
:1013400090838F5F809394068093930681E090E072
:10135000ECCF61E0CE01019635DD81E090E0E5CF94
:101360000F9340919306062F21E060E576E080918F
:101370004F069ADD10929406109293061092700612
:101380000F91089561E0ECCF089581E0809370069D
:1013900060934F0610929406109293060895F5CF2D
:1013A00008954F925F926F927F92AF92BF92CF92C9
:1013B000EF92FF920F931F93CF93DF935C01F62E72
:1013C000D42F28013901E1101BC0D13208F0D0E23E
:1013D0002C2D4D2F61E776E08F2D53DE1092920673
:1013E00080939106DF91CF911F910F91FF90EF9025
:1013F000CF90BF90AF907F906F905F904F90089587
:10140000C4DF23E02E1520F40F2EF3E0EF2EF02D95
:10141000CFEFCE0DEE20C1F0D501ED91FC91019002
:10142000F081E02D8C2F880F880F880FA301920187
:1014300004C056954795379527958A95D2F7B901F7
:10144000C5011995EC2EE4CF60E0C50189DFBDCF61
:10145000CF92EF920F931F93C22EE12C00E010E089
:1014600098019FDF1F910F91EF90CF90089521E099
:10147000EFCF089510929206109291061092940662
:1014800010929306D6DC84E299E092DC85E299E042
:1014900094CC0895FC011382128288EE93E0A0E0C0
:1014A000B0E084839583A683B78382E495E091833B
:1014B00080830895019709F008956F3F7F4FE1F70A
:1014C00085E996E0E7DFF8CF90E080E00895DC0161
:1014D00052967C936E935197FB01849153968C9313
:1014E00053973196E4915496EC935497FB013296BE
:1014F000E4915596EC9355976D5F7F4FFB01649196
:1015000056966C93569757961C92089564357105BC
:1015100008F540335105F0F49A0136952795369534
:10152000279536952795A4E5A29FF001A39FF00D7E
:101530001124E60FF71F47705527E80FF91F808D1C
:1015400021E030E002C0220F331F4A95E2F72095D8
:101550002823208F08956435710500F54033510527
:10156000E8F49A013695279536952795369527956F
:10157000A4E5A29FF001A39FF00D1124E60FF71F31
:1015800047705527E80FF91F808D21E030E002C039
:10159000220F331F4A95E2F7822B808F08954F92D6
:1015A0005F926F927F928F929F92AF92BF92CF92F3
:1015B000DF92EF92FF920F931F93CF93DF938C01F3
:1015C0005A014901DC0154968C915497282F30E040
:1015D000982F977009F0A4C055969C915597691B58
:1015E000770B53969C91869586958695989FC0011A
:1015F0001124689F3001699F700C789F700C112432
:10160000B4E06B0E711CD12CC12C7DC0A601440F1F
:10161000551F440F551F440F551F480D591D4C0FA2
:101620005D1FB7016A0D7B1DC80170DF2196C830B0
:10163000D1050CF058C0F80183898C9DF0018D9D77
:10164000F00D1124C701860D971D8E0F9F1FD80125
:101650005196ED91FC91E80FF91FE491F0E00C2E0A
:1016600002C0F595E7950A94E2F7E0FF15C0F8018E
:1016700087898111CBCFA601440F551F440F551FF9
:10168000440F551F480D591D4C0F5D1FB7016A0DC2
:101690007B1DC80160DFCACFD80157968C9181119C
:1016A00011C0A601440F551F440F551F440F551F6D
:1016B000480D591D4C0F5D1FB7016A0D7B1DC801F8
:1016C00025DFB4CFA601440F551F440F551F440F0B
:1016D000551F480D591D4C0F5D1FB7016A0D7B1D2D
:1016E000C80139DFA3CFBFEFEB1AFB0AD80153962D
:1016F0008C918E151F0421F01CF0D0E0C0E097CF34
:10170000EFEFCE1ADE0AF8018489869586958695D4
:101710008C151D0409F00CF48EC0F12CE12CE6CFE1
:1017200055968C915597681B770B53964C91429F19
:10173000C001439F900D11249923F4F0959587954E
:101740009595879595958795689F2001699F500C81
:10175000789F500C1124B4E04B0E511CD8015196C7
:10176000ED91FC91E40DF51DE4916E2E712CD12CC0
:10177000C12CC7E0D0E056C00796E0CFA701480DC6
:10178000591DB6016A0D7B1DC801C0DE2197C2F14B
:10179000BFEFEB1AFB0AD80154968C918E151F04EB
:1017A00009F00CF43CC0C3010C2E02C0959587953E
:1017B0000A94E2F780FF0DC0F80187898111DECF1E
:1017C000A701480D591DB6016A0D7B1DC801C3DE76
:1017D000DDCFD80157968C91811109C0A701480D22
:1017E000591DB6016A0D7B1DC80190DECFCFA70140
:1017F000480D591DB6016A0D7B1DC801ACDEC6CF70
:10180000BFEF4B1A5B0AD8015196ED91FC91E40DA4
:10181000F51DE4916E2E712CC7E0D0E0B9CFEFEF4B
:10182000CE1ADE0AF80183898C151D0421F01CF004
:10183000F12CE12CB0CFDF91CF911F910F91FF9050
:10184000EF90DF90CF90BF90AF909F908F907F9060
:101850006F905F904F90089530E020E0283F41E086
:1018600034073CF4FC01E20FF31F108E2F5F3F4F53
:10187000F5CF0895FC018685A085B1859C91809562
:1018800089238C93411109C08485A481B5819C91E1
:10189000809589238C9390E01DC09485A481B581A7
:1018A0008C91892B8C93F7CF2385A281B3818C9166
:1018B000822B8C93660F8285A081B1812C918095BB
:1018C00082238C9300002285A081B1818C91822B90
:1018D0008C939F5F983050F4662334F38385A28104
:1018E000B3812C91809582238C93E4CF96850084DC
:1018F000F185E02D8081892B808308950F931F93BC
:10190000CF93DF93FC01E05FFD4F2081222329F07C
:10191000DF91CF911F910F9108958C0140E060E419
:10192000A9DF40E060E8C801A5DFD0E0C0E0C83F23
:1019300081E0D8076CF7F801EC0FFD1F41E0608DE6
:10194000C80198DF2196F3CF0F931F93CF93DF93B6
:10195000EC018B01603871052CF477232CF410E036
:1019600000E002C00FE710E09C85EC81FD818081E2
:10197000892B80839B85EA81FB818081892B8083F1
:101980009A85E881F9818081892B80839E85E8850D
:10199000F9858081892B80838D85EE81FF819081FF
:1019A0008095892380836AE070E080E090E0BFD971
:1019B0009D85EE81FF818081892B808340E061E2FB
:1019C000CE0158DF602F606840E0CE0153DF40E079
:1019D00066E0CE014FDF40E063E1CE014BDF40E047
:1019E00060E2CE0147DF40E060E4CE0143DF40E04B
:1019F00060E8CE013FDF40E06CE0CE013BDFCE018E
:101A00002BDFCE017BDF1A8A198AFE01E05FFD4FD2
:101A10001082CF5EDD4F19830883DF91CF911F9134
:101A20000F910895BF92CF92DF92EF92FF920F93A2
:101A30001F93CF93DF93EC01D62EB42E652FC22EC9
:101A40008D2D972FFC01E353FA4FE491F0E0EE0F58
:101A5000FF1FE756FA4F4591549159834883FC0183
:101A6000ED5EF94FE491EA878B2D962FFC01E3534D
:101A7000FA4FE491F0E0EE0FFF1FE756FA4F459161
:101A800054915B834A83FC01ED5EF94FE491EB874F
:101A9000822F932FFC01E353FA4FE491F0E0EE0F15
:101AA000FF1FE756FA4F259134913D832C83FC01AB
:101AB000ED5EF94FE491EC87802F912FFC01E35309
:101AC000FA4FE491F0E0EE0FFF1FE756FA4F259131
:101AD00034913F832E83FC01ED5EF94FE491ED8755
:101AE0008E2D9F2DFC01E353FA4FE491F0E0EE0FB1
:101AF000FF1FE756FA4F2591349139872887FC015B
:101B0000ED5EF94FE491EE8761E08D2D92D861E0B2
:101B10008B2D8FD861E08C2D8CD861E0802F89D8F7
:101B200061E08E2D86D8DF86088BDF91CF911F91E3
:101B30000F91FF90EF90DF90CF90BF9008950F939B
:101B40001F93CF93DF93EC01062F142F68816062FF
:101B500070E089819A8123DC89819A81DC01ED9191
:101B6000FC910190F081E02D602F199589819A8177
:101B7000DC01ED91FC910190F081E02D612F199530
:101B800089819A81FFDBDF91CF911F910F91089599
:101B9000CF93DF93EC01CA01683008F067E06883F7
:101BA0009A83898367DC4FEF60E0CE01C8DF4FEF97
:101BB00061E0CE01C4DFDF91CF910895AB0160E019
:101BC000E7CF08951F93CF93DF93EC01162F688121
:101BD000606270E089819A81E2DB89819A81DC010F
:101BE000ED91FC910190F081E02D612F1995898193
:101BF0009A81C8DB6881606270E041E050E08981D1
:101C00009A8135DC89819A81DC01ED91FC91028415
:101C1000F385E02D1995DF91CF911F910895822FC3
:101C2000683008F00895842FFDCF862F87700895BF
:101C3000FF920F931F93CF93DF93EC01062F142F86
:101C4000F4DFF82E25E144E1602FCE01E8DF682FB4
:101C5000CE01B8DF11111DC041E050E060E070E03E
:101C600004C0440F551F661F771FFA94D2F74095A2
:101C7000142F182323E142E1602FCE01D0DF412F42
:101C8000682FCE015CDFDF91CF911F910F91FF9004
:101C9000089541E050E060E070E004C0440F551F3B
:101CA000661F771FFA94D2F7182F142BE3CFEF9209
:101CB000FF920F931F93CF93DF93EC01F62EE42E48
:101CC000422F202FACDF182F6F2DCE01AEDFF82E64
:101CD000612FCE0177DFE11017C041E050E060E0F6
:101CE00070E004C0440F551F661F771FFA94D2F7A7
:101CF00040954823612FCE0122DFDF91CF911F91C4
:101D00000F91FF90EF90089541E050E060E070E0A7
:101D100004C0440F551F661F771FFA94D2F7482B53
:101D2000E9CF0F9331E0411130E001E020E0432F93
:101D3000BEDF0F9108956F927F928F929F92AF9224
:101D4000BF92CF92DF92EF92FF920F931F93CF93A8
:101D5000DF933B01813009F4ADC008F473C08230D9
:101D600009F4E0C09E013695279536952795ABE797
:101D7000B4E10E942D1FFC01F695E795D301EC9389
:101D80009E01ADECBCEC0E942D1FAC015695479511
:101D900056954795569547958E2F880F880F8E0F2D
:101DA000982F990F842F891BF3018183CA01880F13
:101DB000991F880F991F840F951F880F991FC81BA3
:101DC000D90BC28394013695279536952795ABE7B5
:101DD000B4E10E942D1FFC01F695E795D3011396FF
:101DE000EC939401ADECBCEC0E942D1FAC01569518
:101DF000479556954795569547958E2F880F880F8E
:101E00008E0F982F990F842F891BF3018483CA01A9
:101E1000880F991F880F991F840F951F880F991F8E
:101E2000881A990A8582DF91CF911F910F91FF90B7
:101E3000EF90DF90CF90BF90AF909F908F907F906A
:101E40006F90089588E30E945506BC01990F880B96
:101E5000990B1F921F921F920F2EF4E69F2EF02DCA
:101E60009F92A12CB12C6501EE24EA9413E0F12E8F
:101E700000E010E020E030E0A9010E9483030F9011
:101E80000F900F900F90EB0187E30E945506BC0165
:101E9000990F880B990B1F921F921F929F9220E01F
:101EA00030E0A9010E9483030F900F900F900F90D4
:101EB0004B0158CF89E30E945506BC01990F880B4E
:101EC000990B1F921F921F920F2EF4E69F2EF02D5A
:101ED0009F92A12CB12C6501EE24EA9413E0F12E1F
:101EE00000E010E020E030E0A9010E9483030F90A1
:101EF0000F900F900F90EB018AE30E945506BC01F2
:101F0000990F880B990B1F921F921F929F9220E0AE
:101F100030E0A9010E9483030F900F900F900F9063
:101F20004B0120CF86E30E945506BC01990F880B18
:101F3000990B1F921F921F9224E62F93A12CB12C74
:101F40006501EE24EA9413E0F12E00E010E020E0B9
:101F500030E0A9010E9483030F900F900F900F9023
:101F6000EB0100CFAF92BF92CF92DF92EF92FF9240
:101F70000F931F93842F0E945506BC01990F880B65
:101F8000990B1F921F921F9224E62F93A12CB12C24
:101F90006501EE24EA9413E0F12E00E010E020E069
:101FA00030E0A9010E9483030F900F900F900F90D3
:101FB000862F1F910F91FF90EF90DF90CF90BF90F1
:101FC000AF900895DC0130E020E026173707B8F421
:101FD00094E2929FF001939FF00D1124EA0FFB1FF2
:101FE0009081941719F02F5F3F4FEFCF83A1882383
:101FF00011F083810895892F0C94C40508950895E4
:102000002F923F925F926F927F928F929F92AF92A8
:10201000BF92CF92DF92EF92FF920F931F93CF93D5
:10202000DF936C015B01542E39011801D0E0C0E050
:1020300008C040E0F301EC0FFD1F6081C101F8DD35
:102040002196E52CF12CCE15DF0528F584E28C9F36
:1020500080018D9F100D11240C0D1D1DF801408174
:10206000B701C601AFDF45018C0E9D1EF4019081C2
:10207000891731F3F8014081B701C601A3DFF401EC
:1020800080838130B1F241E0F301EC0FFD1F6081EC
:10209000C101CEDDD5CFDF91CF911F910F91FF9080
:1020A000EF90DF90CF90BF90AF909F908F907F90F8
:1020B0006F905F903F902F900895FC016383089587
:1020C000DC0130E020E02617370780F494E2929F8D
:1020D000F001939FF00D1124EA0FFB1F90819417DC
:1020E00019F02F5F3F4FEFCF818108950895DC01F4
:1020F00030E020E02617370780F494E2929FF00149
:10210000939FF00D1124EA0FFB1F9181941719F092
:102110002F5F3F4FEFCF808108950895CF93DF93D6
:10212000DC01F0E0E0E0E617F70788F494E29E9F18
:10213000E0019F9FD00D1124CA0FDB1F98819417D7
:1021400011F03196F0CF622F842F0E94EC05CE0162
:10215000DF91CF91089530E020E024173507B8F4DF
:1021600094E2929FF001939FF00D1124E60FF71F68
:102170009181981719F02F5F3F4FEFCF8281843004
:1021800009F0089583A1811104C083E0089580E0DF
:10219000089582E0F6CF662349F0FC0120812230C9
:1021A00010F0108208952F5F20830895FC01208194
:1021B000222311F01082089522E02083089581E007
:1021C00080936B00E8E6F0E0808181608083089571
:1021D0001092B000E1EBF0E08081876080838EEFA9
:1021E0008093B300089510928000E1E8F0E08081D0
:1021F0008360808380818B7F808384E294EF9093DF
:1022000089008093880008950895FB0101900020C3
:10221000E9F73197AF01461B570BDC01ED91FC91BB
:102220000280F381E02D1994AF92BF92CF92DF929A
:10223000EF92FF920F931F93CF93DF93CDB7DEB74B
:10224000A1970FB6F894DEBF0FBECDBF5C0141155C
:102250005105C1F4DC01ED91FC910190F081E02D7C
:102260001995A1960FB6F894DEBF0FBECDBFDF91D2
:10227000CF911F910F91FF90EF90DF90CF90BF9083
:10228000AF90089519A2423008F44AE070E090E05F
:1022900080E08E010F5D1F4FC42ED12CF12CE12C5C
:1022A000A70196010E940B1FE62FCA01B901EA306F
:1022B00084F4E05DD801EE938D01232B242B252B94
:1022C00079F790E080E0109761F2BD01C5019DDFD4
:1022D000C8CFE95CEFCF62E675E097CF0F931F930D
:1022E000CF93DF93EC01A0DF8C01CE01F4DF800FF0
:1022F000911FDF91CF911F910F9108959F92AF92FF
:10230000BF92CF92DF92EF92FF920F931F93CF93E2
:10231000DF936C01EB017901B12CA12CFE01EA0DD8
:10232000FB1D808180538A3020F48FEFA81AB80AF1
:10233000F5CFA2E0AA16B10469F0E1E0AE16B1044F
:1023400049F1A114B10409F096C08881813649F1A0
:1023500080E05EC029818881082E000C990BC0970F
:10236000982F990F990F890F982E990C920EB0ED16
:102370009B0E8FEF981609F443C0A801B701892D71
:10238000EADE8230D1F0A0F4882309F441C0813024
:10239000C1F13EC088810F2EF0ED9F2EF02D980EDA
:1023A000E8CFFFEFAF1ABF0A99249A948FEFE9CFD5
:1023B000833039F18F3F69F724C0FE01EA0DFB1D20
:1023C00090819737F1F4F5013196EC0FFD1F808174
:1023D0008053823010F080E01BC0CA0DDB1D8A8163
:1023E00081114BC0D6011C928081805312968C9330
:1023F000492DB801C7017BDEF601818381E008C069
:10240000892DFE01EA0DFB1D9081923769F080E075
:10241000DF91CF911F910F91FF90EF90DF90CF90C0
:10242000BF90AF909F9008959181911128C0833003
:10243000D1F08F3FE1F0813091F04AE050E0F601B9
:1024400060818EE197E04ADFD60112961C92492DF9
:10245000B801C7014CDEF601818381E0D9CF82E06B
:10246000D6018C93EACF81E0F6018083E6CF83E04A
:10247000D6018C93E2CF80E0CBCF80E0C9CF80E063
:10248000C7CF0F931F93CF93DF938C01D0E0C0E0B1
:102490006115710511F0B9DEEC01C8011CDF8C0F6C
:1024A0009D1FDF91CF911F910F91089561157105C7
:1024B00009F0ABCE90E080E00895CF92DF92EF92EA
:1024C000FF920F931F93CF93DF936C017B0165E61F
:1024D00075E08EE197E0D5DF10E000E027C048818D
:1024E000B701C6013FDD4AE050E0682F8EE197E07A
:1024F0009BDE6AE875E08EE197E0D8DF66E875E07C
:102500008EE197E0D3DFBE016C5F7F4F8EE197E0F5
:10251000CDDF8EE197E0DFDE0D301105B1F190F5F2
:10252000C8010497029788F10F5F1F4F0E151F0512
:1025300090F584E2809FE001819FD00D1124CC0DA5
:10254000DD1D4AE050E069818EE197E06DDE66E8CE
:1025500075E08EE197E0AADF8A81813009F4BFCF70
:102560004881B701C6012EDD882331F06CE875E0A3
:102570008EE197E09BDFC2CF61E975E08EE197E0E5
:1025800095DFBCCF0431110579F665E675E08EE183
:1025900097E077DFC9CF65E675E08EE197E071DF00
:1025A000DF91CF911F910F91FF90EF90DF90CF902F
:1025B0000895DF92EF92FF920F931F93CF93DF93D3
:1025C0007C018B01D42ED0E0C0E001C02196C01761
:1025D000D10790F484E28C9FF0018D9FF00D1124BF
:1025E000EE0DFF1D80818D11F1CFBF016C5F7F4F1C
:1025F0008EE197E05BDFEACFDF91CF911F910F91E2
:10260000FF90EF90DF900895AF92BF92CF92DF924C
:10261000EF92FF920F931F93CF93DF9300D000D0E0
:102620001F921F92CDB7DEB77C01690190E080E078
:102630008530910530F4FE01E80FF91F11820196F3
:10264000F7CF90E080E08530910560F4FA01E80F63
:10265000F91F20812D3031F0FE01E80FF91F218391
:102660000196F1CFA62EB12C8501970145E050E0EF
:10267000BE016F5F7F4FCE01069640DE882309F4CE
:102680008AC08E81882349F08130F9F0823009F4C4
:1026900050C0B501C70111DF83C01885212F4F81BC
:1026A000B501C7013BDD612F08DD8F818E3041F020
:1026B000823109F075C048856DE0C601B9DA70C095
:1026C00048856FE0C601B4DA6BC065E975E08EE15C
:1026D00097E0ECDE4F81B501C701F2DC4AE050E043
:1026E000682F8EE197E0A0DD6FEA75E08EE197E05C
:1026F000DDDE4F81B501C7015CDF6FEA75E08EE179
:1027000097E0D4DE6EE975E08EE197E0CFDE4F8191
:10271000B501C70157DC882331F06CE875E08EE124
:1027200097E0AFDE3DC061E975E08EE197E0BEDE87
:1027300037C065E975E08EE197E0B8DE4F81B501FD
:10274000C701BEDC4AE050E0682F8EE197E06CDD07
:102750006FEA75E08EE197E0A9DE4F81B501C70110
:1027600028DF6FEA75E08EE197E0A0DE66EA75E0AB
:102770008EE197E09BDE4F81B501C701F3DB4AE0B4
:1027800050E0682F8EE197E04FDD6AE875E08EE15A
:1027900097E077DE05C061EB75E08EE197E071DED2
:1027A00028960FB6F894DEBF0FBECDBFDF91CF9154
:1027B0001F910F91FF90EF90DF90CF90BF90AF905F
:1027C00008958F929F92AF92BF92CF92DF92EF9235
:1027D000FF920F931F93CF93DF938C01FB016A014C
:1027E0004901DB010D900020E9F71197A61BB70BFB
:1027F0005D014F30574201F1DEE0CD16D7E2DD0634
:1028000041F1D0E0C0E0CA15DB05BCF5D801539614
:102810008C918C9FA0018D9F500D11247F01BFEFE3
:10282000EB1AFB0A60814C0D5D1D9401C8010E94EA
:10283000CF0A2196F701E7CFEC012B892A9FC0012F
:102840002B9F900D112424E530E06901C81AD90AA4
:10285000D3CFE8018B898A9F90018B9F300D112483
:1028600084E590E0821B930B6C011AF0D594C79419
:10287000C8CFDFEFCD1ADD0AF9CFDF91CF911F91DD
:102880000F91FF90EF90DF90CF90BF90AF909F900F
:102890008F9008952F923F924F925F926F927F9206
:1028A0008F929F92AF92BF92CF92DF92EF92FF9260
:1028B0000F931F93CF93DF93CDB7DEB7E8970FB693
:1028C000F894DEBF0FBECDBF1C014A015B013EABD9
:1028D0002DAB18AF0FAB81149104A104B104F9F42E
:1028E000E114F104C1F090E080E09701215031093A
:1028F0008217930734F4FE01E80FF91FC28E019688
:10290000F4CFEAE1F0E0EC0FFD1FE80FF91F20E340
:102910002083118282C080E38A8F1B8E7EC0BB2001
:1029200064F1D12C10E000E0181419041A041B04FF
:102930007CF50F2EFAE04F2E512C612C712CF02DCE
:10294000C501B401A30192010E94E51E20E3260FF8
:10295000FE01E00FF11F21830F5F1F4FA5019401BE
:10296000261B370B480B590BCA01B901A301920171
:102970000E94E51E49015A01D7CFB094A0949094CB
:102980008094811C911CA11CB11CDD24D394CACF5E
:10299000FE01E00FF11F1182DD2011F08DE28A8F20
:1029A0006D2D70E0FB01E00FF11FEE15FF05A4F4A3
:1029B00050E040E0C701801B910B861B970B481726
:1029C000590764F4DB01A40FB51FAC0FBD1F5A9665
:1029D000CC924F5F5F4FEECF50E040E030E020E020
:1029E0007F01201731079CF4C801821B930BDB0188
:1029F000A20FB31FA40FB51F8C0F9D1FFC01808178
:102A0000AC0FBD1F5A968C932F5F3F4FEACFF70153
:102A1000E40FF51FEC0FFD1F128E2FA938AD4DA945
:102A20005EA9BE01665E7F4FC101CBDEE8960FB6A0
:102A3000F894DEBF0FBECDBFDF91CF911F910F91F4
:102A4000FF90EF90DF90CF90BF90AF909F908F90CE
:102A50007F906F905F904F903F902F900895AF922E
:102A6000BF92CF92EF92FF920F931F93CF93DF937A
:102A7000EC015B01142FB901C5010E94670A1230F5
:102A800070F11230F9F4488150E070E060E0689431
:102A9000CC24C5F8F12CE12C07E010E024E130E073
:102AA000C501F8DE498150E070E060E022E230E0EC
:102AB000C501F0DE4A8150E070E060E02FE230E0D6
:102AC000C501E8DEC5010E947E0CDF91CF911F9108
:102AD0000F91FF90EF90CF90BF90AF9008954881F5
:102AE00050E070E060E06894CC24C5F8F12CE12C53
:102AF00007E010E024E130E0C501CCDE498150E080
:102B000070E060E023E230E0C501C4DE4A8150E0BD
:102B100070E060E020E330E0C501BCDE4B8150E0B6
:102B200070E060E001E210E024E130E0C501B2DED7
:102B30004C8150E070E060E022E230E0C501AADEA6
:102B40004D8150E070E060E02FE230E0C501A2DE90
:102B50009ACFEF92FF921F93CF93DF93182FEB0141
:102B60007A01CB010E942C0CB701CE010E94670AAA
:102B7000113029F158F0123099F124E130E04EE0A3
:102B800057E26CE076E0CE011CDE10C030E020E0C1
:102B90004EE057E267EC75E0CE0113DE29E130E04C
:102BA0004EE057E265ED75E0CE010BDECE010E94EE
:102BB0007E0CDF91CF911F91FF90EF90089530E050
:102BC00020E04EE057E263EE75E0CE01FADD29E148
:102BD00030E04EE057E261EF75E0CE01F2DDE6CF86
:102BE00030E020E04EE057E26FEF75E0CE01E9DD26
:102BF000DDCFCF93DF93CDB7DEB7CF51D7400FB640
:102C0000F894DEBF0FBECDBF26E040E855E260E09D
:102C100070E08EE197E00E943E048CEFE0E0F2E08D
:102C2000DE01169601900D928A95E1F784E2ECEFB1
:102C3000F2E0DE01A75FBE4F01900D928A95E1F7A9
:102C400084E2E0E2F3E0DE01A35DBE4F01900D926D
:102C50008A95E1F79E012F5A3E4F88EA93E0D90109
:102C6000FC011D923197E9F780E1D9018C938AE04C
:102C700011968C93119794E012969C9312978EE084
:102C8000E4E4F3E0149601900D928A95E1F7F901DE
:102C9000729681E1DF011D928A95E9F781E0F901E1
:102CA00083A34EE044A34BE045A396A354E1E3E69F
:102CB000F3E0D901989601900D925A95E1F7245CC2
:102CC0003F4FD9011D924A95E9F7C856DE4F8883D8
:102CD000C859D14023E1C756DE4F2883C959D14096
:102CE0002CE0C656DE4F2883CA59D140C556DE4F68
:102CF0009883CB59D14026E1E2E8F3E0DE01A35608
:102D0000BE4F01900D922A95E1F739E0EDE9F1E02F
:102D1000EC0FFD1F7696DF01232F1D922A95E9F710
:102D2000C454DE4F8883CC5BD1402FE0C354DE4FC8
:102D30002883CD5BD1404DE0C254DE4F4883CE5B4B
:102D4000D140C154DE4F9883CF5BD14047E1E1EAE7
:102D5000F3E0DE01AF53BE4F01900D924A95E1F7CB
:102D6000E1ECF1E0EC0FFD1F779648E0DF011D92EA
:102D70004A95E9F7C052DE4F8883C05ED14067E1D3
:102D8000C75DDD4F6883C952D24044E1C65DDD4F67
:102D90004883CA52D240C55DDD4F9883CB52D240A2
:102DA00040E1E0ECF3E0DE01A35DBD4F01900D9248
:102DB0004A95E1F7EDE2F2E0EC0FFD1F7096DF01BE
:102DC000422F1D924A95E9F7C45BDD4F8883CC54AE
:102DD000D24059E1C35BDD4F5883CD54D24045E129
:102DE000C25BDD4F4883CE54D240C15BDD4F988338
:102DF000CF54D24040E1EFEDF3E0DE01AF5ABD4FDA
:102E000001900D924A95E1F7E1E5F2E0EC0FFD1F2C
:102E10007096DF01422F1D924A95E9F7C059DD4FA8
:102E20008883C057D2404BE1CF58DD4F4883C1570C
:102E3000D24076E1CE58DD4F7883C257D240CD588C
:102E4000DD4F9883C357D24070E1EEEFF3E0DE012F
:102E5000AB58BD4F01900D927A95E1F7E5E7F2E0AE
:102E6000EC0FFD1F7096DF01722F1D927A95E9F726
:102E7000CC56DD4F8883C459D2407DE1CB56DD4F1F
:102E80007883C559D240CA56DD4F6883C659D240AF
:102E9000C956DD4F9883C759D24060E1EDE1F4E0B7
:102EA000DE01A756BD4F01900D926A95E1F7E9E961
:102EB000F2E0EC0FFD1F7096DF01622F1D926A9504
:102EC000E9F7C854DD4F8883C85BD2406FE1C7542F
:102ED000DD4F6883C95BD24068E1C654DD4F68832B
:102EE000CA5BD240C554DD4F9883CB5BD24060E1D2
:102EF000ECE3F4E0DE01A354BD4F01900D926A951E
:102F0000E1F7EDEBF2E0EC0FFD1F7096DF01622FB1
:102F10001D926A95E9F7C452DD4F8883CC5DD2409B
:102F200061E2C352DD4F6883CD5DD240C252DD4FB6
:102F30005883CE5DD240C152DD4F9883CF5DD240E1
:102F400050E1EBE5F4E0DE01AF51BD4F01900D9291
:102F50005A95E1F7E1EEF2E0EC0FFD1F7096DF010C
:102F6000522F1D925A95E9F7C050DD4F8883C0500B
:102F7000D34053E2CF5FDC4F5883C150D3405AE176
:102F8000CE5FDC4F5883C250D340CD5FDC4F988377
:102F9000C350D34050E1EAE7F4E0DE01AB5FBC4F41
:102FA00001900D925A95E1F7E5E0F3E0EC0FFD1F7B
:102FB0007096DF01522F1D925A95E9F7CC5DDC4FD8
:102FC0008883C452D34055E2CB5DDC4F5883C55251
:102FD000D340CA5DDC4F4883C652D340C95DDC4F45
:102FE0009883C752D34090E1E9E9F4E0DE01A75DA0
:102FF000BC4F01900D929A95E1F7E9E2F3E0EC0FF6
:10300000FD1F7096DF01422F1D924A95E9F7C85BBC
:10301000DC4F8883C854D34096E3CB5BDB4F988367
:10302000C554D44098E2CA5BDB4F9883C654D44061
:10303000C95BDB4F8883C754D44090E1E8EBF4E0F0
:10304000DE01A75BBB4F01900D929A95E1F7E9E491
:10305000F4E0EC0FFD1F7096DF011D922A95E9F751
:1030600097E3C759DB4F9883C956D44099E2C659B4
:10307000DB4F9883CA56D440C559DB4F8883CB5663
:10308000D44096E1E7EDF4E0DE01A359BB4F019097
:103090000D929A95E1F7EDE6F4E0EC0FFD1F7696C0
:1030A000DF011D923A95E9F798E3C357DB4F988308
:1030B000CD58D4409AE2C257DB4F9883CE58D440C3
:1030C000C157DB4F8883CF58D44098E1E6EFF4E056
:1030D000DE01AF56BB4F01900D929A95E1F7E1E901
:1030E000F4E0EC0FFD1F789697E0DF011D929A95B2
:1030F000E9F799E3CF54DB4F9883C15BD4409BE25F
:10310000CE54DB4F9883C25BD440CD54DB4F8883D1
:10311000C35BD4409FE1EDE2F6E0DE01AB54BB4F70
:1031200001900D929A95E1F79AE3CB52DB4F988389
:10313000C55DD4409CE2CA52DB4F9883C65DD44043
:10314000C952DB4F8883C75DD44089E1E5E1F5E0F2
:10315000DE01A752BB4F01900D928A95E1F70F2E29
:10316000F6E0DF2EF02DE9EDF4E0EC0FFD1F79968F
:10317000DF012D2D1D922A95E9F784E2E55CF340ED
:10318000DE01AF51BE4F01900D928A95E1F784E2C6
:10319000FE01E75FFE4FDE01AB5FBD4F01900D9278
:1031A0008A95E1F784E2FE013696DE01A75BBC4F0B
:1031B00001900D928A95E1F784E2FE01BA96DE0154
:1031C000A359BC4F01900D928A95E1F784E2FE016C
:1031D000E25BFF4FDE01AF56BC4F01900D928A9526
:1031E000E1F784E2FE01EE58FF4FDE01AB54BC4F25
:1031F00001900D928A95E1F784E2FE01EA56FF4FB5
:10320000DE01A752BC4F01900D928A95E1F784E24E
:10321000FE01E654FF4FDE01A350BC4F01900D921A
:103220008A95E1F784E2FE01E252FF4FDE01AF5DD5
:10323000BB4F01900D928A95E1F70F2EFBE0EF2E28
:10324000F12CF02D0CE010E02AE030E049E050E0F5
:1032500063E370E0CE0187509B4F0E94120DC45F64
:10326000D84F1882CC50D740FE01E35FF84FDF0102
:103270001D92DA94E9F765E976E0CE018D5E984F0C
:103280000E94DE0D8AE0E4E3F5E0DE01AA5EB84FBD
:1032900001900D928A95E1F710E000E00FC084E202
:1032A000809FF001819FF00D1124E40FF51F63A1B1
:1032B00080810E94190614C00F5F1F4F0A3111054B
:1032C00058F584E2809FF001819FF00D112441E5C3
:1032D00051E04C0F5D1FE40FF51F82818430F9F23D
:1032E00084E2809FF001819FF00D112461E571E07F
:1032F0006C0F7D1FE60FF71F83A18130E9F684E292
:10330000809FF001819FF00D1124E60FF71F60E010
:1033100080810E94EC05D0CF10E000E008C040E0C2
:10332000CE018D5E984F0E94180E0F5F1F4F0A301E
:103330001105C8F40F2EF6E1EF2EF7E0FF2EF02D69
:10334000EC0EFD1EE00EF11E41E0D7016C91CE01A6
:103350008D5E984F0E94910EF70160816D30F9F2F9
:103360006F3019F7DCCFC75FDE4F4881C950D140BD
:1033700061E070E0CE01875F9E4F0E94E20FD82E81
:10338000F1E08F1751F040E06EE0CE018D5E984F76
:103390000E94180E10E000E017C041E06EE0CE0180
:1033A0008D5E984F0E94180EF5CFE6E1F7E0EC0F26
:1033B000FD1FE00FF11F41E06081CE018D5E984F4F
:1033C0000E94180E0F5F1F4F0730110540F584E271
:1033D000809FF001819FF00D1124EC0FFD1F4681AD
:1033E00067E070E0CE0106960E94E20FE2E0F1E0B5
:1033F000EC0FFD1FE00FF11F80838823B1F28130B5
:1034000009F7E6E1F7E0EC0FFD1FE00FF11F40E0E8
:103410006081CE018D5E984F0E94180ED3CF62E07E
:1034200085E30E94190662E082E00E9419060E946C
:10343000DF100E94F3100E94E81078946AE176E0B1
:103440008EE197E01ED86AE170E0CE018F5A9E4F60
:1034500034D86CE370E0CE0187509B4F0E94A40CDF
:1034600061E473E0CE0187509B4F0E94670ACE0152
:1034700087509B4F0E942C0C40E252E0BE016750E7
:103480007B4FC45FD84F8881CC50D74062DBBB24D0
:10349000B394C12CF12C89C0C75FDE4F4881C9505D
:1034A000D14061E070E0CE01875F9E4F0E94E20F45
:1034B000D82E482F6EE0CE018D5E984F0E94180ED8
:1034C00082C00E94C405682FCE01845F984F0E947D
:1034D000CB10C12CACC082E00E94C405682FCE0185
:1034E000845F984F0E94CB1040E252E0BE016750CB
:1034F0007B4FC45FD84F8881CC50D7402ADBE0E7B0
:10350000F0E0808182608083CC24C3949EC0BE01A1
:10351000635F784FC45FD84F8881CC50D7400E94FA
:103520009B0E24EE30E0C45FD84F4881CC50D7408A
:10353000BE0167507B4FCE01835F984F90DA1092A7
:103540004C0688C00F2EF8E6EF2EF12CF02DD70197
:103550008C918B7F8C930F2EFFE68F2E912CF02D6C
:10356000F40180818D7F808300E710E0D8018C9189
:103570008D7F8C938EE197E00E946B119E012D5EF2
:10358000384FAE014F5F5F4F6AE1CE018F5A9E4FB9
:103590003BD8F70180818460808382E0D4018C93E2
:1035A000F801808182608083F12CC75FDE4F488103
:1035B000C950D14061E070E0CE01875F9E4F0E940C
:1035C000E20F8D1169CF8E010D5E184F9E012A5EAC
:1035D000384F47E0BE016E5F7E4FCE0106960E94D7
:1035E000001080914E06882369F1BB2069F0E8E65F
:1035F000F0E080818B7F80831092850010928400A0
:1036000082E080936F00B12C80914D068823D1F029
:10361000E0E7F0E080818D7F8083EFE6F0E080815D
:103620008D7F808380914D06823009F44ACF1092BD
:103630004D06E8E6F0E080818460808310924E06BB
:10364000BB24B394CC2009F446CF80914C0684313E
:1036500008F05DCF8EE197E00E9429041816190644
:103660000CF0A3CF8EE197E00E940704FE01EF0D5E
:10367000F11D8183682F8EE197E00E94C403F394CB
:1036800025E0F21609F45ECFFE01EF0DF11D8081F9
:103690008D3009F457CF8A3009F087CF53CF85EDAD
:1036A0008093BC004091A2065091A3066091A406AD
:1036B0007091A506495F5F4F6F4F7F4F689412F876
:1036C00076956795579547951694D1F78091BC00EC
:1036D00084FF1FC08091A2069091A306A091A4062A
:1036E000B091A506892B8A2B8B2B81F341155105AF
:1036F0006105710549F085E38A95F1F700004150B5
:10370000510961097109E2CF8091A1060C94350736
:1037100008951092EF0608951F920F920FB60F9220
:1037200011240BB60F922F933F934F935F936F9398
:103730007F938F939F93AF93BF93EF93FF938EE10C
:1037400097E00E94A004FF91EF91BF91AF919F91EC
:103750008F917F916F915F914F913F912F910F903A
:103760000BBE0F900FBE0F901F9018951F920F92D7
:103770000FB60F9211240BB60F922F938F939F9336
:10378000EF93FF93E0912E07F0912F078081E09156
:103790003407F091350782FD1DC090818091370775
:1037A0008F5F8F7320913807821741F0E0913707C0
:1037B000F0E0E25EF84F958F80933707FF91EF912D
:1037C0009F918F912F910F900BBE0F900FBE0F9076
:1037D0001F9018958081F2CF1F920F920FB60F9213
:1037E00011242F933F938F939F93AF93BF93809117
:1037F000160790911707A0911807B09119073091FB
:10380000150723E0230F2D3758F50196A11DB11D93
:10381000209315078093160790931707A093180716
:10382000B093190780911A0790911B07A0911C076C
:10383000B0911D070196A11DB11D80931A079093A9
:103840001B07A0931C07B0931D07BF91AF919F91D9
:103850008F913F912F910F900FBE0F901F90189551
:1038600026E8230F0296A11DB11DD2CF1F920F9201
:103870000FB60F9211240BB60F922F933F934F93D5
:103880005F936F937F938F939F93AF93BF93EF93C8
:10389000FF93E091B900E87FE93C08F0D6C0F0E082
:1038A0008827EB5AF34E8F4FF6C2171E251D251D94
:1038B000251D251D251D251D251D1E1D251D251DFF
:1038C000251D251D251D251D251D1E1D251D251DEF
:1038D000251D251D251D251D251D381D251D251DC5
:1038E000251D251D251D251D251D5D1D251D251D90
:1038F000251D251D251D251D251D381D251D251DA5
:10390000251D251D251D251D251D621D251D251D6A
:10391000251D251D251D251D251D671D251D251D55
:10392000251D251D251D251D251D791D251D251D33
:10393000251D251D251D251D251DA21D251D251DFA
:10394000251D251D251D251D251D6D1D251D251D1F
:10395000251D251D251D251D251D871D251D251DF5
:10396000251D251D251D251D251DA41D251D251DC8
:10397000251D251D251D251D251DA41D251D251DB8
:10398000251D251D251D251D251DA41D251D251DA8
:10399000251D251D251D251D251DA41D251D251D98
:1039A000251D251D251D251D251DAD1D251D251D7F
:1039B000251D251D251D251D251DDE1D251D251D3E
:1039C000251D251D251D251D251DAD1D251D251D5F
:1039D000251D251D251D251D251DDE1D251D251D1E
:1039E000251D251D251D251D251DC51D251D251D27
:1039F000251D251D251D251D251DE21D251D251DFA
:103A0000251D251D251D251D251DE21D251D251DE9
:103A1000251D251D251D251D251DF71D251D251DC4
:103A2000251D251D251D251D251D111E251D251D99
:103A3000251D251D251D251D251D111E80911407E1
:103A40008093BB0081E00E94CE06FF91EF91BF9171
:103A5000AF919F918F917F916F915F914F913F9126
:103A60002F910F900BBE0F900FBE0F901F901895C7
:103A70009091130780911207981768F08091F106D2
:103A8000811119C081E08093F00684EA8093BC0024
:103A90001092EF06DACFE091130781E08E0F80934A
:103AA0001307F0E0EE50F94F80818093BB0081E076
:103AB0000E94CE06CACFF3DDC8CF80E28093EE0627
:103AC000EEDDC3CF80E38093EE06E9DDBECF88E371
:103AD0008093EE060E94C806B8CFE091130781E0FC
:103AE0008E0F80931307F0E08091BB00EE50F94FEA
:103AF00080839091130780911207981720F481E03A
:103B00000E94CE06A2CF80E00E94CE069ECFE0911A
:103B1000130781E08E0F80931307F0E08091BB00C4
:103B2000EE50F94F80838091F106811109C081E048
:103B30008093F00684EA8093BC001092EF0685CF54
:103B4000AEDD83CFACDD81CF83E08093EF061092B2
:103B5000ED0681E00E94CE0678CF8091ED0680329E
:103B600080F4E091ED0681E08E0F8093ED06F0E0A9
:103B70008091BB00E353F94F808381E00E94CE0621
:103B800064CF80E00E94CE0660CF0E94C80680917C
:103B9000ED06803230F4E091ED06F0E0E353F94FAA
:103BA00010826091ED0670E0E091CB06F091CC06BA
:103BB0008DEC96E019951092ED0647CF80E00E94BB
:103BC000CE0643CF84E08093EF061092CA0610928F
:103BD000C906E091C706F091C80619958091C906FB
:103BE000811105C081E08093C9061092A706E0917B
:103BF000CA0681E08E0F8093CA06F0E0E955F94FBE
:103C000080818093BB009091CA068091C906981765
:103C100020F481E00E94CE0618CF80E00E94CE06FC
:103C200014CF81E00E94CE061092EF060ECF1092C4
:103C3000EE0635DD0ACF1F920F920FB60F921124B8
:103C40008F9381E080934E068F910F900FBE0F905F
:103C50001F9018951F920F920FB60F9211248F93F9
:103C600080914C068F5F80934C068F910F900FBE12
:103C70000F901F9018951F920F920FB60F9211245C
:103C80008F93189906C0189907C081E080934D065C
:103C900003C082E080934D068F910F900FBE0F906E
:103CA0001F901895EEE1F7E01382128288EE93E000
:103CB000A0E0B0E084839583A683B78384E595E094
:103CC0009183808385EC90E09587848784EC90E0F5
:103CD0009787868780EC90E0918B808B81EC90E0D9
:103CE000938B828B82EC90E0958B848B86EC90E0BA
:103CF000978B868B118E128E138E148E0895D2DFC1
:103D00000C941E09789484B5826084BD84B581606A
:103D100084BD85B5826085BD85B5816085BDEEE6D3
:103D2000F0E0808181608083E1E8F0E010828081B2
:103D300082608083808181608083E0E8F0E0808120
:103D400081608083E1EBF0E0808184608083E0EB40
:103D5000F0E0808181608083E1E9F0E08081826031
:103D60008083808181608083E0E9F0E080818160F0
:103D70008083E1EAF0E080818260808380818160DD
:103D80008083E0EAF0E0808181608083E1E2F1E01D
:103D9000808182608083808181608083E0E2F1E0C5
:103DA000808181608083EAE7F0E0808184608083A5
:103DB000808182608083808181608083808180684F
:103DC00080831092C1000E94F915052E97FB16F40E
:103DD00000940FD057FD05D01ED007FC02D046F44A
:103DE00008C050954095309521953F4F4F4F5F4FFC
:103DF000089590958095709561957F4F8F4F9F4F57
:103E000008952BD0A59F900DB49F900DA49F800D79
:103E1000911D11240895A1E21A2EAA1BBB1BFD01BE
:103E20000DC0AA1FBB1FEE1FFF1FA217B307E40799
:103E3000F50720F0A21BB30BE40BF50B661F771FF1
:103E4000881F991F1A9469F76095709580959095D1
:103E50009B01AC01BD01CF010895A29FB001B39FAA
:103E6000C001A39F700D811D1124911DB29F700D83
:103E7000811D1124911D0895DB018F939F93C1DF54
:103E8000BF91AF91A29F800D911DA39F900DB29FF6
:103E9000900D11240895EE0FFF1F881F8BBF079010
:0A3EA000F691E02D1994F894FFCF7D
:103EAA003E1E0400506F77657220737570706C79CE
:103EBA00206661756C74205B7768656E20305D00E2
:103ECA00000000003F1F0400526573657276656446
:103EDA00206661756C74000000000000000000009C
:103EEA000000000000000000402004004265616DEF
:103EFA0020636F6C6C696D61746F72206661756C9A
:103F0A0074000000000000000000000041210400CD
:103F1A00506F7765722D616D702063757272656E70
:103F2A0074206661756C74000000000000000000D7
:103F3A00422204005072652D616D702063757272A1
:103F4A0065726E74206661756C7400000000000072
:103F5A0000000000432304004261736520706C6115
:103F6A0074652074656D70206661756C740000005C
:103F7A00000000000000000044240400536565644A
:103F8A00206C617365722074656D70206661756C52
:103F9A00740000000000000000000000110F04007F
:103FAA004C61736572207265616479205B7768651C
:103FBA006E20315D000000000000000000000000DB
:103FCA00120E04004C617365722064697361626C3D
:103FDA006500000000000000000000000000000072
:103FEA0000000001476C6F62616C20456E61626C73
:103FFA006500000000000000000000000000000052
:10400A000000004C6173657220656D697373696F96
:10401A006E20676174650000000000000000000067
:10402A00000050756C7365642F4357206D6F64658B
:10403A002073656C656374000000000000000000D6
:10404A0000416C69676E6D656E74206C6173657290
:10405A0020656E61626C65000000000000000000CF
:10406A0053746174652073656C6563743A2030001B
:10407A0000000000000000000000000000000053E3
:10408A00746174652073656C6563743A203100004D
:10409A00000000000000000000000000000053744F
:1040AA006174652073656C6563743A2032000000A0
:1040BA0000000000000000000000000000537461CE
:1040CA0074652073656C6563743A203300000000E0
:1040DA00000000000000000000000000537461743A
:1040EA00652073656C6563743A2034000000000033
:1040FA0000000000000000000000005374617465B5
:10410A002073656C6563743A203500000000000076
:10411A000000000000000000000053746174652074
:10412A0073656C6563743A20360000000000000075
:10413A0000000000000000000053746174652073E1
:10414A00656C6563743A20370000000000000000C7
:10415A0000000000000000004261736520706C617D
:10416A0074652074656D7000000000000000000096
:10417A000000000000000050726520616D7020642C
:10418A00696F64652063757272656E740000000061
:10419A00000000000000506F77657220616D70208A
:1041AA0064696F64652063757272656E74000000DD
:1041BA00000000000053696D6D65722063757272AC
:1041CA00656E742073657420706F696E74000000E8
:1041DA0000000000060708090A0B0C0D0E0F00006C
:1041EA00000080095109640A26094A093609270983
:1041FA0000000000C204CB03F8030E0529040704DB
:10420A001B040D0A003D3D3D3D3D3D3D3D3D3D3DCF
:10421A003D3D3D3D3D3D3D3D3D3D3D3D3D3D3D3DC4
:10422A003D3D3D3D3D00207C200025004849474852
:10423A00004C4F570050696E206E723A200020538E
:10424A0074616E3A200020576172746F73633A206A
:10425A00004E69657072617769646C6F7761206B73
:10426A006F6D656E646100504F572D414D50204D62
:10427A004F4E4954005052452D414D50204D4F4EFE
:10428A00495400504F572D414D5020532E20502E47
:10429A00005052452D414D5020432E20502E0042B1
:1042AA002D54454D50204D4F4E495400446973706A
:1042BA006C6179206572726F7200537461747573E0
:1042CA0020706F637A61746B6F77793A0041637417
:1042DA006976652D53746174652063757272656EB3
:0C42EA00742073657420706F696E74009E
:00000001FF
