:1000000072C000009EC000009CC000009AC00000AA
:1000100098C0000096C0000094C0000092C000008C
:1000200090C000008EC000008CC000008AC000009C
:1000300088C0000086C0000084C0000082C00000AC
:1000400080C000007EC000007CC000007AC00000BC
:1000500078C0000076C0000074C00000B1C200008B
:1000600070C000003BC3000010C300006AC0000065
:1000700068C0000066C0000064C0000062C00000EC
:1000800060C000005EC000005CC000005AC00000FC
:1000900058C0000056C0000054C0000052C000000C
:1000A00050C000004EC000004CC000004AC000001C
:1000B00048C0000046C0000044C0000042C000002C
:1000C00040C000003EC000003CC000003AC000003C
:1000D00038C0000036C0000034C0000032C000004C
:1000E00030C000003F0311241FBECFEFD1E2DEBFBE
:1000F000CDBF00E00CBF12E0A0E0B2E0ECEAF7E018
:1001000000E00BBF02C007900D92A231B107D9F7F2
:1001100022E0A2E1B2E001C01D92A83BB207E1F7E4
:1001200010E0C3E7D0E000E005C021970109802F6F
:10013000FE0132D3C237D10780E00807B1F79BD266
:1001400033C35ECF789484B5826084BD84B581600A
:1001500084BD85B5826085BD85B5816085BDEEE6CF
:10016000F0E0808181608083E1E8F0E010828081AE
:1001700082608083808181608083E0E8F0E080811C
:1001800081608083E1EBF0E0808184608083E0EB3C
:10019000F0E0808181608083E1E9F0E0808182602D
:1001A0008083808181608083E0E9F0E080818160EC
:1001B0008083E1EAF0E080818260808380818160D9
:1001C0008083E0EAF0E0808181608083E1E2F1E019
:1001D000808182608083808181608083E0E2F1E0C1
:1001E000808181608083EAE7F0E0808184608083A1
:1001F000808182608083808181608083808180684B
:1002000080831092C1000895CF92DF92EF92FF9207
:100210000F931F93CF93DF938C01DB01D0E0C0E0FD
:100220007A0181E0E81AF108452BA1F0F8018081FC
:100230009181FC01208131816D01FFEFCF1ADF0A2E
:100240006C91C801F9011995892B21F02196A7011C
:10025000D601E6CFCE01DF91CF911F910F91FF9094
:10026000EF90DF90CF9008950895019709F00895D9
:100270006F3F7F4FE1F7E2E1F2E01382128288EEF6
:1002800093E0A0E0B0E084839583A683B78384E005
:1002900092E09183808385EC90E09587848784EC5D
:1002A00090E09787868780EC90E0918B808B81EC43
:1002B00090E0938B828B82EC90E0958B848B86EC24
:1002C00090E0978B868B118E128E138E148ECFCF6B
:1002D000FC01938D848D981720F4891B990B01974D
:1002E00008952FE330E0291B3109820F932F911DD0
:1002F0000895FC01918D828D981761F0A28DAE0F4B
:10030000BF2FB11D5D968C91928D9F5F9F73928FD1
:1003100090E008958FEF9FEF0895FC01918D828DFD
:10032000981731F0828DE80FF11D858D90E00895CA
:100330008FEF9FEF0895FC01218D30E0205C3F4F4F
:10034000828DA901481B5109CA018F73992708950D
:1003500082E192E0F0DF21E0892B09F420E0822F96
:100360000895CF92DF92EF92FF921F93CF93DF9386
:10037000EC016A017B01122F60E079E08DE390E0EF
:10038000A7019601E7D1215031094109510956953C
:10039000479537952795E889F98982E08083C114CC
:1003A00081EED806E104F10421F0211580E138073F
:1003B00090F0E889F989108260E874E88EE190E0B5
:1003C000A7019601C7D1215031094109510956951C
:1003D000479537952795EC85FD853083EE85FF851C
:1003E0002083188EEC89FD891083EA89FB8980813E
:1003F00080618083EA89FB89808188608083EA89C3
:10040000FB89808180688083EA89FB8980818F7D78
:100410008083DF91CF911F91FF90EF90DF90CF907D
:100420000895FC01A48DA80FB92FB11DA35ABF4F89
:100430002C91848D90E001968F739078848FA6899B
:10044000B7892C93A089B1898C91837080648C9337
:10045000938D848D981308950288F389E02D80810F
:100460008F7D8083F8CF0F931F93CF93DF93EC01A1
:1004700081E0888F9B8D8C8D9817A9F0062F8B8D2E
:1004800090E001968F739078182F8C8D81131DC08A
:100490000FB607FCFACFE889F989808185FFF5CF8F
:1004A000CE01BFDFF2CFE889F989808185FFE6CFF1
:1004B0009FB7F894EE89FF896083E889F989808184
:1004C0008370806480839FBF10C0EB8DEC0FFD2F85
:1004D000F11DE35AFF4F00839FB7F8941B8FEA8901
:1004E000FB898081806280839FBF81E090E0DF9103
:1004F000CF911F910F910895CF93DF93EC01888DD9
:10050000811104C00DC00FB607FE0DC0EA89FB893A
:10051000808185FDF8CFA889B9898C9186FFF3CFBA
:10052000DF91CF910895808185FFF0CFE889F98927
:10053000808185FFEBCFCE0174DFE8CF80E090E0D3
:10054000892B19F005DF811125C080E090E0892B0F
:1005500041F080E090E0892B21F00E9400008111A1
:100560001CC080E090E0892B41F080E090E0892B76
:1005700021F00E940000811113C080E090E0892BDF
:1005800041F080E090E0892B21F00E940000811171
:100590000AC008950E940000D8CF0E940000E1CF59
:1005A0000E940000EACF0E940000F3CF089526E0E9
:1005B00040E855E260E070E082E192E0D2CE08953A
:1005C0001F920F920FB60F9211240F931F932F9328
:1005D0003F934F935F936F937F938F939F93AF93CB
:1005E000BF930091B4021091B5022091B6023091F0
:1005F000B7029091B302B901A8014F5F5F4F6F4FEF
:100600007F4F83E0890F8D3740F086E8890FB9016D
:10061000A8014E5F5F4F6F4F7F4F8093B3024093AF
:10062000B4025093B5026093B6027093B702809102
:10063000AF029091B002A091B102B091B2020196C6
:10064000A11DB11D8093AF029093B002A093B1029F
:10065000B093B202BF91AF919F918F917F916F91B3
:100660005F914F913F912F911F910F910F900FBE6E
:100670000F901F90189566DD9ADF60DFFECF6FEF59
:100680007FEF81E090E0F1CD08951F920F920FB6B9
:100690000F9211240BB60F922F933F934F935F93BA
:1006A0006F937F938F939F93AF93BF93EF93FF933A
:1006B00082E192E0B6DEFF91EF91BF91AF919F9101
:1006C0008F917F916F915F914F913F912F910F90FB
:1006D0000BBE0F900FBE0F901F9018951F920F9298
:1006E0000FB60F9211240BB60F922F938F939F93F7
:1006F000AF93BF93EF93FF93E0912202F091230217
:10070000808182FD14C0E2E1F2E0A689B7892C91D4
:10071000818D8F5F8F73928D891771F0DF01E18D6D
:10072000F0E0EE5EFD4F258F59968C9305C0E09169
:100730002802F09129028081FF91EF91BF91AF9142
:100740009F918F912F910F900BBE0F900FBE0F9026
:100750001F901895A1E21A2EAA1BBB1BFD010DC00C
:10076000AA1FBB1FEE1FFF1FA217B307E407F50761
:1007700020F0A21BB30BE40BF50B661F771F881F3D
:10078000991F1A9469F760957095809590959B01D3
:10079000AC01BD01CF010895EE0FFF1F881F8BBF75
:0C07A0000790F691E02D1994F894FFCF1B
:1007AC00000000003302040168017C029B01790106
:0207BC008D01AD
:00000001FF
