:100000000C9476020C94A7020C94A7020C94A702FD
:100010000C94A7020C94A7020C94A7020C94A702BC
:100020000C94A7020C9414190C94A7020C94A70228
:100030000C94A7020C9423190C94A7020C94A70209
:100040000C94A7020C9434190C94A7020C94A702E8
:100050000C94A7020C94A7020C94A7020C94A61768
:100060000C94A7020C9470170C9446170C94A702DA
:100070000C94A7020C94A7020C94A7020C94A7025C
:100080000C94A7020C94A7020C94A7020C94A7024C
:100090000C94A7020C94A7020C94A7020C94F017DE
:1000A0000C94A7020C94A7020C94A7020C94A7022C
:1000B0000C94A7020C94A7020C94A7020C94A7021C
:1000C0000C94A7020C94A7020C94A7020C94A7020C
:1000D0000C94A7020C94A7020C94A7020C94A702FC
:1000E0000C94A7020C9416040C9440040C940D0478
:1000F0000C94D6020C9410040C9470060C94E50237
:100100000C94A9020C9428040C9472060C943604E6
:100110000C94C8060C946F060C94F9020C9481069A
:100120000C943F030C94FB030C9424040C943204B1
:100130000C9449190C94F7060C949B060C941A0421
:100140000C9405040C9407030C9471060C948C0316
:100150000C942E040C943B040C9401040C9409049C
:100160000C9494060C9420040C943C040C102D0D5B
:10017000000000808080808080000000000001037B
:10018000030303030301000000000000000000005F
:10019000000000000000000000C0C00000000000DF
:1001A000000002868686868686020000000081C3E3
:1001B000C3C3C3C3C381000000FC7A06060606065B
:1001C000067AFC00007EBCC0C0C0C0C0C0BC7E00BF
:1001D00000000000000000000078FC0000000000AB
:1001E00000000000003C7E000000028686868686B5
:1001F000867AFC00007EBDC3C3C3C3C3C3810000B5
:100200000000028686868686867AFC00000081C30E
:10021000C3C3C3C3C3BD7E0000FC788080808080E0
:100220008078FC000000010303030303033D7E000C
:1002300000FC7A868686868686020000000081C3DE
:10024000C3C3C3C3C3BD7E0000FC7A868686868690
:1002500086020000007EBDC3C3C3C3C3C3BD7E000E
:100260000000020606060606067AFC0000000000F2
:1002700000000000003C7E0000FC7A8686868686B0
:10028000867AFC00007EBDC3C3C3C3C3C3BD7E006A
:1002900000FC7A8686868686867AFC00000081C30A
:1002A000C3C3C3C3C3BD7E000000210024002700D8
:1002B0002A002D0030003300010100000401070175
:1002C0000A0100002200250028002B002E0031002A
:1002D000340002010000050108010B0100002000AC
:1002E0002300260029002C002F003200000100000E
:1002F00003010601090105050505070508080808A9
:10030000020202020A0A08080404040401010101AD
:1003100001010101030303030303030304070707A8
:100320000C0C0C0C0C0C0C0C02020202060606064D
:10033000060606060B0B0B0B0B0B0B0B010210201A
:10034000200808102040102040800201020108040B
:10035000020101020408102040808040201008049F
:1003600002018004020180402010080402010804F8
:10037000020101020408102040800102040810203C
:10038000408000000A0B02090C0D0E08070304014F
:10039000000000000000000000000000000000005D
:1003A000000000000000000000000000000012112A
:1003B000100000000000000000000000000000002D
:1003C00000000000000000000406205F00000003A1
:1003D000A000C00C00F94F806BEB00988C8052A5F8
:1003E0008003000001C88089C00050850021C20040
:1003F000084000208200002000188C00FA2F804B5B
:10040000E0805A66808AA500E08F80EAAB0072A97E
:10041000009A8C00FAAF804AA70001400009400012
:1004200021488051450089420042660072A6807AC8
:100430008780FAA500722500FA2700FAA880FA88BA
:1004400000722B00F88F808BE8808BE800F88D809D
:10045000F82080F90F80F9CF80722700FA840072AB
:100460002740FA85804AA90083E800F02F00E06E5B
:1004700000F0EF00D88D80C0EC009AAC8003E880DB
:10048000C081808BE000420400082080020400311B
:100490002380F92300312480312F8031628023EAC8
:1004A00000255380F9038002E00006E000F8428056
:1004B00003E0007987803903803123007D230031F8
:1004C00027C078840029400043E40070270060665C
:1004D0000070670048C48074578059E68023E88024
:1004E0000360008BE200610C0000491911241FBE5B
:1004F000CFEFD1E2DEBFCDBF00E00CBF16E0A0E041
:10050000B2E0E4EBF4E300E00BBF02C007900D9211
:10051000A635B107D9F727E0A6E5B6E001C01D92E0
:10052000A53CB207E1F712E0C6E7D2E000E006C062
:1005300021970109802FFE010E94491AC537D10772
:1005400080E00807A9F70E9482190C94581A0C94AD
:100550000000AF92BF92CF92DF92EF92FF920F9383
:100560001F93CF93DF936C017B018B01040F151F49
:10057000EB015E01AE18BF08C017D10759F06991B1
:10058000D601ED91FC910190F081E02DC601199505
:10059000892B79F7C501DF91CF911F910F91FF90C2
:1005A000EF90DF90CF90BF90AF900895FC01538DF6
:1005B000448D252F30E0842F90E0821B930B54173D
:1005C00010F0CF96089501970895FC01918D828DCA
:1005D000981761F0A28DAE0FBF2FB11D5D968C9163
:1005E000928D9F5F9F73928F90E008958FEF9FEFA2
:1005F0000895FC01918D828D981731F0828DE80F5E
:10060000F11D858D90E008958FEF9FEF0895FC0117
:10061000918D228D892F90E0805C9F4F821B9109E4
:100620008F73992708958CE197E00E94070321E0DA
:10063000892B09F420E0822F0895FC01A48DA80FD6
:10064000B92FB11DA35ABF4F2C91848D90E0019614
:100650008F739927848FA689B7892C93A089B18934
:100660008C91837080648C93938D848D981306C0D5
:100670000288F389E02D80818F7D80830895EF9239
:10068000FF920F931F93CF93DF93EC0181E0888F4C
:100690009B8D8C8D98131AC0E889F989808185FF1C
:1006A00015C09FB7F894EE89FF896083E889F989BE
:1006B00080818370806480839FBF81E090E0DF91C0
:1006C000CF911F910F91FF90EF900895F62E0B8D13
:1006D00010E00F5F1F4F0F731127E02E8C8D8E11CE
:1006E0000CC00FB607FCFACFE889F989808185FF35
:1006F000F5CFCE010E941D03F1CFEB8DEC0FFD2F46
:10070000F11DE35AFF4FF0829FB7F8940B8FEA89EF
:10071000FB8980818062CFCFCF93DF93EC01888DFE
:100720008823B9F0AA89BB89E889F9898C9185FD6C
:1007300003C0808186FD0DC00FB607FCF7CF8C91FA
:1007400085FFF2CF808185FFEDCFCE010E941D0392
:10075000E9CFDF91CF91089580E090E0892B29F0D7
:100760000E94130381110E94000080E090E0892B19
:1007700049F080E090E0892B29F00E94000081116F
:100780000E94000080E090E0892B49F080E090E03A
:10079000892B29F00E94000081110E94000080E056
:1007A00090E0892B49F080E090E0892B29F00E94AD
:1007B000000081110C94000008958150823108F0EE
:1007C0005AC0E82FF0E08827E751FC4F8F4F0C9478
:1007D000491A09040D04FB03010405043B04100439
:1007E00016041A042004240428042E0432043B04B2
:1007F00036043C044004809180008F778093800011
:100800000895809180008F7DF9CF80918000877F4F
:10081000F5CF84B58F7784BD089584B58F7DFBCFE8
:100820008091B0008F778093B00008958091B000E0
:100830008F7DF9CF809190008F77809390000895FD
:10084000809190008F7DF9CF80919000877FF5CFC8
:100850008091A0008F778093A00008958091A000E0
:100860008F7DF9CF8091A000877FF5CF8091200107
:100870008F77809320010895809120018F7DF9CF9B
:1008800080912001877FF5CFCF93DF93282F30E031
:10089000F901EE57FC4F8491F901E45CFC4FD491CF
:1008A000F901EA50FD4FC491CC23A1F081110E94BF
:1008B000DD03EC2FF0E0EE0FFF1FE452FD4FA5919A
:1008C000B491EC91ED2381E090E009F480E0DF91B8
:1008D000CF91089580E090E0FACF1F93CF93DF93FC
:1008E000282F30E0F901EE57FC4F8491F901E45CC8
:1008F000FC4FD491F901EA50FD4FC491CC23A9F0EB
:10090000162F81110E94DD03EC2FF0E0EE0FFF1F88
:10091000EE53FD4FA591B4918FB7F894EC9111115E
:1009200008C0D095DE23DC938FBFDF91CF911F915C
:100930000895DE2BF8CFCF93DF9390E0FC01E45CC9
:10094000FC4F24918A509D4FFC0184918823C9F06B
:1009500090E0880F991FFC01E855FD4FA591B491D7
:10096000FC01EE53FD4FC591D49161110DC09FB7AD
:10097000F8948C91209582238C9388812823288356
:100980009FBFDF91CF910895623051F49FB7F894E3
:100990003C91822F809583238C93E8812E2BEFCF7F
:1009A0008FB7F894EC912E2B2C938FBFEACF863320
:1009B00008F0865320917B00982F9870277F922B08
:1009C00090937B008770806480937C0080917A0094
:1009D000806480937A0080917A0086FDFCCF8091BC
:1009E00078009091790008953FB7F8948091C806F7
:1009F0009091C906A091CA06B091CB0626B5A89BD6
:100A000005C02F3F19F00196A11DB11D3FBFBA2FA0
:100A1000A92F982F8827BC01CD01620F711D811D60
:100A2000911D42E0660F771F881F991F4A95D1F7E5
:100A3000089520919E06260F3327331F213231055A
:100A4000ECF42091F206FC0190E080E0243069F0A3
:100A500082E00895A0919E062191AC014458594F1F
:100A6000A40FB52FB11D2C930196861798F3809192
:100A70009E06680F60939E0680E0089581E00895C9
:100A80001092F20681E08093F1061092CC0661E0AC
:100A900084E10E946D0461E085E10E946D04E9EB50
:100AA000F0E080818E7F808380818D7F808388E4E9
:100AB0008093B80085E48093BC000895CF93DF93C2
:100AC00091E090937B068823B9F0C091B800D09153
:100AD000BA008091BC008A7B8093BC0060E084E116
:100AE0000E946D0460E085E10E946D040E94400553
:100AF000D093BA00C093B800DF91CF9108958F9240
:100B00009F92AF92BF92CF92DF92EF92FF920F939C
:100B10001F93CF93DF93D0911B07D13208F0D7C03A
:100B2000182FC0911A070E94F4046B017C01809178
:100B3000F20681116BC082E08093F2061093F106F9
:100B40008FEF8093F0061092EF06D093EE06AAEF97
:100B5000B6E0EEECF6E080E0D81391C01092CD063E
:100B60008091CD06CC0FC82BC093CD068091CC06CA
:100B7000813009F088C01092CC060E94F4046B0109
:100B80007C018091CD068093BB008091F40690910A
:100B9000F506A091F606B091F706892B8A2B8B2BD0
:100BA000A1F00E94F4040091F4061091F506209142
:100BB000F6063091F7066C197D098E099F09061714
:100BC00017072807390708F442C08091BC0083FD4D
:100BD000D8CF85EC8093BC000E94F4046B017C01AB
:100BE0008091F206823009F450C08091F0068F3F68
:100BF00009F46FC08091F006803209F46CC08091D6
:100C0000F006803309F469C084E026C08091F406C0
:100C10009091F506A091F606B091F706892B8A2BE4
:100C20008B2B09F484CF0E94F4048090F4069090FA
:100C3000F506A090F606B090F7066C197D098E09AE
:100C40009F0986169706A806B90608F070CF80910E
:100C5000F3060E945E0585E01092F90610921B07CC
:100C60001092F806DF91CF911F910F91FF90EF90B6
:100C7000DF90CF90BF90AF909F908F9008959D91FF
:100C800091938F5F69CF85EEA5CF8091F406909107
:100C9000F506A091F606B091F706892B8A2B8B2BCF
:100CA00009F49ECF0E94F4040091F4061091F50619
:100CB0002091F6063091F7066C197D098E099F097F
:100CC000061717072807390708F08ACFC0CF81E039
:100CD000C3CF80E0C1CF82E0BFCF83E0BDCF089516
:100CE00008950895E0917A0680917906E81730F426
:100CF000F0E0E75AF94F808190E008958FEF9FEF81
:100D0000089590917A06809179062FEF3FEF98171A
:100D100048F4E92FF0E0E75AF94F208130E09F5F77
:100D200090937A06C90108958091790690917A0688
:100D3000891B990B0895CF92DF92EF92FF920F9348
:100D40001F93CF93DF937C01CB018A012091F8069A
:100D5000222389F0EB016B01C40ED51ECC15DD05F5
:100D600069F06991D701ED91FC910190F081E02D3E
:100D7000C7011995F3CF642F0E941905C801DF91AF
:100D8000CF911F910F91FF90EF90DF90CF9008953A
:100D9000CF93DF931F92CDB7DEB769832091F8061A
:100DA0002223F9F020911B07203258F021E030E097
:100DB000FC013383228390E080E00F90DF91CF919C
:100DC00008958091F906E82FF0E0E650F94F9981F7
:100DD00090838F5F8093F90680931B0781E090E0FA
:100DE000ECCF61E0CE0101960E941905F7CF90E0AB
:100DF00080E00895DB01ED91FC9111970190F08165
:100E0000E02D682FCD0119941F93CF93DF93EC0150
:100E1000862F142F69817A819881906221E0209336
:100E2000F80690931A071092F90610921B070E9479
:100E3000FA0669817A81812F0E94FA0681E0DF91AA
:100E4000CF911F910C947F0564357105F8F4403300
:100E50005105E0F49A01E3E036952795EA95E1F72C
:100E6000A4E5A29FF001A39FF00D1124E60FF71F48
:100E7000E80FF91F4770552721E030E001C0220F2D
:100E80004A95EAF72095808D2823208F08956435B0
:100E90007105F0F440335105D8F49A01E3E036953A
:100EA0002795EA95E1F7A4E5A29FF001A39FF00D35
:100EB0001124E60FF71FE80FF91F4770552721E0AF
:100EC00030E001C0220F4A95EAF7808D822B808F97
:100ED0000895FC018685A085B1859C918095892324
:100EE0008C93A481B581411127C084859C91809504
:100EF00089238C9398E0A281B38167FF21C0238569
:100F00008C91822B8C93660F8285A081B1812C916C
:100F1000809582238C9300002285A081B1818C91E1
:100F2000822B8C93915039F796850084F185E02DC2
:100F30008081892B8083089594858C91892BD9CFCA
:100F400083852C9180958223DDCFEF92FF920F93C2
:100F50001F93CF93DF937C0120EFE21A2DEFF20A6B
:100F6000F7012081211117C0EC0140E060E40E94EC
:100F7000690740E060E8CE010E9469078E01085EC3
:100F80001F4FF80161918F0141E0CE010E94690776
:100F90000E151F05B1F7DF91CF911F910F91FF90B3
:100FA000EF90089530E020E02617370799F0FC0114
:100FB0008496DC0194975C91541309C083A181113C
:100FC00004C0842F0E9444040895838108952F5FF4
:100FD0003F4FEACF0895FC0101900020E9F73197D7
:100FE000AF01481B590BBC018CE197E00C94A9029E
:100FF000009711F00C94EB0790E080E00895CF93F8
:10100000DF930E94EB07EC0182E695E00E94EB077C
:101010008C0F9D1FDF91CF9108952F923F924F9299
:101020005F926F927F928F929F92AF92BF92CF9278
:10103000DF92EF92FF920F931F93CF93DF9300D035
:1010400000D000D01F92CDB7DEB79A8789872A01DA
:101050003E832D83FB0101900020E9F73197AF011A
:10106000461B570B5A8349835EE0451657E25506E7
:10107000B1F4DC0153962C91E981FA812E9FC001D5
:101080002F9F900D1124F4E54F2E512C481A590A28
:1010900057FE03C0FFEF4F1A5F0A559447947C83B5
:1010A0006B83312C212C49815A81241635060CF092
:1010B0000BC1A985BA8553969C915397929D300197
:1010C000939D700C1124640C751CEB81FC812191A3
:1010D000FC83EB8354968C91549755963C91231B3B
:1010E000330B482F477009F078C086958695869512
:1010F000899FC0011124829FA001839F500D929F60
:10110000500D1124CA01049698878F838D809E808C
:10111000D12CC12CA985BA8554968C91869586953B
:1011200086958C151D0409F00CF4CAC0AF80B884F4
:101130008301E985FA852389C8018619970928174B
:10114000190609F00CF442C0F12CE12CA985BA85EE
:1011500053968C9153978C9DF0018D9DF00D112429
:10116000CF018A0D9B1D5196ED91FC915297E80F8E
:10117000F91FE49157968C915797A701480D591D77
:10118000F0E00E2C02C0F595E7950A94E2F7B8015D
:10119000E0FF06C0811106C0CD010E94470706C0CE
:1011A000811111C089859A850E942407BFEFEB1A2F
:1011B000FB0AE8E0EE16F10449F60F5F1F4FFFEF60
:1011C000AF1ABF0AB6CF89859A85E7CF4FEFC41A09
:1011D000D40A58E0850E911C9DCF989FC001112420
:1011E00043E0959587954A95E1F7829F6001839F3B
:1011F000D00C929FD00C112484E0C80ED11CA9857C
:10120000BA855196ED91FC91EC0DFD1DE4910E2FE8
:1012100010E0730157E0A52EB12CE985FA852389EA
:10122000C701861997092817190609F00CF448C058
:10123000912C812CA985BA8554968C915497881548
:101240001904D1F1CCF157968C9157974D815E815D
:10125000480D591D98010A2C02C0359527950A940E
:10126000E2F7B70120FF06C0811106C0CD010E9440
:10127000470706C081111DC089859A850E942407F1
:10128000B1E0AB1AB108B7FE10C0EFEFCE1ADE0A1C
:10129000A985BA855196ED91FC91EC0DFD1DE49167
:1012A0000E2F10E087E0A82EB12CBFEF8B1A9B0AFF
:1012B000C1CF89859A85DBCFEFEFEE1AFE0AADCF5D
:1012C000FFEF2F1A3F0AEFCE2A960FB6F894DEBF33
:1012D0000FBECDBFDF91CF911F910F91FF90EF9087
:1012E000DF90CF90BF90AF909F908F907F906F9046
:1012F0005F904F903F902F900895CF93DF93EB0135
:10130000FB0178969B01205F3D4F1192E217F30796
:10131000E1F7E8ECF3E0FA8BE98BE491EB8BE9EC95
:10132000F3E0E491EC8BEAECF3E0E491ED8BEBEC91
:10133000F3E0E491EE8B1F8A813009F148F08230AE
:1013400071F124E130E04EE057E26AEA75E00FC047
:1013500030E020E04EE057E265E675E0CE010E9405
:101360000D0829E130E04EE057E263E775E0CE0179
:101370000E940D08CE01DF91CF910C94A50730E0BB
:1013800020E04EE057E261E875E0CE010E940D08D2
:1013900029E130E04EE057E26FE875E0E8CF30E059
:1013A00020E04EE057E26DE975E0E1CF2F923F92E9
:1013B0004F925F926F927F928F929F92AF92BF9265
:1013C000CF92DF92EF92FF920F931F93CF93DF9311
:1013D000CDB7DEB7E8970FB6F894DEBF0FBECDBF2E
:1013E0009EAB8DAB2A013B01190118AF0FAB411425
:1013F00051046104710431F580E389831A822FA9B5
:1014000038ADA101BE016F5F7F4F8DA99EA90E94DB
:101410000D08E8960FB6F894DEBF0FBECDBFDF9182
:10142000CF911F910F91FF90EF90DF90CF90BF90E1
:10143000AF909F908F907F906F905F904F903F9074
:101440002F9008958E01045E1F4F78018AE0882E48
:10145000912CA12CB12CC301B201A50194010E94D1
:10146000E51920E3260FD7012D937D016D01C01AE8
:10147000D10AA3019201261B370B480B590BCA0155
:10148000B901A50194010E94E51929013A0141140D
:10149000510461047104F9F6C8018C0D9D1DDC0135
:1014A0001C92FE0131969F010817190729F0DC01F3
:1014B0004E91CD014193F8CFC20ED31EF60110829A
:1014C0009ECFCF92DF92EF92FF920F931F93CF9315
:1014D000DF93CDB7DEB7A1970FB6F894DEBF0FBE8E
:1014E000CDBF282F30E050E040E019A28E010F5D03
:1014F0001F4F8AE0C82ED12CE12CF12CCA01B90172
:10150000A70196010E94041A605DF80162938F01A1
:10151000211531054105510589F790E080E03097AC
:1015200019F0CF010E94EB07A1960FB6F894DEBF29
:101530000FBECDBFDF91CF911F910F91FF90EF9024
:10154000DF90CF9008958F929F92AF92BF92CF92EB
:10155000DF92EF92FF920F931F93CF93DF93D82EDA
:10156000C92E7B0188EB95E00E94FF07CD2DDC2D75
:1015700010E000E088248A9483E0982EA12CB12CFE
:101580000E151F0509F44BC089810E94610A8DED7B
:1015900095E00E94F8078A81813061F588810E9478
:1015A000D70424E630E0DC010E94511AA501940121
:1015B0000E94E519822F0E94610A81EE95E00E9447
:1015C000F8078DED95E00E94F807CE0104960E9481
:1015D000F80782E695E00E94EB070D30110529F02F
:1015E000B8F4C80104970297B0F488EB95E00E9424
:1015F000FF0711C04881B7018D2D9C2D0E94D20795
:10160000882319F083EE95E0DACF88EE95E0D7CF06
:101610000431110551F30F5F1F4FA496B1CF88EB32
:1016200095E0DF91CF911F910F91FF90EF90DF90A8
:10163000CF90BF90AF909F908F900C94FF078F92A8
:101640009F92AF92BF92CF92DF92EF92FF920F9351
:101650001F93CF938C01862FD80111966D917C91A9
:1016600012979C91906221E02093F80690931A07BC
:101670001092F90610921B070E94FA0681E00E9460
:101680007F05F801C0810E94F4046B017C01809108
:10169000F206811165C081E08093F2068093F10625
:1016A0009FEF9093F0061092EF061092EE06809353
:1016B000CD068091CD06C062CC0FC82BC093CD065D
:1016C0008091CC06813009F08CC01092CC060E942B
:1016D000F4046B017C018091CD068093BB00809166
:1016E000F4069091F506A091F606B091F706892BC5
:1016F0008A2B8B2BA1F00E94F4048090F40690902A
:10170000F506A090F606B090F7066C197D098E09D3
:101710009F0986169706A806B90608F442C080916C
:10172000BC0083FDD8CF85EC8093BC000E94F404FC
:101730006B017C018091F206813009F454C08091E4
:10174000EF06811172C08091EF06AEECB6E0E9E5DC
:10175000F6E090E0981751F12D9121939F5FFACF19
:101760008091F4069091F506A091F606B091F706E7
:10177000892B8A2B8B2B09F48ACF0E94F40480904A
:10178000F4069090F506A090F606B090F7066C1956
:101790007D098E099F0986169706A806B90608F0E6
:1017A00076CF8091F3060E945E0580E010927A0663
:1017B00080937906D80111968D919C91DC01ED9171
:1017C000FC910284F385E02D1995CF911F910F9123
:1017D000FF90EF90DF90CF90BF90AF909F908F9051
:1017E000089585EEA1CF8091F4069091F506A09121
:1017F000F606B091F706892B8A2B8B2B09F49ACF2A
:101800000E94F4048090F4069090F506A090F606ED
:10181000B090F7066C197D098E099F098616970608
:10182000A806B90608F086CFBCCF81E08ECFFF9224
:101830000F931F93CF93DF93EC01162F042F862F66
:101840008770F82E64E1183008F065E1CE010E943F
:101850001F0B41E050E060E070E004C0440F551FF2
:10186000661F771FFA94D2F7002369F0482B62E1D4
:10187000183008F063E1CE01DF91CF911F910F91F5
:10188000FF900C94040740954823F1CFCF93DF934A
:10189000CDB7DEB7CD53D7400FB6F894DEBF0FBE3D
:1018A000CDBF8CEFE0E0F2E0DE01A454BA4F01902E
:1018B0000D928A95E1F784E2ECEFF2E0DE01A854A4
:1018C000B94F01900D928A95E1F784E2E0E2F3E0EE
:1018D000DE01A452B94F01900D928A95E1F79E0165
:1018E0002F5F3F4FC05ED84F39832883C052D74007
:1018F00088EA93E0D901FC011D923197E9F720E1D4
:1019000029831AE01A8394E09B838EE0E4E4F3E0F9
:10191000DE01159601900D928A95E1F7FE0173960E
:1019200081E1DF011D928A95E9F781E08CA33EE019
:101930003DA33BE03EA39FA344E1E3E6F3E0DE01E9
:10194000999601900D924A95E1F7FE01FD96DF010F
:101950001D923A95E9F729968FAF299733E12A9698
:101960003FAF2A970CE02B960FAF2B972C969FAF8B
:101970002C9736E1E2E8F3E0DE01A35BBF4F019074
:101980000D923A95E1F779E0EDE4F0E0EC0FFD1F00
:101990007696DF01C72E1D92CA94E9F7AD968FAFF8
:1019A000AD973FE0AE963FAFAE974DE0AF964FAFED
:1019B000AF97E0969FAFE09747E1E1EAF3E0DE0101
:1019C000AF58BF4F01900D924A95E1F7E1E7F0E083
:1019D000EC0FFD1F779648E0DF011D924A95E9F76D
:1019E000C057DF4F8883C059D0404EE1C752DF4F08
:1019F0004883C95DD04044E1C652DF4F4883CA5D89
:101A0000D040C552DF4F9883CB5DD040E0ECF3E08F
:101A1000DE01A352BF4F422F01900D924A95E1F78C
:101A2000EDEDF0E0EC0FFD1F7096DF01C32E1D926F
:101A3000CA94E9F7C450DF4F8883CC5FD0404CE1B3
:101A4000C350DF4F4883CD5FD04045E1C250DF4FE8
:101A50004883CE5FD040C150DF4F9883CF5FD040E6
:101A6000EFEDF3E0DE01AF5FBE4F422F01900D922C
:101A70004A95E1F7E1E0F1E0EC0FFD1F7096DF0120
:101A8000C32E1D92CA94E9F7C05EDE4F8883C05210
:101A9000D140EAE1DE2ECF5DDE4FD882C152D14087
:101AA00066E1CE5DDE4F6883C252D140CD5DDE4F30
:101AB0009883C352D140EEEFF3E0DE01AB5DBE4F41
:101AC000422F01900D924A95E1F7E5E2F1E0EC0F2B
:101AD000FD1F7096DF01C32E1D92CA94E9F7CC5BFF
:101AE000DE4F8883C454D14058E1CB5BDE4F58832E
:101AF000C554D140F7E1EF2ECA5BDE4FE882C654F1
:101B0000D140C95BDE4F9883C754D140EDE1F4E08A
:101B1000DE01A75BBE4F422F01900D924A95E1F77F
:101B2000E9E4F1E0EC0FFD1F7096DF01C32E1D927A
:101B3000CA94E9F7C859DE4F8883C856D140C759BF
:101B4000DE4F6883C956D140C659DE4F5883CA5606
:101B5000D140C559DE4F9883CB56D140ECE3F4E039
:101B6000DE01A359BE4F422F01900D924A95E1F735
:101B7000EDE6F1E0EC0FFD1F7096DF01C32E1D9224
:101B8000CA94E9F7C457DE4F8883CC58D140ABE103
:101B9000FA2EC357DE4FF882CD58D14049E1C257E3
:101BA000DE4F4883CE58D140C157DE4F9883CF587F
:101BB000D140EBE5F4E0DE01AF56BE4FC22E0190FE
:101BC0000D92CA94E1F7E1E9F1E0EC0FFD1F709688
:101BD000DF01C32E1D92CA94E9F7C055DE4F8883FA
:101BE000C05BD140CF54DE4F4883C15BD140CE545F
:101BF000DE4FD882C25BD140CD54DE4F9883C35BA9
:101C0000D140EAE7F4E0DE01AB54BE4FD22E0190A2
:101C10000D92DA94E1F7E5EBF1E0EC0FFD1F709621
:101C2000DF01C32E1D92CA94E9F7CC52DE4F8883A0
:101C3000C45DD140CB52DE4FE882C55DD140CA526F
:101C4000DE4FF882C65DD140C952DE4F9883C75D32
:101C5000D140E9E9F4E0DE01A752BE4F922F019096
:101C60000D929A95E1F7E9EDF1E0EC0FFD1F70960A
:101C7000DF01C32E1D92CA94E9F7C850DE4F888356
:101C8000C85FD14096E3CB50DD4F9883C55FD2400B
:101C900098E2CA50DD4F9883C65FD240C950DD4FED
:101CA0008883C75FD240E8EBF4E0DE01A750BD4F68
:101CB00001900D922A95E1F7E9EFF2E0EC0FFD1F9C
:101CC0007096DF011D923A95E9F797E3C75EDC4F06
:101CD0009883C951D34099E2C65EDC4F9883CA51BC
:101CE000D340C55EDC4F8883CB51D340E7EDF4E0B1
:101CF000DE01A35EBC4F01900D926A95E1F7EDE124
:101D0000F3E0EC0FFD1F7696DF011D927A95E9F75F
:101D100098E3C35CDC4F9883CD53D3409AE2C25C16
:101D2000DC4F9883CE53D340C15CDC4F8883CF53C4
:101D3000D340E6EFF4E0DE01AF5BBC4F01900D92C3
:101D40005A95E1F7E1E4F3E0EC0FFD1F789697E098
:101D5000DF011D929A95E9F799E3CF59DC4F9883FB
:101D6000C156D3409BE2CE59DC4F9883C256D34034
:101D7000CD59DC4F8883C356D3409FE1E6E3F6E0BC
:101D8000DE01AB59BC4F01900D929A95E1F79AE3B1
:101D9000CB57DC4F9883C558D3409CE2CA57DC4FE1
:101DA0009883C658D340C957DC4F8883C758D3405F
:101DB000E5E1F5E0DE01A757BC4F01900D924A9591
:101DC000E1F7B6E0DB2EE9E8F3E0EC0FFD1F7996D2
:101DD000DF01CD2C1D92CA94E9F784E2E65CFC4F4A
:101DE000DE01AF56BF4F01900D928A95E1F784E274
:101DF000FE01E854F94FDE01AB54BF4F01900D9244
:101E00008A95E1F784E2FE01E454FA4FDE01A7501F
:101E1000BE4F01900D928A95E1F784E2ECEBF5E07C
:101E2000EC0FFD1FB496DE01A35EBD4F01900D9235
:101E30008A95E1F784E2FE01EC5FF94FDE01AF5BCA
:101E4000BD4F01900D928A95E1F784E2FE01E85DB5
:101E5000F94FDE01AB59BD4F01900D928A95E1F724
:101E600084E2FE01E45BF94FDE01A757BD4F01900C
:101E70000D928A95E1F784E2FE01E059F94FDE0107
:101E8000A355BD4F01900D928A95E1F784E2FE01C2
:101E9000EC56F94FDE01AF52BD4F01900D928A957D
:101EA000E1F7E9E2F3E0E491F0E0EE0FFF1FEE531B
:101EB000FD4F859194917E0127E5E21A2CEFF20AFD
:101EC000D70111969C938E93EFE6F3E0E4911A9676
:101ED000EC931A97EFEFF2E0E491F0E0EE0FFF1FC2
:101EE000EE53FD4F85919491F70193838283E5E44E
:101EF000F3E0E4911B96EC931B97E0E0F3E0E491B0
:101F0000F0E0EE0FFF1FEE53FD4F85919491F70126
:101F100095838483E6E4F3E0E4911C96EC931C97AC
:101F2000E2E0F3E0E491F0E0EE0FFF1FEE53FD4F2F
:101F300085919491F70197838683E8E4F3E0E49137
:101F40001D96EC931D97E1E0F3E0E491F0E0EE0FD5
:101F5000FF1FEE53FD4F85919491F7019187808784
:101F6000E7E4F3E0E4911E96EC9361E083E30E94E2
:101F70009B0461E089E00E949B0461E08AE00E948A
:101F80009B0461E08CE00E949B0461E08BE00E9476
:101F90009B0483E3F7018787008BC35ED84F1882C9
:101FA000CD51D74089EB97E0C25ED84F99838883A3
:101FB000CE51D74010927A06109279061092F90607
:101FC00010921B070E9440058FE696E090939D06B5
:101FD00080939C0680E796E09093A1068093A006EC
:101FE0004FEF60E0CE01835E984F0E9404074FEFF1
:101FF00061E0CE01835E984F0E940407E4E3F5E0C0
:10200000DE01B95F01900D921A95E1F7E0912C077E
:10201000F0912D0782E08083E0912807F091290755
:102020001082E0912A07F0912B078FEC80831092A9
:102030003407E0913007F0913107D082E0912E070C
:10204000F0912F07808180618083E0912E07F091CD
:102050002F07808188608083E0912E07F0912F0701
:10206000808180688083E0912E07F0912F07808126
:102070008F7D80839E012F5F3F4F1901D101129602
:102080008C911297843031F493966C9193978C9144
:102090000E949B04F10183A1813021F460E08081E2
:1020A0000E946D04F4E22F0E311C2E143F0431F710
:1020B000A12C67E0B62EAC0EBD1E2AE0A20EB11C0C
:1020C000AE01595F6A01412C512C32014394D60173
:1020D0001D916D0101E0183008F400E0602FCE0181
:1020E000835E984F0E941F0B912F9770B301A2013E
:1020F00004C0440F551F661F771F9A95D2F740956D
:102100004823602FCE01835E984F0E94040782EF20
:10211000810F823038F440E0612FCE01835E984F0A
:102120000E94170CAC14BD0491F6C854D94F4881D5
:10213000C85BD64061E070E0CE018854994F0E94A0
:10214000D207C85DD84F8883C852D74041E081305C
:1021500009F040E06DE0CE01835E984F0E94170CBD
:10216000FE01E65FF84F4F019E0124543A4F59019A
:10217000D12CC12CD5014C9167E070E0CE01845484
:102180009A4F0E94D207F40181934F0141E08823C6
:1021900019F0813069F440E0E0E0F7E0EC0FFD1F5A
:1021A000EC0DFD1D6081CE01835E984F0E94170CDF
:1021B000FFEFCF1ADF0A24E2A20EB11C37E0C316EC
:1021C000D104C1F660E085E30E949B0460E08BE3EC
:1021D0000E949B0481E080936B0080916800816085
:1021E00080936800109280008091810083608093CA
:1021F0008100809181008B7F8093810084E294EF45
:1022000090938900809388001092B0008091B10073
:1022100087608093B1008EEF8093B30078948DEE49
:1022200095E00E94FF076AE170E0CE0101960E94EE
:10223000A30AD7011C968C911C971496ED91FC91E2
:1022400015979081892B80831B968C911B971296F2
:10225000ED91FC9113979081892B80831A968C9134
:102260001A97ED91FC9111979081892B80831E968E
:102270008C911E971896ED91FC9119979081892B5E
:1022800080831D968C911D971696ED91FC919081FF
:102290008095892380830E94F4042B013C015AE03D
:1022A000852E912CA12CB12C0E94F404641975097F
:1022B00086099709683E734081059105A8F3B1E04E
:1022C0008B1A9108A108B108E8EE4E0EE3E05E1EFD
:1022D000611C711C81149104A104B10429F7D70178
:1022E0001D968C911D971696ED91FC919081892BEE
:1022F000808340E061E2C7010E94690740E06CEB27
:10230000C7010E94690740E066E0C7010E946907B3
:1023100040E063E1C7010E94690740E060E2C70155
:102320000E94690740E060E4C7010E94690740E03D
:1023300060E8C7010E94690740E06CE0C7010E94A5
:102340006907F70178968E0107541A4F11920E17FC
:102350001F07E1F7C7010E94A507F701128A118A3A
:10236000D8011C928CE390E0C654DA4F998388839D
:10237000CA5BD540B70180E00E947D09CE5DD84F91
:102380001882C252D740B1E0C75DD84FB883C95256
:10239000D74010E0C95DD84F1882C752D740ECEB48
:1023A000F5E0EC0FFD1FE450FF4FCB5CD84FF983F5
:1023B000E883C553D74044244A9443E0542E612C0B
:1023C000712C4E01FFEE8F1AF8EF9F0A94012A5FDD
:1023D0003F4FC45CD84F39832883CC53D740C8546F
:1023E000D94F4881C85BD64061E070E0CE01885487
:1023F000994F0E94D207C85DD84FC880C852D740B5
:102400008C15C1F0C854D94F4881C85BD64061E0F3
:1024100070E0CE018854994F0E94D207C85DD84F12
:102420008883C852D740482F6DE0CE01835E984F15
:102430000E94170C9E01395F6901AE01465F584F3B
:102440005A01BE0164547A4F7B01D7014C9167E079
:1024500070E0CE0184549A4F0E94D207F501919109
:102460005F018917B9F0D7014C9167E070E0CE01A8
:1024700084549A4F0E94D207F50131978083F60168
:10248000608140E0813009F041E0CE01835E984FE9
:102490000E94170CF4E2EF0EF11C2FEFC21AD20AC1
:1024A000CB5CD84F48815981C553D7404E155F0545
:1024B00061F680915806882309F458C0C75DD84F4B
:1024C000C880C952D740CC2061F0809168008B7FD2
:1024D00080936800109285001092840082E08093BF
:1024E0006F0080915706882309F445C280917000DF
:1024F0008D7F8093700080916F008D7F80936F003F
:1025000080915706823019F58BE30E944404182FFE
:10251000882381F0CE5DD84F2881C252D740223027
:1025200009F417C22F5FCE5DD84F2883C252D7401F
:1025300010E00DC0CE5DD84FC880C252D740CC202D
:1025400009F40DC2CE5DD84F1882C252D740109206
:102550005706809168008460809368001092580646
:1025600031E0C75DD84F3883C952D74011110FC031
:10257000BE0167557C4FCE5DD84F8881C252D7408F
:102580000E947D098091700082608093700080912C
:102590005606843108F430C1CE5DD84F4881C2520E
:1025A000D740413009F4EDC1423009F4F9C188E364
:1025B0000E94D70424E630E0DC010E94511AA301F6
:1025C00092010E94E519890187E30E94D70424E65D
:1025D00030E0DC010E94511AA30192010E94E5192A
:1025E000C65DD84F39832883CA52D740C80164E6F4
:1025F00070E00E94351A262FECE6F1E0C654DC4F5D
:10260000F983E883CA5BD340E491C454DC4FE88388
:10261000CC5BD340EDE6F1E0E491C354DC4FE883BA
:10262000CD5BD340EEE6F1E0E491C254DC4FE883A9
:10263000CE5BD340EFE6F1E0E491C154DC4FE88398
:10264000CF5BD340C054DC4F1882C05CD340462FD0
:1026500050E070E060E0C45DD84F488359836A83DE
:102660007B83CC52D7403AE0A32EB12CC801B501F0
:102670000E94351A5AE0529F60191124C62ED12C9F
:10268000F12CE12C9C0150E040E0C05DD84F288344
:1026900039834A835B83C053D740CE5DD84F38819E
:1026A000C252D740323009F477C0C65DD84F888116
:1026B0009981CA52D74064E670E00E94351ACC5C1A
:1026C000D84F6883C453D740C95CD84F6883C75379
:1026D000D74007E010E024E130E0C45DD84F4881E6
:1026E00059816A817B81CC52D740CE0187559C4F5E
:1026F0000E94D60923E230E0B701A601CE0187553A
:102700009C4F0E94D60920E330E0C05DD84F48813D
:1027100059816A817B81C053D740CE0187559C4F38
:102720000E94D609C95CD84F8881C753D740482F2B
:1027300050E070E060E001E210E024E130E0CE0122
:1027400087559C4F0E94D609C65DD84F88819981D4
:10275000CA52D740B5010E94351A5C019AE0CC5CA0
:10276000D84FA881C453D7409A9F60191124462F8F
:1027700050E070E060E022E230E0CE0187559C4FEF
:102780000E94D609A50170E060E02FE230E0CE01A2
:1027900087559C4F0E94D60907E010E024E130E005
:1027A000C45DD84F488159816A817B81CC52D74022
:1027B000CE0187559C4F0E94D60922E230E0B70136
:1027C000A601CE0187559C4F0E94D6092FE230E02A
:1027D000C05DD84F488159816A817B81C053D74001
:1027E000CE0187559C4F0E94D609CE0187559C4F3C
:1027F0000E94A507109256068CE197E00E940703FD
:10280000C95DD84F0881C752D740181619060CF079
:1028100099C00F5F8CE197E00E94E502E7E1F7E0E5
:10282000EC0FFD1FC95DD84FC880C752D740EC0DD3
:10283000F11D8083682F8CE197E00E943F030630F2
:1028400069F0E7E1F7E0EC0FFD1FE00FF11D3197B4
:1028500080818D3019F08A3009F074C08091680051
:102860008B7F8093680080916F008D7F80936F00D5
:10287000809170008D7F8093700082E695E00E94C9
:10288000EB07D4011C9211961C92119712961C9280
:10289000129713961C92139714961C9214971596E0
:1028A0001C921597FE01E95EF84F9F012A5F3F4F8A
:1028B00081918D3021F08D932E173F07C9F7F401D8
:1028C0009081943609F081C0319680E09191911108
:1028D00081E0C45CD84FC880D980CC53D740CE1695
:1028E000DF06A1F7811120C08E010F5F1F4FD801B5
:1028F0008C91823109F062C061E00E946D04C85C75
:10290000D84F19830883C853D74081E0C85CD84F9B
:10291000E881F981C853D740838341E06FE0CE015D
:10292000835E984F0E94170C8091680084608093AA
:10293000680082E080936F008091700082608093D5
:10294000700000E011E0C95DD84F0883C752D7403E
:1029500046CDCE5DD84F1882C252D740E9CDCE5D6C
:10296000D84F1881C252D74022E0CE5DD84F28837D
:10297000C252D740ECCDC75DD84F1882C952D7405C
:10298000F5CD89E30E94D70424E630E0DC010E9403
:10299000511AA30192010E94E51989018AE315CE1B
:1029A00086E30E94D70424E630E0DC010E94511A3D
:1029B000A30192010E94E519890118CE0C5D1F4FF9
:1029C0002016310609F093CFA0CFD401FD01E819FC
:1029D000F9092D9180ED820F8A30C0F3E230F105C4
:1029E00009F08BC09053D40111968C918053BAE0BA
:1029F0009B9F800D1124982F9F3F09F44AC1DE014F
:102A0000119611968C911197981385C012968C91FE
:102A10001297843009F08EC093968C91882309F424
:102A20003AC182E0273709F08FC0A2E1B7E0AC0FCE
:102A3000BD1FAE0FBF1F8C918053823008F070C055
:102A400023E1C22E27E0D22ECC0EDD1EEC0DFD1DA3
:102A50002081211165C0FE013196218192130DC1A3
:102A6000D080CD5DD84FD882C352D740CA5DD84FF1
:102A70008883C652D7408E010F5F1F4FD8018C91BB
:102A8000CD5DD84FC880C352D7408C112AC1CA5DD2
:102A9000D84F6881C652D7408C2D0E946D04C65C09
:102AA000D84F19830883CA53D740CA5DD84FC8800E
:102AB000C652D740C65CD84FA881B981CA53D74007
:102AC0001396CC92CD5DD84F2881C352D7402E307B
:102AD00009F00EC14C2D6EE0CE01835E984F0E942E
:102AE000170CCC5DD84F1882C452D74031E0CB5D73
:102AF000D84F3883C552D74017CFE130F10511F4D4
:102B000090537ACFEF2B61F4913651F48FEF9FEF12
:102B1000E1E0F0E019C09496A215B30509F071CF79
:102B200080E296E00E94FF07CB5DD84F1882C55225
:102B3000D740FACE823009F474CF08F090C08823D1
:102B400079F3813009F091C0D401AE0FBF1F2C91F1
:102B5000223731F742E157E04C0F5D1FE40FF51FBC
:102B600020812111DDCF843008F097C0823008F039
:102B70009EC0813009F4A2C0FE0131968181981374
:102B8000A4C0C080CD5DD84FC882C352D740CA5DB3
:102B9000D84F1882C652D740CC5DD84FD880C45287
:102BA000D740DD2009F467CFCC5DD84F6881C4528F
:102BB000D740613009F0C4C088EB95E00E94FF0760
:102BC00080E096E00E94F807FE0131968081CD5D9D
:102BD000D84FC880C352D7408C11A8C081810E94B1
:102BE000610A8EE196E00E94F8078E010F5F1F4F89
:102BF000D8018C91CD5DD84FC880C352D7408C117D
:102C000004C0C80104960E94F8070C5D1F4F02150E
:102C1000130571F78EE196E00E94F80789E096E0CF
:102C20000E94F807CD5DD84F4881C352D7406AE172
:102C300070E0CE0101960E94D207882309F47DC07E
:102C400083EE95E00E94FF0788EB95E00E94FF0766
:102C500021E0CB5DD84F2883C552D74065CE833065
:102C600009F472CF8F3F09F46FCFCB5DD84FC88086
:102C7000C552D740C11090CF53CFB4962E163F0601
:102C800009F0EBCE2FEFCD5DD84F2883C352D7404C
:102C9000EDCE8FEF59CF83E057CF8F3F09F06CCF48
:102CA00063E0CC5DD84F6883C452D74065CF51E014
:102CB000CC5DD84F5883C452D7405ECF72E0CC5D14
:102CC000D84F7883C452D74057CFB496E215F30556
:102CD00009F054CF2FEFCD5DD84F2883C352D74092
:102CE00056CF0C5D1F4F0215130509F0C7CEDDCE80
:102CF000CD5DD84F4881C352D740423159F4CA5DA7
:102D0000D84F4881C652D7406FE0CE01835E984FBE
:102D10000E94170CCC5DD84F1882C452D74051E0A6
:102D2000CB5DD84F5883C552D740FECDB496E2153F
:102D3000F30509F04BCF8FEF52CF81E196E082CFC0
:102D4000CC5DD84F3881C452D740323009F053C0DF
:102D500088EB95E00E94FF0780E096E00E94F8076C
:102D6000FE0131968081CD5DD84FC880C352D740D7
:102D70008C113AC081810E94610A8EE196E00E9426
:102D8000F8078E010F5F1F4FD8018C91CD5DD84F92
:102D9000C880C352D7408C1104C0C80104960E9459
:102DA000F8070C5D1F4F0215130571F78EE196E0D1
:102DB0000E94F80785E196E00E94F807CD5DD84FA4
:102DC0008881C352D7400E94D70424E630E0DC015A
:102DD0000E94511AA30192010E94E519822F0E94BC
:102DE000610A81EE95E02ECFB4962E163F0609F0CB
:102DF000B9CF8FEFC0CF6AE170E0CE0101960E949B
:102E0000A30A33E0CC5DD84F3883C452D74041E0A9
:102E1000CB5DD84F4883C552D74086CD85ED809392
:102E2000BC008091F4069091F506A091F606B09151
:102E3000F7060796A11DB11D23E0B695A7959795B6
:102E400087952A95D1F72091BC0024FD03C01092EC
:102E5000F20608954091F4065091F5066091F60649
:102E60007091F706452B462B472B69F30097A10578
:102E7000B10541F025E32A95F1F700000197A1097A
:102E8000B109E1CF8091F3060C945E051F920F9279
:102E90000FB60F9211240BB60F922F933F934F93BF
:102EA0005F936F937F938F939F93AF93BF93EF93B2
:102EB000FF938CE197E00E941D03FF91EF91BF917A
:102EC000AF919F918F917F916F915F914F913F91C2
:102ED0002F910F900BBE0F900FBE0F901F90189563
:102EE0001F920F920FB60F9211240BB60F922F93D1
:102EF0008F939F93EF93FF93E0912C07F0912D0711
:102F00008081E0913207F091330782FD1DC09081EE
:102F1000809135078F5F8F7320913607821741F0BC
:102F2000E0913507F0E0E45EF84F958F8093350728
:102F3000FF91EF919F918F912F910F900BBE0F906A
:102F40000FBE0F901F9018958081F2CF1F920F92A5
:102F50000FB60F9211242F933F938F939F93AF93AC
:102F6000BF938091C4069091C506A091C606B0910A
:102F7000C7063091C30623E0230F2D3758F501967D
:102F8000A11DB11D2093C3068093C4069093C5066E
:102F9000A093C606B093C7068091C8069091C90653
:102FA000A091CA06B091CB060196A11DB11D8093D8
:102FB000C8069093C906A093CA06B093CB06BF91EA
:102FC000AF919F918F913F912F910F900FBE0F90D6
:102FD0001F90189526E8230F0296A11DB11DD2CF90
:102FE0001F920F920FB60F9211240BB60F922F93D0
:102FF0003F934F935F936F937F938F939F93AF9381
:10300000BF93EF93FF938091B900887F803609F4D6
:103010004DC008F040C0883209F4A9C028F58031BD
:1030200009F49DC0C8F4882309F4FBC0883009F472
:1030300096C0FF91EF91BF91AF919F918F917F913A
:103040006F915F914F913F912F910F900BBE0F9019
:103050000FBE0F901F901895883109F488C08032F8
:1030600041F78093F00614C0803409F49DC040F409
:103070008033B9F38833E9F68093F00685ECB0C06D
:10308000803509F485C0883509F496C0883489F6FE
:103090000E940E17CECF883909F48CC038F58837D6
:1030A00029F050F4883611F0803719F683E08093C8
:1030B000F2061092C20657C0883809F47BC08039E6
:1030C00019F0803809F0B5CF8091C206803208F03F
:1030D00071C0E091C20681E08E0F8093C20680919C
:1030E000BB00F0E0EE55F94F80833DC0803B39F0E6
:1030F000E0F4803A09F479C0883A09F09ACF84E084
:103100008093F20610929F0610929E06E0919C0614
:10311000F0919D06199580919E0681110FC081E066
:1031200080939E0610927C0609C0803C09F4A6CFCD
:10313000883C09F4A3CF883B09F07BCFE0919F0640
:1031400081E08E0F80939F06F0E0E458F94F808174
:103150008093BB0090919F0680919E0629C080912C
:10316000CD068093BB0085EC8093BC0062CF90912C
:10317000EF068091EE06981758F5E091EF0681E092
:103180008E0F8093EF06F0E0E253F94F8081E9CF94
:10319000E091EF0681E08E0F8093EF068091BB00F7
:1031A000F0E0E253F94F80839091EF068091EE06B4
:1031B0009817C8F285E8D8CFE091EF0681E08E0F2E
:1031C0008093EF068091BB00F0E0E253F94F8083DB
:1031D0008091F10681115CCF81E08093CC0684EA76
:1031E0008093BC001092F20624CF85EC8093BC0043
:1031F0001092F2068091C206803230F4E091C2064D
:10320000F0E0EE55F94F10826091C20670E0E09157
:10321000A006F091A10682EA96E019951092C206E6
:1032200008CF1092F00634CF1F920F920FB60F9274
:1032300011248F9381E0809358068F910F900FBED9
:103240000F901F9018951F920F920FB60F92112496
:103250008F93809156068F5F809356068F910F90C3
:103260000FBE0F901F9018951F920F920FB60F92DE
:1032700011248F93189B09C082E0809357068F9189
:103280000F900FBE0F901F9018951899F8CF81E0FE
:10329000F4CFECE1F7E01382128288EE93E0A0E035
:1032A000B0E084839583A683B78322E435E031833D
:1032B000208325EC30E03587248724EC30E0378705
:1032C000268720EC30E0318B208B21EC30E0338BF3
:1032D000228B22EC30E0358B248B26EC30E0378BD0
:1032E000268B118E128E138E148EE9EBF7E013826B
:1032F000128284839583A683B78384E595E09183C6
:1033000080830895789484B5826084BD84B581609B
:1033100084BD85B5826085BD85B5816085BDEEE6DD
:10332000F0E0808181608083E1E8F0E010828081BC
:1033300082608083808181608083E0E8F0E080812A
:1033400081608083E1EBF0E0808184608083E0EB4A
:10335000F0E0808181608083E1E9F0E0808182603B
:103360008083808181608083E0E9F0E080818160FA
:103370008083E1EAF0E080818260808380818160E7
:103380008083E0EAF0E0808181608083E1E2F1E027
:10339000808182608083808181608083E0E2F1E0CF
:1033A000808181608083EAE7F0E0808184608083AF
:1033B0008081826080838081816080838081806859
:1033C00080831092C1000E94460C052E97FB1EF4CC
:1033D00000940E94FC1957FD07D00E94041A07FCB4
:1033E00003D04EF40C94FC195095409530952195DE
:1033F0003F4F4F4F5F4F0895909580957095619521
:103400007F4F8F4F9F4F0895A1E21A2EAA1BBB1B1F
:10341000FD010DC0AA1FBB1FEE1FFF1FA217B307A0
:10342000E407F50720F0A21BB30BE40BF50B661FB6
:10343000771F881F991F1A9469F76095709580957A
:1034400090959B01AC01BD01CF010895A29FB001F1
:10345000B39FC001A39F700D811D1124911DB29FC8
:10346000700D811D1124911D0895AA1BBB1B51E1F4
:1034700007C0AA1FBB1FA617B70710F0A61BB70BE4
:10348000881F991F5A95A9F780959095BC01CD0189
:103490000895EE0FFF1F881F8BBF0790F691E02D58
:1034A00019940E94261AB7FF0895821B930B089562
:0434B000F894FFCFBE
:1034B4003E1E0400506F77657220737570706C79CE
:1034C400206661756C74205B7768656E204C4F577D
:1034D4005D000000401F04004265616D20636F6C55
:1034E4006C696D61746F72206661756C74000000A4
:1034F400000000000000000041200400506F7765C8
:10350400722D616D702063757272656E74206661D0
:10351400756C7400000000000000000042210400EB
:103524005072652D616D70206375727265726E7470
:10353400206661756C74000000000000000000004B
:10354400432204004261736520706C6174652074C9
:10355400656D70206661756C7400000000000000E9
:10356400000000004423040053656564206C61730B
:1035740065722074656D70206661756C740000005E
:1035840000000000000000003F2404005265736541
:1035940072766564206661756C740000000000003A
:1035A400000000000000000000000000110F0400F3
:1035B4004C61736572207265616479205B7768651C
:1035C4006E20484947485D000000000000000000EC
:1035D400120E04004C617365722064697361626C3D
:1035E4006500000000000000000000000000000072
:1035F40000000001476C6F62616C20456E61626C73
:103604006500000000000000000000000000000051
:103614000000004C6173657220656D697373696F96
:103624006E20676174650000000000000000000067
:10363400000050756C7365642F4357206D6F64658B
:103644002073656C656374000000000000000000D6
:1036540000416C69676E6D656E74206C6173657290
:1036640020656E61626C65000000000000000000CF
:1036740053746174652073656C6563743A2030001B
:1036840000000000000000000000000000000053E3
:10369400746174652073656C6563743A203100004D
:1036A400000000000000000000000000000053744F
:1036B4006174652073656C6563743A2032000000A0
:1036C40000000000000000000000000000537461CE
:1036D40074652073656C6563743A203300000000E0
:1036E400000000000000000000000000537461743A
:1036F400652073656C6563743A2034000000000033
:1037040000000000000000000000005374617465B4
:103714002073656C6563743A203500000000000076
:103724000000000000000000000053746174652074
:1037340073656C6563743A20360000000000000075
:1037440000000000000000000053746174652073E1
:10375400656C6563743A20370000000000000000C7
:1037640000000000000000004261736520706C617D
:1037740074652074656D7000000000000000000096
:103784000000000000000050726520616D7020642C
:10379400696F64652063757272656E740000000061
:1037A400000000000000506F77657220616D70208A
:1037B40064696F64652063757272656E74000000DD
:1037C400000000000053696D6D65722063757272AC
:1037D400656E742073657420706F696E74000000E8
:1037E4000000000006070B0A09080C0D0F0E00006C
:1037F40000003F03A902D6028C030703E502F90285
:1038040000000000C8069B06F706710694068106B0
:1038140072060D0A00504F572D414D50204D4F4E0A
:103824004954005052452D414D50204D4F4E49545E
:1038340000504F572D414D5020532E20502E0050F4
:1038440052452D414D5020432E20502E00422D54E0
:10385400454D50204D4F4E495400446973706C617E
:1038640079206572726F72003D3D3D3D3D3D3D3DA9
:103874003D3D3D3D3D3D3D3D3D3D3D3D3D3D3D3D74
:103884003D3D3D3D3D3D3D3D3D3D3D3D00207C209C
:1038940000250048494748004C4F572000537461A5
:1038A40074757320706F637A61746B6F77793A0003
:1038B40050696E206E723A2000205374616E3A2073
:1038C400004C4F570020576172746F73633A2000A5
:1038D4004E69657072617769646C6F7761206B6F94
:1038E4006D656E6461004163746976652D5374611E
:1038F40074652063757272656E74207365742070CC
:063904006F696E74000003
:00000001FF
