:100000000C94B7020C94E8020C94E8020C94E802F9
:100010000C94E8020C94E8020C94E8020C94E802B8
:100020000C94E8020C94E5180C94E8020C94E80295
:100030000C94E8020C94F4180C94E8020C94E80276
:100040000C94E8020C9405190C94E8020C94E80254
:100050000C94E8020C94E8020C94E8020C947717D4
:100060000C94E8020C9441170C9417170C94E802B6
:100070000C94E8020C94E8020C94E8020C94E80258
:100080000C94E8020C94E8020C94E8020C94E80248
:100090000C94E8020C94E8020C94E8020C94C1174A
:1000A0000C94E8020C94E8020C94E8020C94E80228
:1000B0000C94E8020C94E8020C94E8020C94E80218
:1000C0000C94E8020C94E8020C94E8020C94E80208
:1000D0000C94E8020C94E8020C94E8020C94E802F8
:1000E0000C94E80207634236B79BD8A71A396856C2
:1000F00018AEBAAB558C1D3CB7CC5763BD6DEDFD4A
:10010000753EF6177231BF000000803F0800000006
:10011000BE922449123EABAAAA2ABECDCCCC4C3EFC
:1001200000000080BEABAAAAAA3E00000000BF00EB
:100130000000803F0000000000084178D3BB4387E7
:10014000D1133D190E3CC3BD4282AD2B3E68EC82FB
:1001500076BED98FE1A93E4C80EFFFBE01C4FF7F80
:100160003F00000000000C94DC060C94B0060C94D8
:1001700073040C941A190C9409070C9461040C94E0
:1001800026030C9417030C94B1060C944E040C94A3
:1001900080030C944A040C9446040C94B2060C940C
:1001A0003A030C94B3060C9465040C947D040C94EF
:1001B00038070C94C2060C9457040C9448030C9412
:1001C0006F040C94EA020C9477040C947C040C9455
:1001D00081040C945B040C9442040C94D5060C949A
:1001E0003C040C9451040C94CD030C9469040C1041
:1001F0002D0D0000008080808080800000000000C5
:1002000001030303030303010000000000000000DA
:100210000000000000000000000000C0C00000005E
:1002200000000000028686868686860200000000A6
:1002300081C3C3C3C3C3C381000000FC7A060606A2
:100240000606067AFC00007EBCC0C0C0C0C0C0BCB0
:100250007E0000000000000000000078FC000000AC
:10026000000000000000003C7E0000000286868640
:100270008686867AFC00007EBDC3C3C3C3C3C38128
:1002800000000000028686868686867AFC000000D2
:1002900081C3C3C3C3C3C3BD7E0000FC788080801C
:1002A00080808078FC000000010303030303033D0A
:1002B0007E0000FC7A868686868686020000000024
:1002C00081C3C3C3C3C3C3BD7E0000FC7A868686D8
:1002D000868686020000007EBDC3C3C3C3C3C3BD00
:1002E0007E000000020606060606067AFC000000F4
:1002F000000000000000003C7E0000FC7A8686863C
:100300008686867AFC00007EBDC3C3C3C3C3C3BD5B
:100310007E0000FC7A8686868686867AFC0000004F
:1003200081C3C3C3C3C3C3BD7E000000210024003A
:1003300027002A002D0030003300010100000401D5
:1003400007010A0100002200250028002B002E00D2
:100350003100340002010000050108010B0100001A
:1003600020002300260029002C002F00320000016D
:100370000000030106010901050505050705080838
:100380000808020202020A0A08080404040401011F
:100390000101010101010303030303030303040734
:1003A00007070C0C0C0C0C0C0C0C020202020606CB
:1003B0000606060606060B0B0B0B0B0B0B0B0102BE
:1003C0001020200808102040102040800201020167
:1003D000080402010102040810204080804020101F
:1003E0000804020180040201804020100804020178
:1003F00008040201010204081020408001020408E0
:100400001020408000000A0B02090C0D0E080703A3
:1004100004010000000000000000000000000000D7
:1004200000000000000000000000000000000000CC
:100430001211100000000000000000000000000089
:10044000000000000000000000000406205F000023
:100450000003A000C00C00F94F806BEB00988C806B
:1004600052A58003000001C88089C000508500218A
:10047000C200084000208200002000188C00FA2FE3
:10048000804BE0805A66808AA500E08F80EAAB004E
:1004900072A9009A8C00FAAF804AA70001400009B7
:1004A000400021488051450089420042660072A602
:1004B000807A8780FAA500722500FA2700FAA880C2
:1004C000FA8800722B00F88F808BE8808BE800F8A8
:1004D0008D80F82080F90F80F9CF80722700FA8490
:1004E00000722740FA85804AA90083E800F02F00B7
:1004F000E06E00F0EF00D88D80C0EC009AAC800375
:10050000E880C081808BE000420400082080020463
:1005100000312380F92300312480312F8031628023
:1005200023EA00255380F9038002E00006E000F88A
:10053000428003E0007987803903803123007D23E6
:10054000003127C078840029400043E40070270070
:1005500060660070670048C48074578059E6802345
:10056000E8800360008BE200610C00001A1911247E
:100570001FBECFEFD1E2DEBFCDBF00E00CBF16E063
:10058000A0E0B2E0E0E8FBE300E00BBF02C00790B0
:100590000D92AE37B107D9F727E0AEE7B6E001C05C
:1005A0001D92AD3EB207E1F712E0C7EBD2E000E0EA
:1005B00006C021970109802FFE010E94AF1DC63B96
:1005C000D10780E00807A9F70E9453190C94BE1DBB
:1005D0000C940000AF92BF92CF92DF92EF92FF9205
:1005E0000F931F93CF93DF936C017B018B01040F5B
:1005F000151FEB015E01AE18BF08C017D10759F0F7
:100600006991D601ED91FC910190F081E02DC60138
:100610001995892B79F7C501DF91CF911F910F9122
:10062000FF90EF90DF90CF90BF90AF900895FC01C6
:10063000538D448D252F30E0842F90E0821B930B47
:10064000541710F0CF96089501970895FC01918DED
:10065000828D981761F0A28DAE0FBF2FB11D5D96F0
:100660008C91928D9F5F9F73928F90E008958FEF92
:100670009FEF0895FC01918D828D981731F0828D46
:10068000E80FF11D858D90E008958FEF9FEF08959D
:10069000FC01918D228D892F90E0805C9F4F821B01
:1006A00091098F739927089584E497E00E94480385
:1006B00021E0892B09F420E0822F0895FC01A48D0C
:1006C000A80FB92FB11DA35ABF4F2C91848D90E074
:1006D00001968F739927848FA689B7892C93A08957
:1006E000B1898C91837080648C93938D848D9813E1
:1006F00006C00288F389E02D80818F7D8083089574
:10070000EF92FF920F931F93CF93DF93EC0181E061
:10071000888F9B8D8C8D98131AC0E889F989808108
:1007200085FF15C09FB7F894EE89FF896083E8893B
:10073000F98980818370806480839FBF81E090E02D
:10074000DF91CF911F910F91FF90EF900895F62EBA
:100750000B8D10E00F5F1F4F0F731127E02E8C8D54
:100760008E110CC00FB607FCFACFE889F989808199
:1007700085FFF5CFCE010E945E03F1CFEB8DEC0F2C
:10078000FD2FF11DE35AFF4FF0829FB7F8940B8FB6
:10079000EA89FB8980818062CFCFCF93DF93EC0120
:1007A000888D8823B9F0AA89BB89E889F9898C9159
:1007B00085FD03C0808186FD0DC00FB607FCF7CF15
:1007C0008C9185FFF2CF808185FFEDCFCE010E9415
:1007D0005E03E9CFDF91CF91089580E090E0892B0F
:1007E00029F00E94540381110E94000080E090E0F3
:1007F000892B49F080E090E0892B29F00E940000CD
:1008000081110E94000080E090E0892B49F080E097
:1008100090E0892B29F00E94000081110E940000C5
:1008200080E090E0892B49F080E090E0892B29F06E
:100830000E94000081110C940000089581508231C3
:1008400008F05AC0E82FF0E08827E65DFB4F8F4F95
:100850000C94AF1D4A044E043C04420446047C043C
:10086000510457045B046104650469046F04730454
:100870007C0477047D048104809180008F778093CD
:1008800080000895809180008F7DF9CF8091800055
:10089000877FF5CF84B58F7784BD089584B58F7D2C
:1008A000FBCF8091B0008F778093B0000895809146
:1008B000B0008F7DF9CF809190008F77809390006A
:1008C0000895809190008F7DF9CF80919000877F6F
:1008D000F5CF8091A0008F778093A000089580913C
:1008E000A0008F7DF9CF8091A000877FF5CF809108
:1008F00020018F77809320010895809120018F7DC2
:10090000F9CF80912001877FF5CFCF93DF93282FF8
:1009100030E0F901EC5FFB4F8491F901E254FC4FA8
:10092000D491F901E858FC4FC491CC23A1F0811176
:100930000E941E04EC2FF0E0EE0FFF1FE25AFC4F66
:10094000A591B491EC91ED2381E090E009F480E071
:10095000DF91CF91089580E090E0FACF1F93CF937D
:10096000DF93282F30E0F901EC5FFB4F8491F90110
:10097000E254FC4FD491F901E858FC4FC491CC23C8
:10098000A9F0162F81110E941E04EC2FF0E0EE0F4B
:10099000FF1FEC5BFC4FA591B4918FB7F894EC91DD
:1009A000111108C0D095DE23DC938FBFDF91CF916A
:1009B0001F910895DE2BF8CFCF93DF9390E0FC01D9
:1009C000E254FC4F249188589C4FFC018491882369
:1009D000C9F090E0880F991FFC01E65DFC4FA591DE
:1009E000B491FC01EC5BFC4FC591D49161110DC039
:1009F0009FB7F8948C91209582238C93888128232B
:100A000028839FBFDF91CF910895623051F49FB743
:100A1000F8943C91822F809583238C93E8812E2B30
:100A2000EFCF8FB7F894EC912E2B2C938FBFEACF9A
:100A3000863308F0865320917B00982F9870277F8B
:100A4000922B90937B008770806480937C008091D0
:100A50007A00806480937A0080917A0086FDFCCFD2
:100A6000809178009091790008953FB7F894809133
:100A7000F0069091F106A091F206B091F30626B52A
:100A8000A89B05C02F3F19F00196A11DB11D3FBFC6
:100A9000BA2FA92F982F8827BC01CD01620F711D95
:100AA000811D911D42E0660F771F881F991F4A958F
:100AB000D1F708952091C606260F3327331F213220
:100AC0003105ECF420911A07FC0190E080E024301D
:100AD00069F082E00895A091C6062191AC014C55C1
:100AE000594FA40FB52FB11D2C930196861798F37B
:100AF0008091C606680F6093C60680E0089581E085
:100B0000089510921A0781E0809319071092F40655
:100B100061E084E10E94AE0461E085E10E94AE04E0
:100B2000E9EBF0E080818E7F808380818D7F808300
:100B300088E48093B80085E48093BC000895CF9347
:100B4000DF9391E09093A3068823B9F0C091B80099
:100B5000D091BA008091BC008A7B8093BC0060E099
:100B600084E10E94AE0460E085E10E94AE040E9430
:100B70008105D093BA00C093B800DF91CF9108955A
:100B80008F929F92AF92BF92CF92DF92EF92FF929D
:100B90000F931F93CF93DF93D0914307D13208F087
:100BA000D7C0182FC09142070E9435056B017C0108
:100BB00080911A0781116BC082E080931A0710930D
:100BC00019078FEF8093180710921707D093160715
:100BD000A2E2B7E0E6EFF6E080E0D81391C0109211
:100BE000F5068091F506CC0FC82BC093F5068091D1
:100BF000F406813009F088C01092F4060E94350591
:100C00006B017C018091F5068093BB0080911C07ED
:100C100090911D07A0911E07B0911F07892B8A2B69
:100C20008B2BA1F00E94350500911C0710911D0728
:100C300020911E0730911F076C197D098E099F09AD
:100C4000061717072807390708F442C08091BC002F
:100C500083FDD8CF85EC8093BC000E9435056B01E5
:100C60007C0180911A07823009F450C080911807E6
:100C70008F3F09F46FC080911807803209F46CC06F
:100C800080911807803309F469C084E026C0809100
:100C90001C0790911D07A0911E07B0911F07892B7B
:100CA0008A2B8B2B09F484CF0E94350580901C077A
:100CB00090901D07A0901E07B0901F076C197D092A
:100CC0008E099F0986169706A806B90608F070CF08
:100CD00080911B070E949F0585E0109221071092CA
:100CE000430710922007DF91CF911F910F91FF9042
:100CF000EF90DF90CF90BF90AF909F908F9008952E
:100D00009D9191938F5F69CF85EEA5CF80911C0750
:100D100090911D07A0911E07B0911F07892B8A2B68
:100D20008B2B09F49ECF0E94350500911C07109172
:100D30001D0720911E0730911F076C197D098E0930
:100D40009F09061717072807390708F08ACFC0CF71
:100D500081E0C3CF80E0C1CF82E0BFCF83E0BDCFD1
:100D6000089508950895E091A2068091A106E817DC
:100D700030F4F0E0EF57F94F808190E008958FEF65
:100D80009FEF08959091A2068091A1062FEF3FEF6B
:100D9000981748F4E92FF0E0EF57F94F208130E041
:100DA0009F5F9093A206C90108958091A10690913A
:100DB000A206891B990B0895CF92DF92EF92FF92C2
:100DC0000F931F93CF93DF937C01CB018A01209176
:100DD0002007222389F0EB016B01C40ED51ECC1530
:100DE000DD0569F06991D701ED91FC910190F081E9
:100DF000E02DC7011995F3CF642F0E945A05C80151
:100E0000DF91CF911F910F91FF90EF90DF90CF90E6
:100E10000895CF93DF931F92CDB7DEB769832091FA
:100E200020072223F9F020914307203258F021E0D7
:100E300030E0FC013383228390E080E00F90DF916B
:100E4000CF91089580912107E82FF0E0EE5DF84FF3
:100E5000998190838F5F809321078093430781E07E
:100E600090E0ECCF61E0CE0101960E945A05F7CFE9
:100E700090E080E00895DB01ED91FC9111970190E5
:100E8000F081E02D682FCD0119941F93CF93DF934C
:100E9000EC01862F142F69817A819881906221E07C
:100EA0002093200790934207109221071092430746
:100EB0000E943B0769817A81812F0E943B0781E074
:100EC000DF91CF911F910C94C00564357105F8F442
:100ED00040335105E0F49A01E3E036952795EA9511
:100EE000E1F7A4E5A29FF001A39FF00D1124E60F06
:100EF000F71FE80FF91F4770552721E030E001C0C8
:100F0000220F4A95EAF72095808D2823208F089597
:100F100064357105F0F440335105D8F49A01E3E0EB
:100F200036952795EA95E1F7A4E5A29FF001A39FE6
:100F3000F00D1124E60FF71FE80FF91F4770552732
:100F400021E030E001C0220F4A95EAF7808D822B24
:100F5000808F0895FC018685A085B1859C91809540
:100F600089238C93A481B581411127C084859C91EC
:100F7000809589238C9398E0A281B38167FF21C07B
:100F800023858C91822B8C93660F8285A081B18101
:100F90002C91809582238C9300002285A081B181C1
:100FA0008C91822B8C93915039F796850084F18532
:100FB000E02D8081892B8083089594858C91892BE5
:100FC000D9CF83852C9180958223DDCFEF92FF923C
:100FD0000F931F93CF93DF937C0120EFE21A2DEF45
:100FE000F20AF7012081211117C0EC0140E060E412
:100FF0000E94AA0740E060E8CE010E94AA078E0185
:10100000085E1F4FF80161918F0141E0CE010E94FF
:10101000AA070E151F05B1F7DF91CF911F910F9110
:10102000FF90EF90089530E020E02617370799F001
:10103000FC018496DC0194975C91541309C083A150
:10104000811104C0842F0E9485040895838108952E
:101050002F5F3F4FEACF0895CF93DF93F0E0E0E0BA
:10106000E617F70749F0EC0184963881341308C07D
:10107000622F842F0E94AE04CE01DF91CF9108959C
:101080003196EECFFC0101900020E9F73197AF01D6
:10109000481B590BBC0184E497E00C94EA020097CA
:1010A00011F00C94420890E080E00895CF93DF9314
:1010B0000E944208EC018AE895E00E9442088C0FE9
:1010C0009D1FDF91CF9108952F923F924F925F9293
:1010D0006F927F928F929F92AF92BF92CF92DF9248
:1010E000EF92FF920F931F93CF93DF9300D000D026
:1010F00000D01F92CDB7DEB79A8789872A013E8339
:101100002D83FB0101900020E9F73197AF01461BC9
:10111000570B5A8349835EE0451657E25506B1F4F2
:10112000DC0153962C91E981FA812E9FC0012F9FFB
:10113000900D1124F4E54F2E512C481A590A57FEF0
:1011400003C0FFEF4F1A5F0A559447947C836B836B
:10115000312C212C49815A81241635060CF00BC103
:10116000A985BA8553969C915397929D3001939D82
:10117000700C1124640C751CEB81FC812191FC83A3
:10118000EB8354968C91549755963C91231B330BCB
:10119000482F477009F078C0869586958695899F77
:1011A000C0011124829FA001839F500D929F500D7A
:1011B0001124CA01049698878F838D809E80D12C3C
:1011C000C12CA985BA8554968C918695869586956D
:1011D0008C151D0409F00CF4CAC0AF80B8848301DB
:1011E000E985FA852389C801861997092817190600
:1011F00009F00CF442C0F12CE12CA985BA85539674
:101200008C9153978C9DF0018D9DF00D1124CF0191
:101210008A0D9B1D5196ED91FC915297E80FF91F95
:10122000E49157968C915797A701480D591DF0E00E
:101230000E2C02C0F595E7950A94E2F7B801E0FF9D
:1012400006C0811106C0CD010E94880706C0811129
:1012500011C089859A850E946507BFEFEB1AFB0ACA
:10126000E8E0EE16F10449F60F5F1F4FFFEFAF1AEB
:10127000BF0AB6CF89859A85E7CF4FEFC41AD40A43
:1012800058E0850E911C9DCF989FC001112443E02A
:10129000959587954A95E1F7829F6001839FD00CD1
:1012A000929FD00C112484E0C80ED11CA985BA8568
:1012B0005196ED91FC91EC0DFD1DE4910E2F10E087
:1012C000730157E0A52EB12CE985FA852389C70162
:1012D000861997092817190609F00CF448C0912CB3
:1012E000812CA985BA8554968C9154978815190438
:1012F000D1F1CCF157968C9157974D815E81480D75
:10130000591D98010A2C02C0359527950A94E2F7D9
:10131000B70120FF06C0811106C0CD010E948807D9
:1013200006C081111DC089859A850E946507B1E0BC
:10133000AB1AB108B7FE10C0EFEFCE1ADE0AA985CE
:10134000BA855196ED91FC91EC0DFD1DE4910E2FA7
:1013500010E087E0A82EB12CBFEF8B1A9B0AC1CFFB
:1013600089859A85DBCFEFEFEE1AFE0AADCFFFEF4E
:101370002F1A3F0AEFCE2A960FB6F894DEBF0FBEA3
:10138000CDBFDF91CF911F910F91FF90EF90DF9034
:10139000CF90BF90AF909F908F907F906F905F9015
:1013A0004F903F902F900895CF93DF93EB01FB0177
:1013B00078969B01205F3D4F1192E217F307E1F70A
:1013C000EAE4F4E0FA8BE98BE491EB8BEBE4F4E0F4
:1013D000E491EC8BECE4F4E0E491ED8BEDE4F4E0EB
:1013E000E491EE8B1F8A813009F148F0823071F16F
:1013F00024E130E04EE057E262ED75E00FC030E0EE
:1014000020E04EE057E26DE875E0CE010E946408EE
:1014100029E130E04EE057E26BE975E0CE010E9431
:101420006408CE01DF91CF910C94E60730E020E014
:101430004EE057E269EA75E0CE010E94640829E1B6
:1014400030E04EE057E267EB75E0E8CF30E020E0B7
:101450004EE057E265EC75E0E1CF2F923F924F925C
:101460005F926F927F928F929F92AF92BF92CF9234
:10147000DF92EF92FF920F931F93CF93DF93CDB73D
:10148000DEB7E8970FB6F894DEBF0FBECDBF9EABB8
:101490008DAB2A013B01190118AF0FAB4114510468
:1014A0006104710431F580E389831A822FA938AD74
:1014B000A101BE016F5F7F4F8DA99EA90E946408A4
:1014C000E8960FB6F894DEBF0FBECDBFDF91CF9187
:1014D0001F910F91FF90EF90DF90CF90BF90AF9052
:1014E0009F908F907F906F905F904F903F902F9044
:1014F00008958E01045E1F4F78018AE0882E912C9A
:10150000A12CB12CC301B201A50194010E94B11A12
:1015100020E3260FD7012D937D016D01C01AD10A5A
:10152000A3019201261B370B480B590BCA01B901C5
:10153000A50194010E94B11A29013A0141145104F4
:1015400061047104F9F6C8018C0D9D1DDC011C922B
:10155000FE0131969F010817190729F0DC014E9111
:10156000CD014193F8CFC20ED31EF60110829ECF5B
:10157000CF92DF92EF92FF920F931F93CF93DF935F
:10158000CDB7DEB7A1970FB6F894DEBF0FBECDBFC3
:10159000282F30E050E040E019A28E010F5D1F4F70
:1015A0008AE0C82ED12CE12CF12CCA01B901A70187
:1015B00096010E94D01A605DF80162938F01211597
:1015C00031054105510589F790E080E0309719F029
:1015D000CF010E944208A1960FB6F894DEBF0FBE5D
:1015E000CDBFDF91CF911F910F91FF90EF90DF90D2
:1015F000CF9008958F929F92AF92BF92CF92DF9239
:10160000EF92FF920F931F93CF93DF93D82EC92EA3
:101610007B0180EE95E00E945608CD2DDC2D10E078
:1016200000E088248A9483E0982EA12CB12C0E151A
:101630001F0509F44BC089810E94B80A85E096E035
:101640000E944F088A81813061F588810E941805C7
:1016500024E630E0DC010E94B71DA50194010E9440
:10166000B11A822F0E94B80A89E096E00E944F08C2
:1016700085E096E00E944F08CE0104960E944F0834
:101680008AE895E00E9442080D30110529F0B8F46F
:10169000C80104970297B0F480EE95E00E945608C6
:1016A00011C04881B7018D2D9C2D0E9413088823FD
:1016B00019F08BE096E0DACF80E196E0D7CF0431E5
:1016C000110551F30F5F1F4FA496B1CF80EE95E047
:1016D000DF91CF911F910F91FF90EF90DF90CF900E
:1016E000BF90AF909F908F900C9456088F929F92CE
:1016F000AF92BF92CF92DF92EF92FF920F931F9320
:10170000CF938C01862FD80111966D917C91129701
:101710009C91906221E020932007909342071092C1
:101720002107109243070E943B0781E00E94C005F9
:10173000F801C0810E9435056B017C0180911A0778
:10174000811165C081E080931A07809319079FEF8C
:101750009093180710921707109216078093F506BA
:101760008091F506C062CC0FC82BC093F50680911E
:10177000F406813009F08CC01092F4060E94350501
:101780006B017C018091F5068093BB0080911C0762
:1017900090911D07A0911E07B0911F07892B8A2BDE
:1017A0008B2BA1F00E94350580901C0790901D079F
:1017B000A0901E07B0901F076C197D098E099F0924
:1017C00086169706A806B90608F442C08091BC00A8
:1017D00083FDD8CF85EC8093BC000E9435056B015A
:1017E0007C0180911A07813009F454C08091170759
:1017F000811172C080911707A6EFB6E0E1E8F6E02C
:1018000090E0981751F12D9121939F5FFACF80912D
:101810001C0790911D07A0911E07B0911F07892BEF
:101820008A2B8B2B09F48ACF0E94350580901C07E8
:1018300090901D07A0901E07B0901F076C197D099E
:101840008E099F0986169706A806B90608F076CF76
:1018500080911B070E949F0580E01092A206809352
:10186000A106D80111968D919C91DC01ED91FC911E
:101870000284F385E02D1995CF911F910F91FF9070
:10188000EF90DF90CF90BF90AF909F908F90089592
:1018900085EEA1CF80911C0790911D07A0911E0796
:1018A000B0911F07892B8A2B8B2B09F49ACF0E94AA
:1018B000350580901C0790901D07A0901E07B090E2
:1018C0001F076C197D098E099F0986169706A806C1
:1018D000B90608F086CFBCCF81E08ECFFF920F9380
:1018E0001F93CF93DF93EC01162F042F862F877061
:1018F000F82E64E1183008F065E1CE010E94760B05
:1019000041E050E060E070E004C0440F551F661FE6
:10191000771FFA94D2F7002369F0482B62E1183060
:1019200008F063E1CE01DF91CF911F910F91FF90FD
:101930000C94450740954823F1CF85ED8093BC007A
:1019400080911C0790911D07A0911E07B0911F0761
:101950000796A11DB11D23E0B695A795979587958C
:101960002A95D1F72091BC0024FD03C010921A07DC
:10197000089540911C0750911D0760911E077091BA
:101980001F07452B462B472B69F30097A105B1058F
:1019900041F025E32A95F1F700000197A109B1096B
:1019A000E1CF80911B070C949F05CF93DF93CDB7B8
:1019B000DEB7CA55D8400FB6F894DEBF0FBECDBF14
:1019C0008CEFE0E0F2E0DE01A452B94F01900D92FD
:1019D0008A95E1F780E291E0ECEFF2E0DE01A454B9
:1019E000BA4F01900D920197E1F784E2ECE1F4E047
:1019F000DE01A852B84F01900D928A95E1F784E27A
:101A0000E0E4F4E0DE01A450B84F01900D928A9515
:101A1000E1F79E012F5F3F4FC05CD74F398328838A
:101A2000C054D84088EA93E0D901FC011D92319757
:101A3000E9F720E129831AE01A8394E09B838EE082
:101A4000E4E6F4E0DE01159601900D928A95E1F747
:101A5000FE01739681E1DF011D928A95E9F781E02D
:101A60008CA33EE03DA33BE03EA39FA344E1E3E81B
:101A7000F4E0DE01999601900D924A95E1F7FE019E
:101A8000FD96DF011D923A95E9F729968FAF2997C8
:101A900033E12A963FAF2A970CE0D02E2B96DFAE8B
:101AA0002B972C969FAF2C9736E1E2EAF4E0DE010B
:101AB000A35BBF4F01900D923A95E1F739E0EDE459
:101AC000F0E0EC0FFD1F7696DF01C32E1D92CA9445
:101AD000E9F7AD968FAFAD974FE0AE964FAFAE97AB
:101AE0005DE0AF965FAFAF97E0969FAFE09797E16D
:101AF000E1ECF4E0DE01AF58BF4F01900D929A95F2
:101B0000E1F7E1E7F0E0EC0FFD1F779698E0DF01E9
:101B10001D929A95E9F7C057DF4F8883C059D0408E
:101B200096E3CB50DD4F9883C55FD24098E2CA5010
:101B3000DD4F9883C65FD240C950DD4F8883C75FB1
:101B4000D240E0EEF4E0DE01A750BD4F01900D92CF
:101B50002A95E1F7E9EFF2E0EC0FFD1F7096DF0147
:101B60001D924A95E9F797E3C75EDC4F9883C95108
:101B7000D34099E2C65EDC4F9883CA51D340C55E1C
:101B8000DC4F8883CB51D34096E1EFEFF4E0DE01E8
:101B9000A35EBC4F01900D929A95E1F7EDE1F3E061
:101BA000EC0FFD1F7696DF011D923A95E9F798E359
:101BB000C35CDC4F9883CD53D3409AE2C25CDC4FC8
:101BC0009883CE53D340C15CDC4F8883CF53D3403E
:101BD00098E1EEE1F5E0DE01AF5BBC4F01900D92C4
:101BE0009A95E1F7E1E4F3E0EC0FFD1F789697E0BA
:101BF000DF011D929A95E9F799E3CF59DC4F98835D
:101C0000C156D3409BE2CE59DC4F9883C256D34095
:101C1000CD59DC4F8883C356D3409FE1EEE5F6E013
:101C2000DE01AB59BC4F01900D929A95E1F79AE312
:101C3000CB57DC4F9883C558D3409CE2CA57DC4F42
:101C40009883C658D340C957DC4F8883C758D340C0
:101C500089E1EDE3F5E0DE01A757BC4F01900D925D
:101C60008A95E1F706E0E9E8F3E0EC0FFD1F7996CD
:101C7000DF01C02E1D92CA94E9F784E2E65AFB4FB9
:101C8000DE01AF56BF4F01900D928A95E1F784E2D5
:101C9000FE01E852F84FDE01AB54BF4F01900D92A8
:101CA0008A95E1F784E2FE01E454FA4FDE01A7527F
:101CB000BF4F01900D928A95E1F784E2ECEBF5E0DD
:101CC000EC0FFD1FB496DE01A350BF4F01900D92A3
:101CD0008A95E1F784E2FE01EC5FF94FDE01AF5D2A
:101CE000BE4F01900D928A95E1F784E2FE01E85D16
:101CF000F94FDE01AB5BBE4F01900D928A95E1F783
:101D000084E2FE01E45BF94FDE01A759BE4F01906A
:101D10000D928A95E1F784E2FE01E059F94FDE0168
:101D2000A357BE4F01900D928A95E1F784E2FE0120
:101D3000EC56F94FDE01AF54BE4F01900D928A95DB
:101D4000E1F784E2FE01E854F94FDE01AB52BE4FE9
:101D500001900D928A95E1F784E2FE01E452F94F79
:101D6000DE01A750BE4F01900D928A95E1F784E203
:101D7000ECEDF6E0EC0FFD1FB496DE01A35EBD4F67
:101D800001900D928A95E1F784E2FE01EC5DF84F37
:101D9000DE01AF5BBD4F01900D928A95E1F784E2C1
:101DA000FE01E85BF84FDE01AB59BD4F01900D928B
:101DB0008A95E1F784E2FE01E459F84FDE01A75766
:101DC000BD4F01900D928A95E1F784E2FE01E05744
:101DD000F84FDE01A355BD4F01900D928A95E1F7B2
:101DE00084E2FE01EC54F84FDE01AF52BD4F01908A
:101DF0000D928A95E1F7EBEAF3E0E491F0E0EE0F63
:101E0000FF1FEC5BFC4F859194917E0127E5E21A60
:101E10002CEFF20AD70111969C938E93E1EFF3E039
:101E2000E4911A96EC931A97E1E8F3E0E491F0E07C
:101E3000EE0FFF1FEC5BFC4F85919491F7019383AC
:101E40008283E7ECF3E0E4911B96EC931B97E2E8C6
:101E5000F3E0E491F0E0EE0FFF1FEC5BFC4F8591A7
:101E60009491F70195838483E8ECF3E0E4911C9668
:101E7000EC931C97E4E8F3E0E491F0E0EE0FFF1F31
:101E8000EC5BFC4F85919491F70197838683EAEC94
:101E9000F3E0E4911D96EC931D97E3E8F3E0E49101
:101EA000F0E0EE0FFF1FEC5BFC4F85919491F70182
:101EB00091878087E9ECF3E0E4911E96EC9361E072
:101EC00083E30E94DC0461E089E00E94DC0461E0BD
:101ED0008AE00E94DC0461E08CE00E94DC0461E0A6
:101EE0008BE00E94DC0483E3F7018787D08AC35C20
:101EF000D74F1882CD53D84081EE97E0C25CD74FC0
:101F000099838883CE53D8401092A2061092A106DE
:101F100010922107109243070E94810580EB96E002
:101F20009093C5068093C40681EB96E09093C90612
:101F30008093C8064FEF60E0CE01835C974F0E940C
:101F400045074FEF61E0CE01835C974F0E94450744
:101F5000ECE5F5E0DE01A05EB74F01900D921A9519
:101F6000E1F7E0915407F091550782E08083E0911A
:101F70005007F09151071082E0915207F0915307FA
:101F80008FEC808310925C07E0915807F09159071D
:101F90000083E0915607F09157078081806180832C
:101FA000E0915607F0915707808188608083E09127
:101FB0005607F0915707808180688083E09156072B
:101FC000F091570780818F7D80839E012F5F3F4F67
:101FD0004901D40112968C911297843031F4939672
:101FE0006C9193978C910E94DC04F40183A1813061
:101FF00021F460E080810E94AE04F4E28F0E911C17
:102000008E149F0431F7A0E2CA2EA8E0DA2ECC0E7F
:10201000DD1E2AE0C20ED11C8E01005E174F412C3E
:10202000512C32014394D801BD908D01AA24A39470
:10203000B7E0BB1508F0A12C6A2DCE01835C974F49
:102040000E94760B9B2D9770B301A20104C0440F30
:10205000551F661F771F9A95D2F7409548236A2D22
:10206000CE01835C974F0E94450782EF8B0D823033
:1020700038F440E06B2DCE01835C974F0E946E0CCC
:102080000C151D0581F6C852D84F4881C85DD74050
:1020900061E070E0CE018852984F0E941308C75B40
:1020A000D74F8883C954D84041E0813009F040E0DF
:1020B0006DE0CE01835C974F0E946E0CFE01E65DE1
:1020C000F74F5F018E010452194FD12CC12CD8015A
:1020D0004C9167E070E0CE018452994F0E94130842
:1020E000F50181935F0141E0882319F0813069F4A3
:1020F00040E0E0E2F8E0EC0FFD1FEC0DFD1D60811B
:10210000CE01835C974F0E946E0CFFEFCF1ADF0A5F
:102110000C5D1F4F27E0C216D104C9F660E085E3CD
:102120000E94DC0460E08BE30E94DC0481E0809389
:102130006B0080916800816080936800109280003D
:1021400080918100836080938100809181008B7FEA
:102150008093810084E294EF9093890080938800BB
:102160001092B0008091B10087608093B1008EEF33
:102170008093B300789485E196E00E9456086AE166
:1021800070E0CE0101960E94FA0AD7011C968C914C
:102190001C971496ED91FC9115979081892B808363
:1021A0001B968C911B971296ED91FC911397908141
:1021B000892B80831A968C911A97ED91FC91119737
:1021C0009081892B80831E968C911E971896ED9195
:1021D000FC9119979081892B80831D968C911D9776
:1021E0001696ED91FC9190818095892380830E94C1
:1021F00035055B016C01FAE04F2E512C612C712CDE
:102200000E9435056A197B098C099D09683E734057
:1022100081059105A8F3B1E04B1A510861087108D6
:10222000E8EEAE0EE3E0BE1EC11CD11C4114510409
:102230006104710429F7D7011D968C911D9716969C
:10224000ED91FC919081892B808340E061E2C70190
:102250000E94AA0740E06CEBC7010E94AA0740E079
:1022600066E0C7010E94AA0740E063E1C7010E943F
:10227000AA0740E060E2C7010E94AA0740E060E4CC
:10228000C7010E94AA0740E060E8C7010E94AA07B0
:1022900040E06CE0C7010E94AA07F70178968E0122
:1022A00007541A4F11920E171F07E1F7C7010E943A
:1022B000E607F701128A118AD8011C928CE390E09C
:1022C000C654DA4F99838883CA5BD540B70180E052
:1022D0000E94D409CE5BD74F1882C254D840B1E0D7
:1022E000C65BD74FB883CA54D84010E0CA5BD74FFB
:1022F0001882C654D840ECEDF6E0EC0FFD1FE45018
:10230000FF4FCA5AD74FF983E883C655D8404424B3
:102310004A94E3E05E2E612C712C1E01FFEC2F1A13
:10232000F7EF3F0A91012A5F3F4FC75AD74F3983D2
:102330002883C955D840C852D84F4881C85DD74076
:1023400061E070E0CE018852984F0E941308C75B8D
:10235000D74FC880C954D8408C15C1F0C852D84F47
:102360004881C85DD74061E070E0CE018852984F47
:102370000E941308C75BD74F8883C954D840482FA1
:102380006DE0CE01835C974F0E946E0C9E01205E33
:10239000374F6901AE01465D574F5A01BE01645285
:1023A000794F7B01D7014C9167E070E0CE018452F8
:1023B000994F0E941308F50191915F018917B9F0B7
:1023C000D7014C9167E070E0CE018452994F0E9492
:1023D0001308F50131978083F601608140E0813078
:1023E00009F041E0CE01835C974F0E946E0CF4E24D
:1023F000EF0EF11C2FEFC21AD20ACA5AD74F4881EA
:102400005981C655D8404E155F0561F6809180060A
:10241000882309F458C0C65BD74FC880CA54D84037
:10242000CC2061F0809168008B7F809368001092CF
:1024300085001092840082E080936F0080917F0677
:10244000882309F43DC2809170008D7F80937000D5
:1024500080916F008D7F80936F0080917F06823026
:1024600019F58BE30E948504182F882381F0CE5B39
:10247000D74F2881C254D840223009F40FC22F5FB1
:10248000CE5BD74F2883C254D84010E00DC0CE5B3E
:10249000D74FC880C254D840CC2009F405C2CE5BC7
:1024A000D74F1882C254D84010927F06809168009E
:1024B0008460809368001092800631E0C65BD74F3D
:1024C0003883CA54D84011110FC0BE0167557C4FE4
:1024D000CE5BD74F8881C254D8400E94D4098091E6
:1024E000700082608093700080917E06843108F4D1
:1024F00031C1CE5BD74F4881C254D840413009F436
:10250000E5C1423009F4F1C188E30E94180524E6D0
:1025100030E0DC010E94B71DA30192010E94B11AB4
:10252000890187E30E94180524E630E0DC010E945F
:10253000B71DA30192010E94B11AC55BD74F398321
:102540002883CB54D84024E630E0C801B9010E946A
:102550009B1D462FEEEEF1E0C654DC4FF983E88375
:10256000CA5BD340E491C454DC4FE883CC5BD340D6
:10257000EFEEF1E0E491C354DC4FE883CD5BD34050
:10258000E0EFF1E0E491C254DC4FE883CE5BD3404E
:10259000E1EFF1E0E491C154DC4FE883CF5BD3403D
:1025A000C054DC4F1882C05CD340C62ED12CF12C15
:1025B000E12CCF5AD74FC882D982EA82FB82C1551B
:1025C000D8405AE0A52EB12CC801B5010E949B1D30
:1025D0007AE0D72ED49E60191124C62ED12CF12C6E
:1025E000E12CAC0170E060E0C35BD74F48835983B6
:1025F0006A837B83CD54D840CE5BD74F5881C25479
:10260000D840523009F476C0C55BD74F8881998194
:10261000CB54D840B9010E949B1DCB5AD74F688339
:10262000C555D840C85AD74F6883C855D84007E029
:1026300010E024E130E0CF5AD74F488159816A81B8
:102640007B81C155D840CE0187559C4F0E942D0AF1
:1026500023E230E0B701A601CE0187559C4F0E94CE
:102660002D0A20E330E0C35BD74F488159816A814E
:102670007B81CD54D840CE0187559C4F0E942D0AB6
:10268000C85AD74F8881C855D840482F50E070E0CD
:1026900060E001E210E024E130E0CE0187559C4F7C
:1026A0000E942D0AC55BD74F88819981CB54D840B1
:1026B000B5010E949B1D5C019AE0CB5AD74FA881BF
:1026C000C555D8409A9F60191124462F50E070E0FC
:1026D00060E022E230E0CE0187559C4F0E942D0A37
:1026E000A50170E060E02FE230E0CE0187559C4FFD
:1026F0000E942D0A07E010E024E130E0CF5AD74FC6
:10270000488159816A817B81C155D840CE01875566
:102710009C4F0E942D0A22E230E0B701A601CE01B3
:1027200087559C4F0E942D0A2FE230E0C35BD74FA4
:10273000488159816A817B81CD54D840CE0187552B
:102740009C4F0E942D0ACE0187559C4F0E94E607A0
:1027500010927E0684E497E00E944803CA5BD74F3C
:102760000881C654D840181619060CF090C00F5FA7
:1027700084E497E00E942603E7E3F8E0EC0FFD1FF6
:10278000CA5BD74FC880C654D840EC0DF11D80837A
:10279000682F84E497E00E948003063069F0E7E345
:1027A000F8E0EC0FFD1FE00FF11D319780818D30B7
:1027B00019F08A3009F06BC0809168008B7F80939C
:1027C000680080916F008D7F80936F008091700012
:1027D0008D7F809370008AE895E00E944208D101C5
:1027E0001C9211961C92119712961C921297139696
:1027F0001C92139714961C92149715961C92DE0146
:10280000A95CB74FF101F12CE12C8D918D3041F095
:1028100081932FEFE21AF20A36E0E316F104A9F7EA
:10282000D1019C91943609F06EC0F101319680E09F
:102830009191911181E0C75AD74FC880D980C9556D
:10284000D840CE16DF06A1F7811113C021E042E186
:102850006AE170E0CE0101960E942C0821E0DC01C3
:1028600013962C9341E06FE0CE01835C974F0E945A
:102870006E0C8091680084608093680082E0809391
:102880006F008091700082608093700000E011E022
:10289000CA5BD74F0883C654D8404DCDCE5BD74FC7
:1028A0001882C254D840F1CDCE5BD74F1881C254A4
:1028B000D84022E0CE5BD74F2883C254D840F4CD15
:1028C000C65BD74F1882CA54D840FDCD89E30E9419
:1028D000180524E630E0DC010E94B71DA301920137
:1028E0000E94B11A89018AE31DCE86E30E94180571
:1028F00024E630E0DC010E94B71DA30192010E9492
:10290000B11A890120CE923609F07FC0CE2CB2E0F8
:10291000EB1AF108E7E3F8E0EC0FFD1F3196CA5B14
:10292000D74FF983E883C654D84011E0D12C1C1549
:1029300088F5CA5BD74FA881B981C654D8400D919C
:10294000CA5BD74FB983A883C654D84080ED800FA7
:102950008A3008F055C0B7010F2C000C880B990B7A
:102960000E94B8199B01AC0160E070E080E291E444
:102970000E94371BA02E000FBB08B0E3AB1AB108B2
:102980000E94011B6A9DD00C11241F5FE1E0EE1A2A
:10299000F108CDCF8FEF8D0D8E3190F58E0104545F
:1029A0001A4FB12CA12CED2CDD0CFF08D8014C9155
:1029B000C7010A2C02C0969587950A94E2F780FF1A
:1029C00014C021E06AE170E0CE0101960E942C085B
:1029D00021E0FC012383BFEFAB1ABB0A0C5D1F4F44
:1029E000E8E0AE16B10411F744CF20E06AE170E0F0
:1029F000CE0101960E942C08DC0113961C92EBCFAD
:102A000088E296E00E94560834CFFD01E219F309EE
:102A10002D9180ED820F8A30C0F3E230F10509F08C
:102A20007CC09053D10111968C918053BAE09B9F4A
:102A3000800D1124982F9F3F09F43BC1DE011196B0
:102A400011968C911197981376C012968C911297CB
:102A5000843009F07FC093968C91882309F42BC1B0
:102A600082E0273709F080C0A2E3B8E0AC0FBD1FB9
:102A7000AE0FBF1F8C918053823008F061C023E3FA
:102A8000C22E28E0D22ECC0EDD1EEC0DFD1D2081C5
:102A9000211156C0FE01319621819213FEC0D080D3
:102AA000CD5BD74FD882C354D840C85BD74F8883FB
:102AB000C854D840C85BD74F2881C854D840CD5B94
:102AC000D74F4881C354D8406AE170E0CE010196E7
:102AD0000E942C08C85BD74FC880C854D840DC017E
:102AE0001396CC92CD5BD74F2881C354D8402E305B
:102AF00009F007C14C2D6EE0CE01835C974F0E9418
:102B00006E0CCC5BD74F1882C454D84031E0CB5BFD
:102B1000D74F3883C554D840ACCEE130F10511F41D
:102B2000905389CFEF2B61F4913651F48FEF9FEFE3
:102B3000E1E0F0E019C09496A815B90509F080CF3E
:102B400088E296E00E945608CB5BD74F1882C554A6
:102B5000D8408FCE823009F483CF08F090C088230C
:102B600079F3813009F091C0D101AE0FBF1F2C91D4
:102B7000223731F742E358E04C0F5D1FE40FF51F99
:102B800020812111DDCF843008F097C0823008F019
:102B90009EC0813009F4A2C0FE0131968181981354
:102BA000A4C0C080CD5BD74FC882C354D840C85B97
:102BB000D74F1882C854D840CC5BD74FD880C45464
:102BC000D840DD2009F476CFCC5BD74F6881C45460
:102BD000D840613009F0BDC080EE95E00E945608F3
:102BE0008EE396E00E944F08FE0131968081CD5B16
:102BF000D74FC880C354D840C812A1C081810E9459
:102C0000B80A8CE596E00E944F088E010F5F1F4FB7
:102C1000D8018C91CD5BD74FC880C354D840C8121F
:102C200004C0C80104960E944F080C5D1F4F801617
:102C3000910671F78CE596E00E944F0887E496E0D4
:102C40000E944F08CD5BD74F4881C354D8406AE1FA
:102C500070E0CE0101960E941308882309F476C023
:102C60008BE096E00E94560880EE95E00E945608A0
:102C700021E0CB5BD74F2883C554D840FACD8330B1
:102C800009F472CF8F3F09F46FCFCB5BD74FC88069
:102C9000C554D840C11090CF53CFB4968E169F061E
:102CA00009F0FACE2FEFCD5BD74F2883C354D8401D
:102CB000FCCE8FEF59CF83E057CF8F3F09F06CCF19
:102CC00063E0CC5BD74F6883C454D84065CF51E0F4
:102CD000CC5BD74F5883C454D8405ECF72E0CC5BF6
:102CE000D74F7883C454D84057CFB4968E169F06DA
:102CF00009F054CF2FEFCD5BD74F2883C354D84072
:102D000056CFCD5BD74F4881C354D840423159F498
:102D1000C85BD74F4881C854D8406FE0CE01835C70
:102D2000974F0E946E0CCC5BD74F1882C454D8408A
:102D300051E0CB5BD74F5883C554D8409ACDB49659
:102D40008E169F0609F052CF8FEF59CF8FE496E091
:102D500089CFCC5BD74F3881C454D840323009F08A
:102D600053C080EE95E00E9456088EE396E00E94E4
:102D70004F08FE0131968081CD5BD74FC880C35488
:102D8000D840C8123AC081810E94B80A8CE596E00A
:102D90000E944F088E010F5F1F4FD8018C91CD5BB1
:102DA000D74FC880C354D840C81204C0C801049685
:102DB0000E944F080C5D1F4F8016910671F78CE53D
:102DC00096E00E944F0883E596E00E944F08CD5B95
:102DD000D74F8881C354D8400E94180524E630E0BC
:102DE000DC010E94B71DA30192010E94B11A822F3B
:102DF0000E94B80A89E096E035CFB4968E169F06F9
:102E000009F0B9CF8FEFC0CF6AE170E0CE01019633
:102E10000E94FA0A33E0CC5BD74F3883C454D840C1
:102E200041E0CB5BD74F4883C554D84022CD1F9299
:102E30000F920FB60F9211240BB60F922F933F9360
:102E40004F935F936F937F938F939F93AF93BF93B2
:102E5000EF93FF9384E497E00E945E03FF91EF916C
:102E6000BF91AF919F918F917F916F915F914F91A2
:102E70003F912F910F900BBE0F900FBE0F901F90A0
:102E800018951F920F920FB60F9211240BB60F9246
:102E90002F938F939F93EF93FF93E0915407F091BB
:102EA00055078081E0915A07F0915B0782FD1DC0B4
:102EB000908180915D078F5F8F7320915E078217ED
:102EC00041F0E0915D07F0E0EC5BF84F958F809367
:102ED0005D07FF91EF919F918F912F910F900BBE06
:102EE0000F900FBE0F901F9018958081F2CF1F9208
:102EF0000F920FB60F9211242F933F938F939F93AE
:102F0000AF93BF938091EC069091ED06A091EE06F1
:102F1000B091EF063091EB0623E0230F2D3758F5E3
:102F20000196A11DB11D2093EB068093EC069093B2
:102F3000ED06A093EE06B093EF068091F006909117
:102F4000F106A091F206B091F3060196A11DB11D04
:102F50008093F0069093F106A093F206B093F306E7
:102F6000BF91AF919F918F913F912F910F900FBE85
:102F70000F901F90189526E8230F0296A11DB11DF2
:102F8000D2CF1F920F920FB60F9211240BB60F9251
:102F90002F933F934F935F936F937F938F939F9361
:102FA000AF93BF93EF93FF938091B900887F8036F2
:102FB00009F44DC008F040C0883209F4A9C028F5D2
:102FC000803109F49DC0C8F4882309F4FBC088301F
:102FD00009F496C0FF91EF91BF91AF919F918F91AE
:102FE0007F916F915F914F913F912F910F900BBE09
:102FF0000F900FBE0F901F901895883109F488C06C
:10300000803241F78093180714C0803409F49DC0C2
:1030100040F48033B9F38833E9F68093180785ECE0
:10302000B0C0803509F485C0883509F496C088346D
:1030300089F60E949D0CCECF883909F48CC038F5F2
:10304000883729F050F4883611F0803719F683E07C
:1030500080931A071092EA0657C0883809F47BC09B
:10306000803919F0803809F0B5CF8091EA068032B6
:1030700008F071C0E091EA0681E08E0F8093EA06C5
:103080008091BB00F0E0E653F94F80833DC0803B68
:1030900039F0E0F4803A09F479C0883A09F09ACF1F
:1030A00084E080931A071092C7061092C606E0913A
:1030B000C406F091C50619958091C60681110FC00E
:1030C00081E08093C6061092A40609C0803C09F4F2
:1030D000A6CF883C09F4A3CF883B09F07BCFE091D1
:1030E000C70681E08E0F8093C706F0E0EC55F94FDC
:1030F00080818093BB009091C7068091C60629C04D
:103100008091F5068093BB0085EC8093BC0062CF74
:103110009091170780911607981758F5E0911707B7
:1031200081E08E0F80931707F0E0EA50F94F80811D
:10313000E9CFE091170781E08E0F80931707809108
:10314000BB00F0E0EA50F94F80839091170780911F
:1031500016079817C8F285E8D8CFE091170781E0E5
:103160008E0F809317078091BB00F0E0EA50F94F73
:1031700080838091190781115CCF81E08093F406F0
:1031800084EA8093BC0010921A0724CF85EC8093C8
:10319000BC0010921A078091EA06803230F4E09168
:1031A000EA06F0E0E653F94F10826091EA0670E01B
:1031B000E091C806F091C9068AEC96E01995109244
:1031C000EA0608CF1092180734CF1F920F920FB65D
:1031D0000F9211248F9381E0809380068F910F903E
:1031E0000FBE0F901F9018951F920F920FB60F925F
:1031F00011248F9380917E068F5F80937E068F913E
:103200000F900FBE0F901F9018951F920F920FB640
:103210000F9211248F93189B09C082E080937F0640
:103220008F910F900FBE0F901F9018951899F8CF9F
:1032300081E0F4CFE4E4F7E01382128288EE93E0B9
:10324000A0E0B0E084839583A683B7832AE635E0C7
:103250003183208325EC30E03587248724EC30E06F
:103260003787268720EC30E0318B208B21EC30E053
:10327000338B228B22EC30E0358B248B26EC30E034
:10328000378B268B118E128E138E148EE1EEF7E0A3
:103290001382128284839583A683B7838CE795E09B
:1032A000918380830895789484B5826084BD84B5C9
:1032B000816084BD85B5826085BD85B5816085BD31
:1032C000EEE6F0E0808181608083E1E8F0E010824A
:1032D000808182608083808181608083E0E8F0E08B
:1032E000808181608083E1EBF0E080818460808375
:1032F000E0EBF0E0808181608083E1E9F0E08081B3
:1033000082608083808181608083E0E9F0E0808159
:1033100081608083E1EAF0E0808182608083808147
:1033200081608083E0EAF0E0808181608083E1E277
:10333000F1E0808182608083808181608083E0E22F
:10334000F1E0808181608083EAE7F0E08081846041
:10335000808380818260808380818160808380819E
:10336000806880831092C1000E94D50CE89409C047
:1033700097FB3EF490958095709561957F4F8F4FA8
:103380009F4F9923A9F0F92F96E9BB279395F695BE
:10339000879577956795B795F111F8CFFAF4BB0F3C
:1033A00011F460FF1BC06F5F7F4F8F4F9F4F16C0A0
:1033B000882311F096E911C0772321F09EE8872F2A
:1033C000762F05C0662371F096E8862F70E060E0E6
:1033D0002AF09A95660F771F881FDAF7880F96955F
:1033E000879597F908950E94061A0C94771A0E94FF
:1033F000691A38F00E94701A20F0952311F00C948D
:10340000601A0C94661A11240C94AB1A0E94881A44
:1034100070F3959FC1F3950F50E0551F629FF00127
:10342000729FBB27F00DB11D639FAA27F00DB11D40
:10343000AA1F649F6627B00DA11D661F829F2227C9
:10344000B00DA11D621F739FB00DA11D621F839F50
:10345000A00D611D221F749F3327A00D611D231F26
:10346000849F600D211D822F762F6A2F11249F5774
:1034700050409AF0F1F088234AF0EE0FFF1FBB1F77
:10348000661F771F881F91505040A9F79E3F510536
:1034900080F00C94601A0C94AB1A5F3FE4F3983EF2
:1034A000D4F3869577956795B795F795E7959F5FE0
:1034B000C1F7FE2B880F911D9695879597F9089572
:1034C00097F99F6780E870E060E008959FEF80ECD7
:1034D000089500240A94161617061806090608957A
:1034E00000240A9412161306140605060895092EE0
:1034F0000394000C11F4882352F0BB0F40F4BF2B4F
:1035000011F460FF04C06F5F7F4F8F4F9F4F08958E
:1035100057FD9058440F551F59F05F3F71F0479584
:10352000880F97FB991F61F09F3F79F08795089569
:10353000121613061406551FF2CF4695F1DF08C088
:10354000161617061806991FF1CF869571056105A5
:1035500008940895E894BB2766277727CB0197F94D
:103560000895052E97FB1EF400940E94C81A57FD7B
:1035700007D00E94D01A07FC03D04EF40C94C81A4E
:1035800050954095309521953F4F4F4F5F4F08958F
:1035900090958095709561957F4F8F4F9F4F0895BF
:1035A000A1E21A2EAA1BBB1BFD010DC0AA1FBB1F47
:1035B000EE1FFF1FA217B307E407F50720F0A21BB9
:1035C000B30BE40BF50B661F771F881F991F1A9426
:1035D00069F760957095809590959B01AC01BD0150
:1035E000CF010895A29FB001B39FC001A39F700DAA
:1035F000811D1124911DB29F700D811D1124911DFB
:1036000008950E94081B6894B1110C94AB1A089598
:103610000E94901A88F09F5798F0B92F9927B751B8
:10362000B0F0E1F0660F771F881F991F1AF0BA9566
:10363000C9F714C0B13091F00E94AA1AB1E0089500
:103640000C94AA1A672F782F8827B85F39F0B93FF2
:10365000CCF3869577956795B395D9F73EF4909519
:103660008095709561957F4F8F4F9F4F0895FA0118
:10367000EE0FFF1F309621053105A1F1611571058F
:1036800061F48038BFE39B0749F168949038810565
:1036900061F08038BFEF9B0741F099234AF5FF3F67
:1036A000E1053105210519F1E8940894E795D90160
:1036B000AA2329F4AB2FBE2FF85FD0F310C0FF5F11
:1036C00070F4A695E0F7F73950F019F0FF3A38F4A6
:1036D0009F779F930DD00F9007FC9058089546F068
:1036E0000C94661A60E070E080E89FE308954FE76D
:1036F0009F775F934F933F932F930E94321C2F919C
:103700003F914F915F910E94F3190C948F1B29F404
:1037100016F00C94601A0C94AA1A0C94661A0E9463
:10372000901AA8F39638A0F707F80F92E8942BE3C5
:103730003AEA48EB5FE70E94091A0F920F920F9244
:103740004DB75EB70F920E947A1CE4EEF0E00E9443
:10375000C11B4F915F91EF91FF91E595EE1FFF1F08
:1037600049F0FE57E0684427EE0F441FFA95E1F751
:103770004195550B0E94F41B0F9007FE0C94E81B1B
:103780000895DF93CF931F930F93FF92EF92DF92F1
:103790007B018C01689406C0DA2EEF010E94061AA4
:1037A000FE01E894A5912591359145915591A6F397
:1037B000EF010E94C61CFE019701A801DA9469F787
:1037C000DF90EF90FF900F911F91CF91DF910895BF
:1037D0009B01AC0160E070E080E89FE30C941B1D4E
:1037E0000C94601A0C948D1D0E94901AD8F39923A2
:1037F000C9F3940F511DA3F39150504094F059F028
:10380000882332F0660F771F881F91505040C1F710
:103810009E3F51052CF7880F911D9695879597F936
:1038200008955F3FACF0983E9CF0BB278695779556
:103830006795B79508F4B1609395C1F7BB0F58F73A
:1038400011F460FFE8CF6F5F7F4F8F4F9F4FE3CF43
:103850000C94AB1A16F00C948D1D0C94661A689497
:103860000C94601A0E94901AA8F39923C1F3AEF346
:10387000DF93CF931F930F93FF92C92FDD278823E8
:103880002AF02197660F771F881FDAF720E030E0D3
:1038900040E85FEB9FE3883920F0803E38F02196C6
:1038A0008F770E94AF1CECE0F1E004C00E94AF1CD7
:1038B000E9E3F1E00E94C11B8B01BE01EC01FB2E8C
:1038C0006F5771097595771F880B990B0E94B8196E
:1038D00028E132E741E35FE30E94061AAF2D980129
:1038E000AE01FF900F911F91CF91DF910E94C61CF6
:1038F0000C94771AFA01DC01AA0FBB1F9B01AC01E3
:10390000BF5728F4222733274427507820C0B751C7
:1039100090F4AB2F0024469537952795011CA3956D
:10392000D2F3002071F0220F331F441FB395DAF356
:103930000ED00C94AE1C61307105A0E88A07B94620
:1039400030F49B01AC016627772788279078309662
:1039500021F0208331834283538308955058BB273D
:10396000AA270E94C61C0C94771A0E94691A38F084
:103970000E94701A20F039F49F3F19F426F40C9439
:10398000661A0EF4E095E7FB0C94601AE92F0E948A
:10399000881A58F3BA17620773078407950720F04F
:1039A00079F4A6F50C94AA1A0EF4E0950B2EBA2F12
:1039B000A02D0B01B90190010C01CA01A001112435
:1039C000FF27591B99F0593F50F4503E68F11A16E1
:1039D000F040A22F232F342F4427585FF3CF469572
:1039E00037952795A795F0405395C9F77EF41F1694
:1039F000BA0B620B730B840BBAF09150A1F0FF0F5E
:103A0000BB1F661F771F881FC2F70EC0BA0F621F49
:103A1000731F841F48F4879577956795B795F79539
:103A20009E3F08F0B0CF9395880F08F09927EE0FCE
:103A30009795879508950E942F1D0C94771A0E94E0
:103A4000701A58F00E94691A40F029F45F3F29F07B
:103A50000C94601A51110C94AB1A0C94661A0E94C3
:103A6000881A68F39923B1F3552391F3951B550BED
:103A7000BB27AA2762177307840738F09F5F5F4F41
:103A8000220F331F441FAA1FA9F335D00E2E3AF080
:103A9000E0E832D091505040E695001CCAF72BD098
:103AA000FE2F29D0660F771F881FBB1F26173707E9
:103AB0004807AB07B0E809F0BB0B802DBF01FF271B
:103AC00093585F4F3AF09E3F510578F00C94601A7E
:103AD0000C94AB1A5F3FE4F3983ED4F38695779548
:103AE0006795B795F7959F5FC9F7880F911D9695D4
:103AF000879597F90895E1E0660F771F881FBB1F30
:103B0000621773078407BA0720F0621B730B840BDC
:103B1000BA0BEE1F88F7E09508959F3F31F0915062
:103B200020F4879577956795B795880F911D9695A1
:103B3000879597F90895AA1BBB1B51E107C0AA1FDF
:103B4000BB1FA617B70710F0A61BB70B881F991F3E
:103B50005A95A9F780959095BC01CD010895EE0F77
:103B6000FF1F881F8BBF0790F691E02D19940E94CC
:103B7000F21AB7FF0895821B930B0895F894FFCFB4
:103B80003E1E0400506F77657220737570706C79FB
:103B9000206661756C74205B7768656E204C4F57AA
:103BA0005D000000401F04004265616D20636F6C82
:103BB0006C696D61746F72206661756C74000000D1
:103BC000000000000000000041200400506F7765F5
:103BD000722D616D702063757272656E74206661FE
:103BE000756C740000000000000000004221040019
:103BF0005072652D616D70206375727265726E749E
:103C0000206661756C740000000000000000000078
:103C1000432204004261736520706C6174652074F6
:103C2000656D70206661756C740000000000000016
:103C3000000000004423040053656564206C617338
:103C400065722074656D70206661756C740000008B
:103C500000000000000000003F240400526573656E
:103C600072766564206661756C7400000000000067
:103C70000000000000000000000000001E1404000E
:103C800053746174652073656C6563743A20300009
:103C90000000000000000000000000000000000123
:103CA0001C15040053746174652073656C6563743E
:103CB0003A20310000000000000000000000000079
:103CC000000000011A1604005374617465207365C6
:103CD0006C6563743A2032000000000000000000B0
:103CE0000000000000000001181704005374617404
:103CF000652073656C6563743A2033000000000032
:103D00000000000000000000000000011618040080
:103D100053746174652073656C6563743A20340074
:103D20000000000000000000000000000000000192
:103D30001B19040053746174652073656C656374AA
:103D40003A203500000000000000000000000000E4
:103D500000000001191A0400537461746520736532
:103D60006C6563743A20360000000000000000001B
:103D70000000000000000001171B04005374617470
:103D8000652073656C6563743A203700000000009D
:103D9000000000000000000000000001110F0400FE
:103DA0004C61736572207265616479205B77686528
:103DB0006E20484947485D000000000000000000F8
:103DC000120E04004C617365722064697361626C49
:103DD000650000000000000000000000000000007E
:103DE00000000001476C6F62616C20456E61626C7F
:103DF000650000000000000000000000000000005E
:103E00000000004C6173657220656D697373696FA2
:103E10006E20676174650000000000000000000073
:103E2000000050756C7365642F4357206D6F646597
:103E30002073656C656374000000000000000000E2
:103E400000416C69676E6D656E74206C617365729C
:103E500020656E61626C65000000000000000000DB
:103E60004261736520706C6174652074656D7000CB
:103E700000000000000000000000000000000050F2
:103E8000726520616D702064696F6465206375726E
:103E900072656E7400000000000000000000506FAA
:103EA00077657220616D702064696F646520637549
:103EB0007272656E74000000000000000053696DAE
:103EC0006D65722063757272656E742073657420FF
:103ED000706F696E740000000000000006070B0A96
:103EE00009080C0D0F0E000000008003EA02170302
:103EF000CD03480326033A03000000000907DC064F
:103F00003807B206D506C206B3060D0A00504F5751
:103F10002D414D50204D4F4E4954005052452D419A
:103F20004D50204D4F4E495400504F572D414D504C
:103F300020532E20502E005052452D414D502043ED
:103F40002E20502E00422D54454D50204D4F4E49AD
:103F50005400446973706C6179206572726F7200ED
:103F60003D3D3D3D3D3D3D3D3D3D3D3D3D3D3D3D81
:103F70003D3D3D3D3D3D3D3D3D3D3D3D3D3D3D3D71
:103F80003D3D3D3D00207C2000250048494748003C
:103F90004C4F57200053746174757320706F637AAF
:103FA00061746B6F77793A004E69657072617769F9
:103FB000646C6F7761206B6F6D656E646100506932
:103FC0006E206E723A2000205374616E3A20004CCD
:103FD0004F570020576172746F73633A200041633A
:103FE000746976652D5374617465206375727265AA
:0E3FF0006E742073657420706F696E7400002B
:00000001FF
