:1000000072C000009EC000009CC000009AC00000AA
:1000100098C0000096C0000094C0000092C000008C
:1000200090C000008EC000008CC000008AC000009C
:1000300088C0000086C0000084C0000082C00000AC
:1000400080C000007EC000007CC000007AC00000BC
:1000500078C0000076C0000074C0000014C3000027
:1000600070C0000083C3000058C300006AC00000D5
:1000700068C0000066C0000064C0000062C00000EC
:10008000ABC300005EC000005CC000005AC00000AE
:1000900058C0000056C0000054C0000052C000000C
:1000A00050C000004EC000004CC000004AC000001C
:1000B00048C0000046C0000044C0000042C000002C
:1000C00040C000003EC000003CC000003AC000003C
:1000D00038C0000036C0000034C0000032C000004C
:1000E00030C00000650411241FBECFEFD1E2DEBF97
:1000F000CDBF00E00CBF12E0A0E0B2E0ECE7F9E019
:1001000000E00BBF02C007900D92A631B107D9F7EE
:1001100022E0A6E1B2E001C01D92A53CB207E1F7E2
:1001200010E0C3E7D0E000E005C021970109802F6F
:10013000FE011AD4C237D10780E00807B1F763D3B4
:100140001BC45ECFAF92BF92CF92DF92EF92FF922D
:100150000F931F93CF93DF936C017B018B01040FEF
:10016000151FEB015E01AE18BF08C017D10759F08B
:100170006991D601ED91FC910190F081E02DC601CD
:100180001995892B79F7C501DF91CF911F910F91B7
:10019000FF90EF90DF90CF90BF90AF900895FC015B
:1001A000538D448D252F30E0842F90E0821B930BDC
:1001B000541710F0CF96089501970895FC01918D82
:1001C000828D981761F0A28DAE0FBF2FB11D5D9685
:1001D0008C91928D9F5F9F73928F90E008958FEF27
:1001E0009FEF0895FC01918D828D981731F0828DDB
:1001F000E80FF11D858D90E008958FEF9FEF089532
:10020000FC01918D228D892F90E0805C9F4F821B95
:1002100091098F73992708958FE192E0F1DF21E032
:10022000892B09F420E0822F0895CF92DF92EF927C
:10023000FF921F93CF93DF93EC016A017B01122F92
:10024000E889F98982E08083C11481EED806E1044F
:10025000F10499F060E079E08DE390E0A701960168
:1002600061D3215031094109510956954795379578
:100270002795211580E1380790F0E889F9891082E7
:1002800060E874E88EE190E0A70196014BD321501D
:100290003109410951095695479537952795EC85C0
:1002A000FD853083EE85FF852083188EEC89FD89DE
:1002B0001083EA89FB89808180618083EA89FB89D8
:1002C000808188608083EA89FB898081806880835F
:1002D000EA89FB8980818F7D8083DF91CF911F9197
:1002E000FF90EF90DF90CF900895FC01A48DA80FB0
:1002F000B92FB11DA35ABF4F2C91848D90E0019668
:100300008F739927848FA689B7892C93A089B18987
:100310008C91837080648C93938D848D981306C028
:100320000288F389E02D80818F7D80830895EF928C
:10033000FF920F931F93CF93DF93EC0181E0888F9F
:100340009B8D8C8D98131AC0E889F989808185FF6F
:1003500015C09FB7F894EE89FF896083E889F98911
:1003600080818370806480839FBF81E090E0DF9113
:10037000CF911F910F91FF90EF900895F62E0B8D66
:1003800010E00F5F1F4F0F731127E02E8C8D8E1121
:100390000BC00FB607FCFACFE889F989808185FF89
:1003A000F5CFCE01A2DFF2CFEB8DEC0FFD2FF11DCB
:1003B000E35AFF4FF0829FB7F8940B8FEA89FB89CD
:1003C00080818062D0CFCF93DF93EC01888D88232A
:1003D000B1F0AA89BB89E889F9898C9185FD03C0B0
:1003E000808186FD0CC00FB607FCF7CF8C9185FF8E
:1003F000F2CF808185FFEDCFCE0177DFEACFDF91AD
:10040000CF91089580E090E0892B21F005DF8111E4
:100410000E94000080E090E0892B49F080E090E0AD
:10042000892B29F00E94000081110E94000080E0C9
:1004300090E0892B49F080E090E0892B29F00E9420
:10044000000081110E94000080E090E0892B49F0BB
:1004500080E090E0892B29F00E94000081110C942B
:10046000000008950895FB0101900020E9F73197FD
:10047000AF01461B570BDC01ED91FC910280F3812B
:10048000E02D19948F929F92AF92BF92EF92FF92BC
:100490000F931F93CF93DF93CDB7DEB7A1970FB61E
:1004A000F894DEBF0FBECDBF7C01FA01CB0119A2CB
:1004B000223008F42AE08E010F5D1F4F822E912C0E
:1004C000B12CA12CBF01A50194012CD2F901CA01C4
:1004D0006A3004F5605DD8016E938D01232B242BC7
:1004E000252B81F790E080E0109719F0BD01C7013E
:1004F000BADFA1960FB6F894DEBF0FBECDBFDF9175
:10050000CF911F910F91FF90EF90BF90AF909F9070
:100510008F900895695CDFCFCF92DF92EF92FF92C8
:100520000F931F93CF93DF93EC014115510541F4D5
:10053000E881F9810190F081E02D19958C011EC0B0
:100540006B01770FEE08FF084A30510531F52AE0BC
:10055000F7FE24C0E881F9810190F081E02D6DE281
:1005600019958C0144275527BA014C195D096E096C
:100570007F092AE0CE0186DF080F191F62E172E0D1
:10058000CE0171DF800F911FDF91CF911F910F91ED
:10059000FF90EF90DF90CF900895242FB701A60130
:1005A000CE0170DFCBCF0F931F93CF93DF93EC017E
:1005B000E881F9810190F081E02D19958C0162E1CB
:1005C00072E0CE0150DF800F911FDF91CF911F911C
:1005D0000F91089526E040E855E260E070E08FE179
:1005E00092E023DE10929000E1E9F0E080818360E8
:1005F000808380818B7F80838FEF9FE3909399002E
:1006000080939800109295001092940082E080935D
:100610007100789411C010921E02609117027091BF
:1006200018024AE050E08FE192E076DF8FE192E03D
:10063000E7DD1816190694F080911E02882369F3ED
:10064000D0E0C0E0C530D10530F7FE01E75EFD4FD8
:1006500060818FE192E0A7DF2196F4CF8FE192E0F5
:10066000ADDDE091160291E09E0F90931602F0E04E
:10067000E75EFD4F80839530F9F681E080931E029E
:1006800010921602D9CF1F920F920FB60F9211241B
:100690002F933F938F939F93AF93BF938091C1020A
:1006A0009091C202A091C302B091C4023091C002E5
:1006B00023E0230F2D3758F50196A11DB11D20937E
:1006C000C0028093C1029093C202A093C302B09370
:1006D000C4028091BC029091BD02A091BE02B09173
:1006E000BF020196A11DB11D8093BC029093BD0273
:1006F000A093BE02B093BF02BF91AF919F918F9123
:100700003F912F910F900FBE0F901F90189526E8E4
:10071000230F0296A11DB11DD2CF1F920F920FB6CB
:100720000F9211240BB60F922F933F934F935F9329
:100730006F937F938F939F93AF93BF93EF93FF93A9
:100740008FE192E0D2DDFF91EF91BF91AF919F9148
:100750008F917F916F915F914F913F912F910F906A
:100760000BBE0F900FBE0F901F9018951F920F9207
:100770000FB60F9211240BB60F922F938F939F9366
:10078000EF93FF93E0912F02F09130028081E0918E
:100790003502F091360282FD1DC0908180913802B1
:1007A0008F5F8F7320913902821741F0E0913802F8
:1007B000F0E0E15EFD4F958F80933802FF91EF915D
:1007C0009F918F912F910F900BBE0F900FBE0F90A6
:1007D0001F9018958081F2CF1F920F920FB60F9243
:1007E00011248F939F938091170290911802019684
:1007F00090931802809317029F918F910F900FBED4
:100800000F901F901895789484B5826084BD84B54C
:10081000816084BD85B5826085BD85B5816085BDFB
:10082000EEE6F0E0808181608083E1E8F0E0108214
:10083000808182608083808181608083E0E8F0E055
:10084000808181608083E1EBF0E08081846080833F
:10085000E0EBF0E0808181608083E1E9F0E080817D
:1008600082608083808181608083E0E9F0E0808124
:1008700081608083E1EAF0E0808182608083808112
:1008800081608083E0EAF0E0808181608083E1E242
:10089000F1E0808182608083808181608083E0E2FA
:1008A000F1E0808181608083EAE7F0E0808184600C
:1008B0008083808182608083808181608083808169
:1008C000806880831092C10085DEEFE1F2E0138240
:1008D000128288EE93E0A0E0B0E084839583A68343
:1008E000B78384E092E09183808385EC90E09587E4
:1008F000848784EC90E09787868780EC90E0918BEA
:10090000808B81EC90E0938B828B82EC90E0958BD6
:10091000848B86EC90E0978B868B118E128E138ED3
:10092000148E0895A1E21A2EAA1BBB1BFD010DC057
:10093000AA1FBB1FEE1FFF1FA217B307E407F5078F
:1009400020F0A21BB30BE40BF50B661F771F881F6B
:10095000991F1A9469F760957095809590959B0101
:10096000AC01BD01CF010895EE0FFF1F881F8BBFA3
:0C0970000790F691E02D1994F894FFCF49
:10097C00000000009701A200CF00E3010001DE009F
:06098C00F2000D0A00005C
:00000001FF
